{
  "address": "0x776F18B3521584a372c19d7D230433bFfA135469",
  "abi": [
    {
      "inputs": [
        {
          "internalType": "string",
          "name": "name",
          "type": "string"
        },
        {
          "internalType": "string",
          "name": "symbol",
          "type": "string"
        },
        {
          "internalType": "string",
          "name": "_domain",
          "type": "string"
        }
      ],
      "stateMutability": "nonpayable",
      "type": "constructor"
    },
    {
      "inputs": [],
      "name": "AddressNotRegisteredError",
      "type": "error"
    },
    {
      "inputs": [],
      "name": "InvalidTokenError",
      "type": "error"
    },
    {
      "inputs": [],
      "name": "NameAlreadyRegisteredError",
      "type": "error"
    },
    {
      "inputs": [],
      "name": "NameNotRegisteredError",
      "type": "error"
    },
    {
      "inputs": [],
      "name": "OnlyControllerError",
      "type": "error"
    },
    {
      "inputs": [],
      "name": "OnlyNFTOwnerError",
      "type": "error"
    },
    {
      "inputs": [],
      "name": "ZeroAddressNotAvailableError",
      "type": "error"
    },
    {
      "anonymous": false,
      "inputs": [
        {
          "indexed": true,
          "internalType": "address",
          "name": "owner",
          "type": "address"
        },
        {
          "indexed": true,
          "internalType": "address",
          "name": "approved",
          "type": "address"
        },
        {
          "indexed": true,
          "internalType": "uint256",
          "name": "tokenId",
          "type": "uint256"
        }
      ],
      "name": "Approval",
      "type": "event"
    },
    {
      "anonymous": false,
      "inputs": [
        {
          "indexed": true,
          "internalType": "address",
          "name": "owner",
          "type": "address"
        },
        {
          "indexed": true,
          "internalType": "address",
          "name": "operator",
          "type": "address"
        },
        {
          "indexed": false,
          "internalType": "bool",
          "name": "approved",
          "type": "bool"
        }
      ],
      "name": "ApprovalForAll",
      "type": "event"
    },
    {
      "anonymous": false,
      "inputs": [
        {
          "indexed": true,
          "internalType": "address",
          "name": "resolveAddress",
          "type": "address"
        },
        {
          "indexed": false,
          "internalType": "string",
          "name": "name",
          "type": "string"
        },
        {
          "indexed": false,
          "internalType": "uint256",
          "name": "tokenId",
          "type": "uint256"
        }
      ],
      "name": "NameRegistered",
      "type": "event"
    },
    {
      "anonymous": false,
      "inputs": [
        {
          "indexed": true,
          "internalType": "address",
          "name": "previousOwner",
          "type": "address"
        },
        {
          "indexed": true,
          "internalType": "address",
          "name": "newOwner",
          "type": "address"
        }
      ],
      "name": "OwnershipTransferred",
      "type": "event"
    },
    {
      "anonymous": false,
      "inputs": [
        {
          "indexed": true,
          "internalType": "address",
          "name": "addr",
          "type": "address"
        },
        {
          "indexed": false,
          "internalType": "string",
          "name": "newPrimaryName",
          "type": "string"
        }
      ],
      "name": "PrimaryNameUpdated",
      "type": "event"
    },
    {
      "anonymous": false,
      "inputs": [
        {
          "indexed": true,
          "internalType": "address",
          "name": "oldResolveAddress",
          "type": "address"
        },
        {
          "indexed": true,
          "internalType": "address",
          "name": "newResolveAddress",
          "type": "address"
        },
        {
          "indexed": false,
          "internalType": "string",
          "name": "name",
          "type": "string"
        },
        {
          "indexed": false,
          "internalType": "uint256",
          "name": "tokenId",
          "type": "uint256"
        }
      ],
      "name": "ResolveAddressUpdated",
      "type": "event"
    },
    {
      "anonymous": false,
      "inputs": [
        {
          "indexed": true,
          "internalType": "address",
          "name": "resolveAddress",
          "type": "address"
        },
        {
          "indexed": false,
          "internalType": "string",
          "name": "name",
          "type": "string"
        },
        {
          "indexed": false,
          "internalType": "uint256",
          "name": "tokenId",
          "type": "uint256"
        }
      ],
      "name": "TokenDataUpdated",
      "type": "event"
    },
    {
      "anonymous": false,
      "inputs": [
        {
          "indexed": true,
          "internalType": "address",
          "name": "from",
          "type": "address"
        },
        {
          "indexed": true,
          "internalType": "address",
          "name": "to",
          "type": "address"
        },
        {
          "indexed": true,
          "internalType": "uint256",
          "name": "tokenId",
          "type": "uint256"
        }
      ],
      "name": "Transfer",
      "type": "event"
    },
    {
      "inputs": [
        {
          "internalType": "address",
          "name": "to",
          "type": "address"
        },
        {
          "internalType": "uint256",
          "name": "tokenId",
          "type": "uint256"
        }
      ],
      "name": "approve",
      "outputs": [],
      "stateMutability": "nonpayable",
      "type": "function"
    },
    {
      "inputs": [
        {
          "internalType": "string",
          "name": "name",
          "type": "string"
        }
      ],
      "name": "available",
      "outputs": [
        {
          "internalType": "bool",
          "name": "",
          "type": "bool"
        }
      ],
      "stateMutability": "view",
      "type": "function"
    },
    {
      "inputs": [
        {
          "internalType": "address",
          "name": "owner",
          "type": "address"
        }
      ],
      "name": "balanceOf",
      "outputs": [
        {
          "internalType": "uint256",
          "name": "",
          "type": "uint256"
        }
      ],
      "stateMutability": "view",
      "type": "function"
    },
    {
      "inputs": [],
      "name": "controller",
      "outputs": [
        {
          "internalType": "contract UsernameController",
          "name": "",
          "type": "address"
        }
      ],
      "stateMutability": "view",
      "type": "function"
    },
    {
      "inputs": [],
      "name": "domain",
      "outputs": [
        {
          "internalType": "string",
          "name": "",
          "type": "string"
        }
      ],
      "stateMutability": "view",
      "type": "function"
    },
    {
      "inputs": [
        {
          "internalType": "uint256",
          "name": "tokenId",
          "type": "uint256"
        }
      ],
      "name": "getApproved",
      "outputs": [
        {
          "internalType": "address",
          "name": "",
          "type": "address"
        }
      ],
      "stateMutability": "view",
      "type": "function"
    },
    {
      "inputs": [
        {
          "internalType": "uint256",
          "name": "tokenId",
          "type": "uint256"
        }
      ],
      "name": "getDisplayName",
      "outputs": [
        {
          "internalType": "string",
          "name": "",
          "type": "string"
        }
      ],
      "stateMutability": "view",
      "type": "function"
    },
    {
      "inputs": [
        {
          "internalType": "address",
          "name": "owner",
          "type": "address"
        },
        {
          "internalType": "address",
          "name": "operator",
          "type": "address"
        }
      ],
      "name": "isApprovedForAll",
      "outputs": [
        {
          "internalType": "bool",
          "name": "",
          "type": "bool"
        }
      ],
      "stateMutability": "view",
      "type": "function"
    },
    {
      "inputs": [
        {
          "internalType": "uint256",
          "name": "tokenId",
          "type": "uint256"
        }
      ],
      "name": "isExpired",
      "outputs": [
        {
          "internalType": "bool",
          "name": "",
          "type": "bool"
        }
      ],
      "stateMutability": "view",
      "type": "function"
    },
    {
      "inputs": [
        {
          "internalType": "address",
          "name": "to",
          "type": "address"
        },
        {
          "internalType": "string",
          "name": "name",
          "type": "string"
        },
        {
          "internalType": "uint96",
          "name": "duration",
          "type": "uint96"
        }
      ],
      "name": "mint",
      "outputs": [
        {
          "internalType": "uint256",
          "name": "",
          "type": "uint256"
        }
      ],
      "stateMutability": "nonpayable",
      "type": "function"
    },
    {
      "inputs": [],
      "name": "name",
      "outputs": [
        {
          "internalType": "string",
          "name": "",
          "type": "string"
        }
      ],
      "stateMutability": "view",
      "type": "function"
    },
    {
      "inputs": [
        {
          "internalType": "uint256",
          "name": "tokenId",
          "type": "uint256"
        }
      ],
      "name": "nameExpires",
      "outputs": [
        {
          "internalType": "uint256",
          "name": "",
          "type": "uint256"
        }
      ],
      "stateMutability": "view",
      "type": "function"
    },
    {
      "inputs": [
        {
          "internalType": "string",
          "name": "name",
          "type": "string"
        }
      ],
      "name": "nameToTokenId",
      "outputs": [
        {
          "internalType": "uint256",
          "name": "",
          "type": "uint256"
        }
      ],
      "stateMutability": "pure",
      "type": "function"
    },
    {
      "inputs": [],
      "name": "owner",
      "outputs": [
        {
          "internalType": "address",
          "name": "",
          "type": "address"
        }
      ],
      "stateMutability": "view",
      "type": "function"
    },
    {
      "inputs": [
        {
          "internalType": "uint256",
          "name": "tokenId",
          "type": "uint256"
        }
      ],
      "name": "ownerOf",
      "outputs": [
        {
          "internalType": "address",
          "name": "",
          "type": "address"
        }
      ],
      "stateMutability": "view",
      "type": "function"
    },
    {
      "inputs": [
        {
          "internalType": "address",
          "name": "",
          "type": "address"
        }
      ],
      "name": "primaryNameTokenId",
      "outputs": [
        {
          "internalType": "uint256",
          "name": "",
          "type": "uint256"
        }
      ],
      "stateMutability": "view",
      "type": "function"
    },
    {
      "inputs": [],
      "name": "renounceOwnership",
      "outputs": [],
      "stateMutability": "nonpayable",
      "type": "function"
    },
    {
      "inputs": [
        {
          "internalType": "address",
          "name": "addr",
          "type": "address"
        }
      ],
      "name": "resolveAddress",
      "outputs": [
        {
          "internalType": "string",
          "name": "",
          "type": "string"
        }
      ],
      "stateMutability": "view",
      "type": "function"
    },
    {
      "inputs": [
        {
          "internalType": "string",
          "name": "name",
          "type": "string"
        }
      ],
      "name": "resolveName",
      "outputs": [
        {
          "internalType": "address",
          "name": "",
          "type": "address"
        }
      ],
      "stateMutability": "view",
      "type": "function"
    },
    {
      "inputs": [
        {
          "internalType": "address",
          "name": "from",
          "type": "address"
        },
        {
          "internalType": "address",
          "name": "to",
          "type": "address"
        },
        {
          "internalType": "uint256",
          "name": "tokenId",
          "type": "uint256"
        }
      ],
      "name": "safeTransferFrom",
      "outputs": [],
      "stateMutability": "nonpayable",
      "type": "function"
    },
    {
      "inputs": [
        {
          "internalType": "address",
          "name": "from",
          "type": "address"
        },
        {
          "internalType": "address",
          "name": "to",
          "type": "address"
        },
        {
          "internalType": "uint256",
          "name": "tokenId",
          "type": "uint256"
        },
        {
          "internalType": "bytes",
          "name": "data",
          "type": "bytes"
        }
      ],
      "name": "safeTransferFrom",
      "outputs": [],
      "stateMutability": "nonpayable",
      "type": "function"
    },
    {
      "inputs": [
        {
          "internalType": "address",
          "name": "operator",
          "type": "address"
        },
        {
          "internalType": "bool",
          "name": "approved",
          "type": "bool"
        }
      ],
      "name": "setApprovalForAll",
      "outputs": [],
      "stateMutability": "nonpayable",
      "type": "function"
    },
    {
      "inputs": [
        {
          "internalType": "address",
          "name": "_controller",
          "type": "address"
        }
      ],
      "name": "setController",
      "outputs": [],
      "stateMutability": "nonpayable",
      "type": "function"
    },
    {
      "inputs": [
        {
          "internalType": "bytes4",
          "name": "interfaceId",
          "type": "bytes4"
        }
      ],
      "name": "supportsInterface",
      "outputs": [
        {
          "internalType": "bool",
          "name": "",
          "type": "bool"
        }
      ],
      "stateMutability": "view",
      "type": "function"
    },
    {
      "inputs": [],
      "name": "symbol",
      "outputs": [
        {
          "internalType": "string",
          "name": "",
          "type": "string"
        }
      ],
      "stateMutability": "view",
      "type": "function"
    },
    {
      "inputs": [
        {
          "internalType": "uint256",
          "name": "",
          "type": "uint256"
        }
      ],
      "name": "tokenData",
      "outputs": [
        {
          "internalType": "uint96",
          "name": "mintTimestamp",
          "type": "uint96"
        },
        {
          "internalType": "uint96",
          "name": "duration",
          "type": "uint96"
        },
        {
          "internalType": "address",
          "name": "resolveAddress",
          "type": "address"
        },
        {
          "internalType": "string",
          "name": "name",
          "type": "string"
        }
      ],
      "stateMutability": "view",
      "type": "function"
    },
    {
      "inputs": [
        {
          "internalType": "uint256",
          "name": "tokenId",
          "type": "uint256"
        }
      ],
      "name": "tokenURI",
      "outputs": [
        {
          "internalType": "string",
          "name": "",
          "type": "string"
        }
      ],
      "stateMutability": "view",
      "type": "function"
    },
    {
      "inputs": [],
      "name": "totalSupply",
      "outputs": [
        {
          "internalType": "uint256",
          "name": "",
          "type": "uint256"
        }
      ],
      "stateMutability": "view",
      "type": "function"
    },
    {
      "inputs": [
        {
          "internalType": "address",
          "name": "from",
          "type": "address"
        },
        {
          "internalType": "address",
          "name": "to",
          "type": "address"
        },
        {
          "internalType": "uint256",
          "name": "tokenId",
          "type": "uint256"
        }
      ],
      "name": "transferFrom",
      "outputs": [],
      "stateMutability": "nonpayable",
      "type": "function"
    },
    {
      "inputs": [
        {
          "internalType": "address",
          "name": "newOwner",
          "type": "address"
        }
      ],
      "name": "transferOwnership",
      "outputs": [],
      "stateMutability": "nonpayable",
      "type": "function"
    },
    {
      "inputs": [
        {
          "internalType": "uint256",
          "name": "tokenId",
          "type": "uint256"
        }
      ],
      "name": "updatePrimaryName",
      "outputs": [],
      "stateMutability": "nonpayable",
      "type": "function"
    },
    {
      "inputs": [
        {
          "internalType": "uint256",
          "name": "tokenId",
          "type": "uint256"
        },
        {
          "internalType": "address",
          "name": "newResolveAddress",
          "type": "address"
        }
      ],
      "name": "updateResolveAddress",
      "outputs": [],
      "stateMutability": "nonpayable",
      "type": "function"
    },
    {
      "inputs": [
        {
          "internalType": "uint256",
          "name": "tokenId",
          "type": "uint256"
        },
        {
          "components": [
            {
              "internalType": "uint96",
              "name": "mintTimestamp",
              "type": "uint96"
            },
            {
              "internalType": "uint96",
              "name": "duration",
              "type": "uint96"
            },
            {
              "internalType": "address",
              "name": "resolveAddress",
              "type": "address"
            },
            {
              "internalType": "string",
              "name": "name",
              "type": "string"
            }
          ],
          "internalType": "struct UsernameNFT.TokenData",
          "name": "data",
          "type": "tuple"
        }
      ],
      "name": "updateTokenData",
      "outputs": [],
      "stateMutability": "nonpayable",
      "type": "function"
    }
  ],
  "transactionHash": "0x3dc88e55abd114887cf691f6b47467f3cfab08c519fedb29dba8332cd8ab58c1",
  "args": [
    ".linea Username NFTs",
    "LINEA",
    "linea"
  ],
  "numDeployments": 2,
  "solcInputHash": "55ea245eb42ae9b2b19ada3ddf3f854d",
  "bytecode": "0x608060405234620004bc576200490e803803806200001d81620004c1565b9283398101606082820312620004bc5781516001600160401b039190828111620004bc57816200004f918501620004e7565b9060209384810151848111620004bc57826200006d918301620004e7565b916040820151858111620004bc57620000879201620004e7565b825191848311620004a6576000908154936001958686811c961680156200049b575b89871014620003a5578190601f9687811162000448575b508990878311600114620003e4578592620003d8575b5050600019600383901b1c191690861b1782555b805190868211620003c45785548681811c91168015620003b9575b89821014620003a55790818684931162000352575b508890868311600114620002ee578492620002e2575b5050600019600383901b1c191690851b1784555b60068054336001600160a01b0319821681179092556001600160a01b03167f8be0079c531659141344cd1fd0a4f28419497f9722a3daafe3b4186f6b6457e08380a38151948511620002ce576007548481811c91168015620002c3575b87821014620002af5783811162000266575b5085928511600114620001fd579394508492919083620001f1575b50501b916000199060031b1c1916176007555b6040516143b490816200055a8239f35b015192503880620001ce565b6007815285812093958591601f198316915b888383106200024b575050501062000231575b505050811b01600755620001e1565b015160001960f88460031b161c1916905538808062000222565b8587015188559096019594850194879350908101906200020f565b600782528682208480880160051c820192898910620002a5575b0160051c019085905b82811062000299575050620001b3565b83815501859062000289565b9250819262000280565b634e487b7160e01b82526022600452602482fd5b90607f1690620001a1565b634e487b7160e01b81526041600452602490fd5b01519050388062000130565b8785528985208894509190601f198416865b8c8282106200033b575050841162000321575b505050811b01845562000144565b015160001960f88460031b161c1916905538808062000313565b8385015186558b9790950194938401930162000300565b9091508684528884208680850160051c8201928b86106200039b575b918991869594930160051c01915b8281106200038c5750506200011a565b8681558594508991016200037c565b925081926200036e565b634e487b7160e01b84526022600452602484fd5b90607f169062000105565b634e487b7160e01b83526041600452602483fd5b015190503880620000d6565b8580528a86208994509190601f198416875b8d82821062000431575050841162000417575b505050811b018255620000ea565b015160001960f88460031b161c1916905538808062000409565b8385015186558c97909501949384019301620003f6565b9091508480528985208780850160051c8201928c861062000491575b918a91869594930160051c01915b82811062000482575050620000c0565b8781558594508a910162000472565b9250819262000464565b95607f1695620000a9565b634e487b7160e01b600052604160045260246000fd5b600080fd5b6040519190601f01601f191682016001600160401b03811183821017620004a657604052565b919080601f84011215620004bc5782516001600160401b038111620004a6576020906200051d601f8201601f19168301620004c1565b92818452828287010111620004bc5760005b8181106200054557508260009394955001015290565b85810183015184820184015282016200052f56fe608080604052600436101561001357600080fd5b60003560e01c90816301ffc9a7146135b95750806306fdde0314613516578063081812fc146134f8578063095ea7b31461333f57806318160ddd1461332157806323b872dd146132fd57806342842e0e146132ca5780636352211e146132ac57806370a08231146131f5578063715018a6146131755780637b17b7a814612c2b57806381d5f3d414612be45780638da5cb5b14612bb057806392eefe9b14612b4b57806395d89b4114612aa8578063a22cb465146129ca578063aeb8ce9b1461298c578063b4b5b48f146128f6578063b88d4fde1461286e578063bc19bce514612815578063c2fb26a614612747578063c87b56dd14610949578063d6e4fa861461092b578063d9548e5314610903578063dd001254146108c0578063e4205d061461077b578063e985e9c514610717578063ee44f291146103e1578063f2fde38b146102e4578063f77c4791146102b0578063f81e87751461028c578063fbef8e90146101c65763fe6a101f1461018a57600080fd5b346101c15760206003193601126101c1576101bd6101a96004356141c3565b6040519182916020835260208301906136ab565b0390f35b600080fd5b346101c1576020806003193601126101c15760043580600052600a825273ffffffffffffffffffffffffffffffffffffffff6001604060002001541633036102625733600052600b825280604060002055600052600a81527f1d57cda29e3c01dfdca1d3f21c0483ff06e19bf3520c21cf5af5eddb8b2f7f2b61025d60026040600020016040519182918583523395830190613890565b0390a2005b60046040517f6cfb958d000000000000000000000000000000000000000000000000000000008152fd5b346101c15760206003193601126101c1576101bd6101a96102ab6136d0565b61409f565b346101c15760006003193601126101c157602073ffffffffffffffffffffffffffffffffffffffff60095416604051908152f35b346101c15760206003193601126101c1576102fd6136d0565b610305613927565b73ffffffffffffffffffffffffffffffffffffffff80911690811561037757600654827fffffffffffffffffffffffff0000000000000000000000000000000000000000821617600655167f8be0079c531659141344cd1fd0a4f28419497f9722a3daafe3b4186f6b6457e0600080a3005b608460405162461bcd60e51b815260206004820152602660248201527f4f776e61626c653a206e6577206f776e657220697320746865207a65726f206160448201527f64647265737300000000000000000000000000000000000000000000000000006064820152fd5b346101c1576003196040813601126101c157600435906024359067ffffffffffffffff908183116101c15760809083360301126101c1576040519261042584613758565b61043183600401613824565b845261043f60248401613824565b9360209081810195865260448501359373ffffffffffffffffffffffffffffffffffffffff9586861686036101c157604083019586526064810135908282116101c15760046104919236920101613806565b9660608301978852866009541633036106ed5784600052600a84526bffffffffffffffffffffffff60406000209351167fffffffffffffffff00000000000000000000000000000000000000000000000077ffffffffffffffffffffffff0000000000000000000000008554935160601b169216171782556002600192838101888851167fffffffffffffffffffffffff00000000000000000000000000000000000000008254161790550191875180519283116106be57610553845461383d565b601f8111610675575b508490601f841160011461061057600091849182610603575b505060001991921b9260031b1c19161790555b83835116156105d9577f781b23bebd7dad67f61c98ad264593b54d3b6dc2ac5002927277ba66899c22c7936105d09351169451916040519384936040855260408501906136ab565b918301520390a2005b60046040517fe1d76af9000000000000000000000000000000000000000000000000000000008152fd5b015191506000198b610575565b90601f1984939416918560005283876000209360005b898883831061065e5750505010610645575b505050811b019055610588565b015160001960f88460031b161c19169055888080610638565b868601518855909601959485019487935001610626565b8460005285600020601f850160051c8101918786106106b4575b601f0160051c019083905b8281106106a857505061055c565b6000815501839061069a565b909150819061068f565b7f4e487b7100000000000000000000000000000000000000000000000000000000600052604160045260246000fd5b60046040517f56be1927000000000000000000000000000000000000000000000000000000008152fd5b346101c15760406003193601126101c1576107306136d0565b6107386136f3565b9073ffffffffffffffffffffffffffffffffffffffff809116600052600560205260406000209116600052602052602060ff604060002054166040519015158152f35b346101c15760406003193601126101c1576004356107976136f3565b73ffffffffffffffffffffffffffffffffffffffff90816107b7846139d7565b1633036108965781169182156105d957610879817f42963d5155d3789ca0a9d651579a6a88164d069972af6f2df013a99af91991c392600052600a6020526001604060002001857fffffffffffffffffffffffff00000000000000000000000000000000000000008254968716961617905583600052600b60205260406000208181541461088c575b5084600052806040600020805415610884575b50600052600a602052600260406000200190604051928392604084526040840190613890565b9060208301520390a3005b558086610853565b6000905585610840565b60046040517fd01fd0d2000000000000000000000000000000000000000000000000000000008152fd5b346101c15760206003193601126101c15760043567ffffffffffffffff81116101c1576108fb6108f66020923690600401613806565b614108565b604051908152f35b346101c15760206003193601126101c1576020610921600435614138565b4211604051908152f35b346101c15760206003193601126101c15760206108fb600435614138565b346101c15760206003193601126101c157610989600435600052600260205273ffffffffffffffffffffffffffffffffffffffff60406000205416151590565b1561271d5760405161099a81613758565b605581527f557365726e616d65204e46547320617265206e6f6e2d66756e6769626c65207460208201527f6f6b656e73207468617420726570726573656e7420757365726e616d6573206f60408201527f6e20746865204c696e6561207a6b526f6c6c75702e00000000000000000000006060820152610a1b600435614335565b610a266004356141c3565b90600435600052600a60205260016040600020015460405191608083016040526f30313233343536373839616263646566600f527fffffffffffffffffffffffffffffffffffffffff0000000000000000000000006002840192602884526000604a86015260601b16600160005b8080018601602284831a600f811651602384015360041c51910153019060148214610ac25790600190610a94565b5050610c8c9260c792613078600282510191528152610aea610ae5600435614138565b614335565b906040519586937f5b7b2274726169745f74797065223a2022746f6b656e4964222c202276616c7560208601527f65223a202200000000000000000000000000000000000000000000000000000090816040870152610b5381518092602060458a019101613688565b8501907f227d2c207b2274726169745f74797065223a20226e616d65222c202276616c7560458301526065820152610b95825180936020606a85019101613688565b017f227d2c207b2274726169745f74797065223a20227265736f6c76656441646472606a8201527f657373222c202276616c7565223a202200000000000000000000000000000000608a820152610bf6825180936020609a85019101613688565b017f227d2c207b2274726169745f74797065223a2022657870697265734174222c20609a8201527f2276616c7565223a20220000000000000000000000000000000000000000000060ba820152610c5782518093602060c485019101613688565b017f227d5d000000000000000000000000000000000000000000000000000000000060c48201520360a7810184520182613790565b610c976004356141c3565b6040516060810181811067ffffffffffffffff8211176106be5760405260005b6060811061270f575060405180610e2081011067ffffffffffffffff610e20830111176106be57610e208101604052610e0081527f3c7376672077696474683d223130383822206865696768743d2231303838222060208201527f76696577426f783d2230203020313038382031303838222066696c6c3d226e6f60408201527f6e652220786d6c6e733d22687474703a2f2f7777772e77332e6f72672f32303060608201527f302f737667223e203c672066696c7465723d2275726c282366696c746572305f60808201527f645f323635375f3639353029223e203c6720636c69702d706174683d2275726c60a08201527f2823636c6970305f323635375f3639353029223e203c7265637420783d22342260c08201527f2077696474683d223130383022206865696768743d2231303830222072783d2260e08201527f313230222066696c6c3d2223313331333135222f3e203c7061746820643d224d6101008201527f323833202d33314c2d31342032363648313132382e354c32363020313133342e6101208201527f3522207374726f6b653d222332383238323822207374726f6b652d77696474686101408201527f3d223239222f3e203c7061746820643d224d3238302e35203236312e354c2d316101608201527f342035353748313132382e354c32363020313432352e3522207374726f6b653d6101808201527f222332383238323822207374726f6b652d77696474683d223239222f3e203c676101a08201527f20636c69702d706174683d2275726c2823636c6970315f323635375f363935306101c08201527f29223e203c7061746820643d224d3230352e313235203137332e3037394831386101e08201527f372e3530385638352e36353433483230352e313235563137332e3037395a22206102008201527f66696c6c3d227768697465222f3e203c7061746820643d224d3236382e3738336102208201527f2038332e39333735433237382e3530382038332e39333735203238362e3435346102408201527f2038372e343135203239322e36312039342e33363939433239382e37353720316102608201527f30312e333235203330312e383339203131302e313638203330312e38333920316102808201527f32302e383839563137332e303639483238342e323231563132332e36323643326102a08201527f38342e323231203131362e383937203238322e303936203131312e33333320326102c08201527f37372e383434203130362e393433433237332e353933203130322e35353320326102e08201527f36382e3334203130302e333538203236322e303738203130302e3335384332356103008201527f352e303237203130302e333538203234392e3237203130322e353533203234346103208201527f2e373937203130362e393433433234302e333234203131312e333333203233386103408201527f2e303833203131362e383937203233382e303833203132332e363236563137336103608201527f2e303639483232302e3436365638352e36353337483233382e303833563130386103808201527f2e323335433234302e3433203130302e373131203234342e3331392039342e376103a08201527f373633203234392e3734382039302e34343038433235352e3136392038362e316103c08201527f303532203236312e35322038332e39333735203236382e3739322038332e39336103e08201527f3735483236382e3738335a222066696c6c3d227768697465222f3e203c7061746104008201527f6820643d224d3335362e3736342038332e39333735433337302e3531392038336104208201527f2e39333735203338312e3730362038382e39353935203339302e3331362039386104408201527f2e39393435433339382e393236203130392e303339203430322e3435203132316104608201527f2e313738203430302e383833203133352e3434483332392e393137433333312e6104808201527f313438203134322e353133203333342e333337203134382e323438203333392e6104a08201527f343833203135322e363338433334342e363239203135372e303237203335302e6104c08201527f3833203135392e323233203335382e313031203135392e323233433336332e366104e08201527f39203135392e323233203336382e363935203135372e383232203337332e31316105008201527f35203135352e303331433337372e353335203135322e3234203338302e3937316105208201527f203134382e343437203338332e343333203134332e3635314c3339382e3139396105408201527f203135302e333236433339342e333939203135372e373431203338382e3937206105608201527f3136332e363637203338312e393237203136382e3132433337342e38383620316105808201527f37322e353732203336362e373733203137342e373935203335372e35393720316105a08201527f37342e373935433334342e373336203137342e373935203333332e39333820316105c08201527f37302e343539203332352e323134203136312e373937433331362e34392031356105e08201527f332e313335203331322e313233203134322e3335203331322e313233203132396106008201527f2e343631433331322e313233203131362e353732203331362e34203130352e376106208201527f3639203332342e3935372039372e30333434433333332e3531332038382e33306106408201527f3932203334342e3130372038332e39343635203335362e3735352038332e39346106608201527f36354c3335362e3736342038332e393337355a4d3335362e3736342039392e356106808201527f303933433335302e3237312039392e35303933203334342e363536203130312e6106a08201527f353333203333392e383939203130352e353838433333352e313433203130392e6106c08201527f363335203333312e393831203131342e3931203333302e343232203132312e346106e08201527f3133483338332e313036433338312e363533203131342e3931203337382e35346107008201527f34203130392e363335203337332e373937203130352e353838433336392e30346107208201527f31203130312e353432203336332e3336332039392e35303933203335362e37366107408201527f342039392e353039335a222066696c6c3d227768697465222f3e203c706174686107608201527f20643d224d3434392e3538392038332e39333735433435392e3838322038332e6107808201527f39333735203436382e3236392038362e36373433203437342e3735332039322e6107a08201527f313438433438312e3233362039372e36323136203438342e343838203130352e6107c08201527f343938203438342e343838203131352e373539563137332e303739483436362e6107e08201527f3837563134392e383131433436312e363039203136362e343637203435312e306108008201527f3432203137342e373935203433352e3136203137342e373935433432372e37376108208201527f33203137342e373935203432312e363236203137322e353436203431362e37306108408201527f32203136382e303339433431312e373737203136332e353331203430392e33326108608201527f33203135372e363333203430392e333233203135302e333335433430392e33326108808201527f33203134312e373831203431322e323832203133352e333539203431382e32316108a08201527f36203133312e303837433432342e313432203132362e383134203433312e36396108c08201527f37203132342e313539203434302e383635203132332e3132394c3435372e34376108e08201527f32203132312e343133433436332e373335203132302e383434203436362e38376109008201527f203131372e3939203436362e3837203131322e383539433436362e38372031306109208201527f382e363431203436352e323735203130352e323732203436322e3038372031306109408201527f322e3737433435382e383938203130302e323539203435342e3733352039392e6109608201527f30303336203434392e3538392039392e30303336433434342e3434332039392e6109808201527f30303336203433392e383831203130302e333736203433362e3235203130332e6109a08201527f313133433433322e363138203130352e3835203433302e323938203130392e386109c08201527f3432203432392e323838203131352e30394c3431312e383339203131302e38306109e08201527f39433431332e343037203130322e353938203431372e3539362039362e303638610a008201527f203432342e3432352039312e32313736433433312e3234362038362e33373632610a208201527f203433392e3633332038332e39343635203434392e3538392038332e39343635610a408201527f5638332e393337355a4d3434302e383635203136302e323434433434382e3133610a608201527f36203136302e323434203435342e323833203135372e373539203435392e3331610a808201527f35203135322e383031433436342e333436203134372e383432203436362e3836610aa08201527f31203134322e303532203436362e383631203133352e343331563133302e3634610ac08201527f34433436352e353233203133322e393239203436322e323733203133342e3334610ae08201527f37203435372e313237203133342e3931364c3434302e383536203133362e3936610b008201527f37433433362e363034203133372e353435203433332e323231203133382e3831610b208201527f38203433302e373035203134302e383135433432382e313839203134322e3831610b408201527f31203432362e393332203134352e3532203432362e393332203134382e393434610b608201527f433432362e393332203135322e333637203432382e313839203135352e313034610b808201527f203433302e373035203135372e313534433433332e323231203135392e323035610ba08201527f203433362e363034203136302e323334203434302e383536203136302e323334610bc08201527f4c3434302e383635203136302e3234345a222066696c6c3d227768697465222f610be08201527f3e203c7061746820643d224d3137352e333733203137332e3037394839345638610c008201527f352e36353433483131322e363138563135362e313433483137352e3337335631610c208201527f37332e3037395a222066696c6c3d227768697465222f3e203c7061746820643d610c408201527f224d3530312e3039352038332e39333739433531302e3236372038332e393337610c608201527f39203531372e3730322037362e33353536203531372e3730322036372e303032610c808201527f32433531372e3730322035372e36343838203531302e3236372035302e303636610ca08201527f34203530312e3039352035302e30363634433439312e3932332035302e303636610cc08201527f34203438342e3438382035372e36343838203438342e3438382036372e303032610ce08201527f32433438342e3438382037362e33353536203439312e3932332038332e393337610d008201527f39203530312e3039352038332e393337395a222066696c6c3d22776869746522610d208201527f2f3e203c2f673e203c7265637420783d222d34312220793d2237343922207769610d408201527f6474683d223131353922206865696768743d22323337222066696c6c3d222331610d608201527f3831383142222f3e203c746578742066696c6c3d2277686974652220786d6c3a610d808201527f73706163653d22707265736572766522207374796c653d2277686974652d7370610da08201527f6163653a207072652220666f6e742d66616d696c793d22417269616c2220666f610dc08201527f6e742d73697a653d22393622206c65747465722d73706163696e673d222d302e610de08201527f3034656d223e3c747370616e20783d2236372220793d223839392e323831223e610e008201528152611e016004356141c3565b602082015260405190816103e081011067ffffffffffffffff6103e0840111176106be57602061231a916103e084016040526103c084527f3c2f747370616e3e3c2f746578743e203c2f673e203c2f673e203c646566733e828501527f203c66696c7465722069643d2266696c746572305f645f323635375f3639353060408501527f2220783d22302220793d2230222077696474683d22313038382220686569676860608501527f743d2231303838222066696c746572556e6974733d227573657253706163654f60808501527f6e5573652220636f6c6f722d696e746572706f6c6174696f6e2d66696c74657260a08501527f733d2273524742223e203c6665466c6f6f6420666c6f6f642d6f70616369747960c08501527f3d22302220726573756c743d224261636b67726f756e64496d6167654669782260e08501527f2f3e203c6665436f6c6f724d617472697820696e3d22536f75726365416c70686101008501527f612220747970653d226d6174726978222076616c7565733d22302030203020306101208501527f20302030203020302030203020302030203020302030203020302030203132376101408501527f20302220726573756c743d2268617264416c706861222f3e203c66654f6666736101608501527f65742064793d2234222f3e203c6665476175737369616e426c757220737464446101808501527f6576696174696f6e3d2232222f3e203c6665436f6d706f7369746520696e323d6101a08501527f2268617264416c70686122206f70657261746f723d226f7574222f3e203c66656101c08501527f436f6c6f724d617472697820747970653d226d6174726978222076616c7565736101e08501527f3d223020302030203020302030203020302030203020302030203020302030206102008501527f302030203020302e32352030222f3e203c6665426c656e64206d6f64653d226e6102208501527f6f726d616c2220696e323d224261636b67726f756e64496d61676546697822206102408501527f726573756c743d22656666656374315f64726f70536861646f775f323635375f6102608501527f36393530222f3e203c6665426c656e64206d6f64653d226e6f726d616c2220696102808501527f6e3d22536f75726365477261706869632220696e323d22656666656374315f646102a08501527f726f70536861646f775f323635375f363935302220726573756c743d227368616102c08501527f7065222f3e203c2f66696c7465723e203c636c6970506174682069643d22636c6102e08501527f6970305f323635375f36393530223e203c7265637420783d22342220776964746103008501527f683d223130383022206865696768743d2231303830222072783d2231323022206103208501527f66696c6c3d227768697465222f3e203c2f636c6970506174683e203c636c69706103408501527f506174682069643d22636c6970315f323635375f36393530223e203c726563746103608501527f2077696474683d2234323422206865696768743d22313235222066696c6c3d226103808501527f776869746522207472616e73666f726d3d227472616e736c61746528393420356103a08501527f3029222f3e203c2f636c6970506174683e203c2f646566733e203c2f7376673e6103c08501528360408201528181519101519360405194826122e78794518092878088019101613688565b83016122fb82518093878085019101613688565b0161230e82518093868085019101613688565b01038084520182613790565b8060609151806125f2575b50509061247c92608a926040519586937f7b226e616d65223a20222e6c696e656120557365726e616d65204e4654730000602086015261236f815180926020603e89019101613688565b84017f222c20226465736372697074696f6e223a202200000000000000000000000000603e8201526123ab825180936020605185019101613688565b017f222c2022696d616765223a2022646174613a696d6167652f7376672b786d6c3b60518201527f6261736536342c00000000000000000000000000000000000000000000000000607182015261240c825180936020607885019101613688565b017f222c202261747472696275746573223a200000000000000000000000000000006078820152612447825180936020608985019101613688565b017f7d00000000000000000000000000000000000000000000000000000000000000608982015203606a810184520182613790565b806060905191826124df575b6101bd826101a9603d60405180937f646174613a6170706c69636174696f6e2f6a736f6e3b6261736536342c00000060208301526124cf8151809260208686019101613688565b810103601d810184520182613790565b9050600380600284010460021b90604051927f4142434445464748494a4b4c4d4e4f505152535455565758595a616263646566601f52603f7ffffffffffffffffffffffffffffffffffffffffffffffffffffffffffffffdd07f6768696a6b6c6d6e6f707172737475767778797a303132333435363738392d5f01815260208501928486019360048260208701955b0191848351818160121c16516000538181600c1c1651600153818160061c16516002531651845360005181520190848210156125ae57600490839061256e565b5092506101bd96601f197f3d3d0000000000000000000000000000000000000000000000000000000000009360009601166040520660020482035252815282612488565b9291509260039384600285010460021b604051917f4142434445464748494a4b4c4d4e4f505152535455565758595a616263646566601f52603f907ffffffffffffffffffffffffffffffffffffffffffffffffffffffffffffffdd07f6768696a6b6c6d6e6f707172737475767778797a303132333435363738392d5f01825260208401918385019260048a60208601945b0191838351818160121c16516000538181600c1c1651600153818160061c165160025316518c5360005181520190838210156126c4576004908b90612684565b50915061247c98608a98601f197f3d3d000000000000000000000000000000000000000000000000000000000000936000960116604052066002048203525281529192819450612325565b606082820152602001610cb7565b60046040517f9f12e874000000000000000000000000000000000000000000000000000000008152fd5b346101c15760006003193601126101c15760405160006007546127698161383d565b808452906001908181169081156127ee5750600114612793575b6101bd846101a981860382613790565b6007600090815292507fa66cc928b5edb82af9bd49922954155ab7b0942694bea4ce44661d9a8736c6885b8284106127d65750505081016020016101a982612783565b805460208587018101919091529093019281016127be565b60ff191660208087019190915292151560051b850190920192506101a99150839050612783565b346101c15760206003193601126101c15760043567ffffffffffffffff81116101c15761285061284b6020923690600401613806565b61401c565b73ffffffffffffffffffffffffffffffffffffffff60405191168152f35b346101c15760806003193601126101c1576128876136d0565b61288f6136f3565b906064359060443567ffffffffffffffff83116101c157366023840112156101c1576128f4936128cc6128ef9436906024816004013591016137cf565b926128df6128da8433613b45565b613a62565b6128ea838383613c31565b613f45565b613ad3565b005b346101c15760206003193601126101c157600435600052600a602052604060002080546101bd600261295473ffffffffffffffffffffffffffffffffffffffff6001860154169461294d6040518094819301613890565b0382613790565b6040519384936bffffffffffffffffffffffff90818116865260601c16602085015260408401526080606084015260808301906136ab565b346101c15760206003193601126101c15760043567ffffffffffffffff81116101c1576109216129c56108f66020933690600401613806565b614138565b346101c15760406003193601126101c1576129e36136d0565b602435908115158092036101c15773ffffffffffffffffffffffffffffffffffffffff1690813314612a6457336000526005602052604060002082600052602052604060002060ff1981541660ff83161790556040519081527f17307eab39ab6107e8899845ad3d59bd9653f200f220920489ca2b5937696c3160203392a3005b606460405162461bcd60e51b815260206004820152601960248201527f4552433732313a20617070726f766520746f2063616c6c6572000000000000006044820152fd5b346101c15760006003193601126101c15760405160006001805490612acc8261383d565b808552918181169081156127ee5750600114612af2576101bd846101a981860382613790565b600081815292507fb10e2d527612073b26eecdfd717e6a320cf44b4afac2b0732d9fcbe2b7fa0cf65b828410612b335750505081016020016101a982612783565b80546020858701810191909152909301928101612b1b565b346101c15760206003193601126101c15773ffffffffffffffffffffffffffffffffffffffff612b796136d0565b612b81613927565b167fffffffffffffffffffffffff00000000000000000000000000000000000000006009541617600955600080f35b346101c15760006003193601126101c157602073ffffffffffffffffffffffffffffffffffffffff60065416604051908152f35b346101c15760206003193601126101c15773ffffffffffffffffffffffffffffffffffffffff612c126136d0565b16600052600b6020526020604060002054604051908152f35b346101c15760606003193601126101c157612c446136d0565b60243567ffffffffffffffff81116101c157612c64903690600401613806565b6bffffffffffffffffffffffff916044359183831683036101c15773ffffffffffffffffffffffffffffffffffffffff93846009541633036106ed57612ca982614108565b93612cd785600052600260205273ffffffffffffffffffffffffffffffffffffffff60406000205416151590565b61309f575b60085495600019968781146130705760010160085560405191612cfe83613774565b6000835281861695861561302c57612df66128ef600295612d4b612d458c600052600260205273ffffffffffffffffffffffffffffffffffffffff60406000205416151590565b15613fd1565b612d7b612d458c600052600260205273ffffffffffffffffffffffffffffffffffffffff60406000205416151590565b8960005260036020526040600020600181540190558a600052866020528a6040600020947fffffffffffffffffffffffff0000000000000000000000000000000000000000958c87825416179055818c60007fddf252ad1be2c89b69c2b068fc378daa952ba7f163c4a11628f55a4df523b3ef8180a4613d7d565b60405192612e0384613758565b8542168452856020850193168352604084019288845260608501968888528a600052600a60205260406000209551167fffffffffffffffff00000000000000000000000000000000000000000000000077ffffffffffffffffffffffff0000000000000000000000008754935160601b1692161717845560018401925116908254161790550190519485519067ffffffffffffffff82116106be57612ea8835461383d565b96601f8811612fe4575b602097508790601f8411600114612f565792612f33949281927fdcc2175a495289b48da3c0c903e6e8fd7bbf9400cc93d7d1b8be780fc5916c669795600093612f4b575b50508260011b9260031b1c19161790555b83600052600b8652846040600020805415612f43575b50506040519182916040835260408301906136ab565b85878301520390a2604051908152f35b558487612f1d565b015191508a80612ef6565b9190601f1984169285600052896000209360005b818110612fcd5750928592612f339795927fdcc2175a495289b48da3c0c903e6e8fd7bbf9400cc93d7d1b8be780fc5916c66999760019610612fb5575b50505050811b019055612f07565b01519060f88460031b161c1916905589808080612fa7565b92948b600181928886015181550196019301612f6a565b836000526020600020601f840160051c81019860208510613022575b601f0160051c01975b8881106130165750612eb2565b60008155600101613009565b9098508890613000565b606460405162461bcd60e51b815260206004820152602060248201527f4552433732313a206d696e7420746f20746865207a65726f20616464726573736044820152fd5b7f4e487b7100000000000000000000000000000000000000000000000000000000600052601160045260246000fd5b6130a885614138565b42116130d85760046040517f557ebeac000000000000000000000000000000000000000000000000000000008152fd5b6130e1856139d7565b508460006130ee826139d7565b82825260046020528860408320917fffffffffffffffffffffffff000000000000000000000000000000000000000092838154169055169081835260036020526040832060001981540190558383526002602052604083209081541690557fddf252ad1be2c89b69c2b068fc378daa952ba7f163c4a11628f55a4df523b3ef8280a4612cdc565b346101c15760006003193601126101c15761318e613927565b600073ffffffffffffffffffffffffffffffffffffffff6006547fffffffffffffffffffffffff00000000000000000000000000000000000000008116600655167f8be0079c531659141344cd1fd0a4f28419497f9722a3daafe3b4186f6b6457e08280a3005b346101c15760206003193601126101c15773ffffffffffffffffffffffffffffffffffffffff6132236136d0565b1680156132425760005260036020526020604060002054604051908152f35b608460405162461bcd60e51b815260206004820152602960248201527f4552433732313a2061646472657373207a65726f206973206e6f74206120766160448201527f6c6964206f776e657200000000000000000000000000000000000000000000006064820152fd5b346101c15760206003193601126101c15760206128506004356139d7565b346101c1576128f46128ef6132de36613716565b90604051926132ec84613774565b600084526128df6128da8433613b45565b346101c1576128f461330e36613716565b9161331c6128da8433613b45565b613c31565b346101c15760006003193601126101c1576020600854604051908152f35b346101c15760406003193601126101c1576133586136d0565b6024359073ffffffffffffffffffffffffffffffffffffffff808061337c856139d7565b1692169180831461348e57803314908115613469575b50156133ff578260005260046020526040600020827fffffffffffffffffffffffff00000000000000000000000000000000000000008254161790556133d7836139d7565b167f8c5be1e5ebec7d5bd14f71427d1e84f3dd0314c0f7b2291e5b200ac8c7c3b925600080a4005b608460405162461bcd60e51b815260206004820152603d60248201527f4552433732313a20617070726f76652063616c6c6572206973206e6f7420746f60448201527f6b656e206f776e6572206f7220617070726f76656420666f7220616c6c0000006064820152fd5b9050600052600560205260406000203360005260205260ff6040600020541684613392565b608460405162461bcd60e51b815260206004820152602160248201527f4552433732313a20617070726f76616c20746f2063757272656e74206f776e6560448201527f72000000000000000000000000000000000000000000000000000000000000006064820152fd5b346101c15760206003193601126101c1576020612850600435613a06565b346101c15760006003193601126101c157604051600080546135378161383d565b808452906001908181169081156127ee5750600114613560576101bd846101a981860382613790565b600080805292507f290decd9548b62a8d60345a988386fc84ba6bc95484008f6362f93160ef3e5635b8284106135a15750505081016020016101a982612783565b80546020858701810191909152909301928101613589565b346101c15760206003193601126101c157600435907fffffffff0000000000000000000000000000000000000000000000000000000082168092036101c157817f80ac58cd000000000000000000000000000000000000000000000000000000006020931490811561365e575b8115613634575b5015158152f35b7f01ffc9a7000000000000000000000000000000000000000000000000000000009150148361362d565b7f5b5e139f0000000000000000000000000000000000000000000000000000000081149150613626565b60005b83811061369b5750506000910152565b818101518382015260200161368b565b90601f19601f6020936136c981518092818752878088019101613688565b0116010190565b6004359073ffffffffffffffffffffffffffffffffffffffff821682036101c157565b6024359073ffffffffffffffffffffffffffffffffffffffff821682036101c157565b60031960609101126101c15773ffffffffffffffffffffffffffffffffffffffff9060043582811681036101c1579160243590811681036101c1579060443590565b6080810190811067ffffffffffffffff8211176106be57604052565b6020810190811067ffffffffffffffff8211176106be57604052565b90601f601f19910116810190811067ffffffffffffffff8211176106be57604052565b67ffffffffffffffff81116106be57601f01601f191660200190565b9291926137db826137b3565b916137e96040519384613790565b8294818452818301116101c1578281602093846000960137010152565b9080601f830112156101c157816020613821933591016137cf565b90565b35906bffffffffffffffffffffffff821682036101c157565b90600182811c92168015613886575b602083101461385757565b7f4e487b7100000000000000000000000000000000000000000000000000000000600052602260045260246000fd5b91607f169161384c565b90600092918054916138a18361383d565b91828252600193848116908160001461390357506001146138c3575b50505050565b90919394506000526020928360002092846000945b8386106138ef5750505050010190388080806138bd565b8054858701830152940193859082016138d8565b915050602094955060ff199193501683830152151560051b010190388080806138bd565b73ffffffffffffffffffffffffffffffffffffffff60065416330361394857565b606460405162461bcd60e51b815260206004820152602060248201527f4f776e61626c653a2063616c6c6572206973206e6f7420746865206f776e65726044820152fd5b1561399357565b606460405162461bcd60e51b815260206004820152601860248201527f4552433732313a20696e76616c696420746f6b656e20494400000000000000006044820152fd5b600052600260205273ffffffffffffffffffffffffffffffffffffffff6040600020541661382181151561398c565b613a3b613a3682600052600260205273ffffffffffffffffffffffffffffffffffffffff60406000205416151590565b61398c565b600052600460205273ffffffffffffffffffffffffffffffffffffffff6040600020541690565b15613a6957565b608460405162461bcd60e51b815260206004820152602d60248201527f4552433732313a2063616c6c6572206973206e6f7420746f6b656e206f776e6560448201527f72206f7220617070726f766564000000000000000000000000000000000000006064820152fd5b15613ada57565b60405162461bcd60e51b815260206004820152603260248201527f4552433732313a207472616e7366657220746f206e6f6e20455243373231526560448201527f63656976657220696d706c656d656e74657200000000000000000000000000006064820152608490fd5b9073ffffffffffffffffffffffffffffffffffffffff8080613b66846139d7565b16931691838314938415613b99575b508315613b83575b50505090565b613b8f91929350613a06565b1614388080613b7d565b909350600052600560205260406000208260005260205260ff604060002054169238613b75565b15613bc757565b608460405162461bcd60e51b815260206004820152602560248201527f4552433732313a207472616e736665722066726f6d20696e636f72726563742060448201527f6f776e65720000000000000000000000000000000000000000000000000000006064820152fd5b90613c6691613c3f846139d7565b9173ffffffffffffffffffffffffffffffffffffffff938493848094169485911614613bc0565b16918215613d145781613c8391613c7c866139d7565b1614613bc0565b7fddf252ad1be2c89b69c2b068fc378daa952ba7f163c4a11628f55a4df523b3ef60008481526004602052604081207fffffffffffffffffffffffff00000000000000000000000000000000000000009081815416905583825260036020526040822060001981540190558482526040822060018154019055858252600260205284604083209182541617905580a4565b608460405162461bcd60e51b8152602060048201526024808201527f4552433732313a207472616e7366657220746f20746865207a65726f2061646460448201527f72657373000000000000000000000000000000000000000000000000000000006064820152fd5b9192600092909190803b15613f3b57613df99460405180927f150b7a020000000000000000000000000000000000000000000000000000000094858352336004840152876024840152604483015260806064830152818773ffffffffffffffffffffffffffffffffffffffff8260209b8c9760848301906136ab565b0393165af1849181613edf575b50613eb6575050503d600014613eae573d613e20816137b3565b90613e2e6040519283613790565b81528091833d92013e5b80519182613eab5760405162461bcd60e51b815260206004820152603260248201527f4552433732313a207472616e7366657220746f206e6f6e20455243373231526560448201527f63656976657220696d706c656d656e74657200000000000000000000000000006064820152608490fd5b01fd5b506060613e38565b7fffffffff00000000000000000000000000000000000000000000000000000000161492509050565b9091508581813d8311613f34575b613ef78183613790565b81010312613f3057517fffffffff0000000000000000000000000000000000000000000000000000000081168103613f30579038613e06565b8480fd5b503d613eed565b5050915050600190565b9293600093909291803b15613fc657948491613df996604051809481937f150b7a02000000000000000000000000000000000000000000000000000000009788845233600485015273ffffffffffffffffffffffffffffffffffffffff80921660248501526044840152608060648401528260209b8c9760848301906136ab565b505050915050600190565b15613fd857565b606460405162461bcd60e51b815260206004820152601c60248201527f4552433732313a20746f6b656e20616c7265616479206d696e746564000000006044820152fd5b61402590614108565b61405281600052600260205273ffffffffffffffffffffffffffffffffffffffff60406000205416151590565b15801561408e575b61408857600052600a60205273ffffffffffffffffffffffffffffffffffffffff6001604060002001541690565b50600090565b5061409881614138565b421161405a565b73ffffffffffffffffffffffffffffffffffffffff16600052600b6020526040600020546140cc81614138565b42116140f457600052600a60205261294d613821600260406000200160405192838092613890565b5060405161410181613774565b6000815290565b604051614132602082816141258183019687815193849201613688565b8101038084520182613790565b51902090565b600052600a602052600260406000206141ad6040519161415783613758565b8054926bffffffffffffffffffffffff9485938493848716845284602085019760601c16875273ffffffffffffffffffffffffffffffffffffffff600182015416604085015261294d6040518094819301613890565b6060820152511691511601818111613070571690565b6000908152602090600a82526002604082200190604051928184928454946141ea8661383d565b906001968588821691826000146143195750506001146142e1575b50507f2e0000000000000000000000000000000000000000000000000000000000000081528192600754926142398461383d565b938781169081156142bc5750600114614264575b50505050613821925003601f198101835282613790565b600781527fa66cc928b5edb82af9bd49922954155ab7b0942694bea4ce44661d9a8736c6889694505b8381106142a6575050613821945001013880808061424d565b865483820186015295840195879550810161428d565b91505061382196945060ff19915092919216838301528015150201013880808061424d565b90915082528282208583915b83831061430257505050830182013880614205565b8054898401870152889650918501918791016142ed565b9150935060ff1991501682860152801515028401013880614205565b90604051600019608082019360a0830160405260008552935b0192600a9081810660300185530492831561436c576000199061434e565b9250608083601f19920301920191825256fea26469706673582212200ec68509831e8d84ea5c775d8b50964de0d6de1cd538a458a9eae77b386437f264736f6c63430008130033",
  "devdoc": {
    "details": "UsernameNFT contract represents the NFTs for usernames. Each NFT represents a unique username and has an associated resolved address. The contract also stores the duration for which the username is registered and the timestamp when it was minted or renewed.",
    "events": {
      "Approval(address,address,uint256)": {
        "details": "Emitted when `owner` enables `approved` to manage the `tokenId` token."
      },
      "ApprovalForAll(address,address,bool)": {
        "details": "Emitted when `owner` enables or disables (`approved`) `operator` to manage all of its assets."
      },
      "Transfer(address,address,uint256)": {
        "details": "Emitted when `tokenId` token is transferred from `from` to `to`."
      }
    },
    "kind": "dev",
    "methods": {
      "approve(address,uint256)": {
        "details": "See {IERC721-approve}."
      },
      "available(string)": {
        "details": "This function checks if the given name is not registered or if the associated tokenId is expired.",
        "params": {
          "name": "The name to be checked for availability."
        },
        "returns": {
          "_0": "bool True if the name is available, false otherwise."
        }
      },
      "balanceOf(address)": {
        "details": "See {IERC721-balanceOf}."
      },
      "getApproved(uint256)": {
        "details": "See {IERC721-getApproved}."
      },
      "getDisplayName(uint256)": {
        "details": "This function first resolves the address to its associated username using the resolveAddress function. If an active, valid username is found, it appends the domain to the username and returns the resulting display name. Example: If the username is \"alice\" and the domain is \"example\", the display name will be \"alice.example\".",
        "params": {
          "tokenId": "The token ID to be resolved."
        },
        "returns": {
          "_0": "string memory The display name associated with the address."
        }
      },
      "isApprovedForAll(address,address)": {
        "details": "See {IERC721-isApprovedForAll}."
      },
      "isExpired(uint256)": {
        "details": "This function checks if the current block timestamp is greater than the expiration timestamp of the given tokenId.",
        "params": {
          "tokenId": "The token ID of the NFT."
        },
        "returns": {
          "_0": "bool True if the tokenId is expired, false otherwise."
        }
      },
      "mint(address,string,uint96)": {
        "details": "This function can only be called by the controller contract. It checks if the name is available and mints a new NFT with the given token data if it is.",
        "params": {
          "duration": "The duration for which the username will be registered.",
          "name": "The desired username.",
          "to": "The address of the user who will own the NFT."
        },
        "returns": {
          "_0": "uint256 The token ID of the minted NFT."
        }
      },
      "name()": {
        "details": "See {IERC721Metadata-name}."
      },
      "nameExpires(uint256)": {
        "details": "This function calculates the expiration timestamp by adding the duration to the mint timestamp of the given tokenId.",
        "params": {
          "tokenId": "The token ID of the NFT."
        },
        "returns": {
          "_0": "uint The Unix timestamp of when the tokenId expires."
        }
      },
      "nameToTokenId(string)": {
        "details": "This function calculates the token ID by hashing the given name using the keccak256 hash function.",
        "params": {
          "name": "The name to be converted."
        },
        "returns": {
          "_0": "uint256 The token ID corresponding to the given name."
        }
      },
      "owner()": {
        "details": "Returns the address of the current owner."
      },
      "ownerOf(uint256)": {
        "details": "See {IERC721-ownerOf}."
      },
      "renounceOwnership()": {
        "details": "Leaves the contract without owner. It will not be possible to call `onlyOwner` functions anymore. Can only be called by the current owner. NOTE: Renouncing ownership will leave the contract without an owner, thereby removing any functionality that is only available to the owner."
      },
      "resolveAddress(address)": {
        "details": "This function returns the username associated with a given resolved address if it is registered and not expired. Otherwise, it returns an empty string.",
        "params": {
          "addr": "The owner address to be resolved."
        },
        "returns": {
          "_0": "string memory The username associated with the resolved address."
        }
      },
      "resolveName(string)": {
        "details": "This function returns the resolved address for a given username if it is registered and not expired. Otherwise, it returns the zero address.",
        "params": {
          "name": "The username to be resolved."
        },
        "returns": {
          "_0": "address The resolved address of the username."
        }
      },
      "safeTransferFrom(address,address,uint256)": {
        "details": "See {IERC721-safeTransferFrom}."
      },
      "safeTransferFrom(address,address,uint256,bytes)": {
        "details": "See {IERC721-safeTransferFrom}."
      },
      "setApprovalForAll(address,bool)": {
        "details": "See {IERC721-setApprovalForAll}."
      },
      "setController(address)": {
        "details": "The controller contract is responsible for minting and updating token data.",
        "params": {
          "_controller": "address - The address of the controller contract."
        }
      },
      "supportsInterface(bytes4)": {
        "details": "See {IERC165-supportsInterface}."
      },
      "symbol()": {
        "details": "See {IERC721Metadata-symbol}."
      },
      "tokenURI(uint256)": {
        "details": "This function returns the URI of the NFT by encoding the generated JSON metadata as a base64 string. The URI can be used to retrieve metadata associated with the NFT, such as a JSON file containing information about the NFT's properties, image, and other attributes.",
        "params": {
          "tokenId": "The token ID of the NFT."
        },
        "returns": {
          "_0": "string memory The URI of the NFT."
        }
      },
      "transferFrom(address,address,uint256)": {
        "details": "See {IERC721-transferFrom}."
      },
      "transferOwnership(address)": {
        "details": "Transfers ownership of the contract to a new account (`newOwner`). Can only be called by the current owner."
      },
      "updatePrimaryName(uint256)": {
        "details": "This function can only be called by resolved address of the NFT. It updates the primary name for the given resolveAddress with the provided tokenId.",
        "params": {
          "tokenId": "The token ID to be the primary name of the resolved address."
        }
      },
      "updateResolveAddress(uint256,address)": {
        "details": "This function can only be called by the owner of the NFT. It updates the resolved address for the given tokenId with the provided newResolvedAddress. It also updates the primary name for the old and new resolved addresses if needed.",
        "params": {
          "newResolveAddress": "The new resolved address.",
          "tokenId": "The token ID of the NFT to be updated."
        }
      },
      "updateTokenData(uint256,(uint96,uint96,address,string))": {
        "details": "This function can only be called by the controller contract. It updates the token data for the given tokenId with the provided data.",
        "params": {
          "data": "The updated token data.",
          "tokenId": "The token ID of the NFT to be updated."
        }
      }
    },
    "title": "UsernameNFT",
    "version": 1
  },
  "userdoc": {
    "kind": "user",
    "methods": {
      "available(string)": {
        "notice": "Checks if a given name is available for registration."
      },
      "getDisplayName(uint256)": {
        "notice": "Returns the display name for a given address."
      },
      "isExpired(uint256)": {
        "notice": "Checks if a given tokenId is expired."
      },
      "mint(address,string,uint96)": {
        "notice": "Mints a new NFT for a given name if it's available."
      },
      "nameExpires(uint256)": {
        "notice": "Returns the Unix timestamp of when the given tokenId expires."
      },
      "nameToTokenId(string)": {
        "notice": "Converts a given name to its corresponding token ID."
      },
      "resolveAddress(address)": {
        "notice": "Returns the username for a given resolved address."
      },
      "resolveName(string)": {
        "notice": "Returns the resolved address for a given username."
      },
      "setController(address)": {
        "notice": "Sets the controller contract address."
      },
      "tokenURI(uint256)": {
        "notice": "Returns the URI for a given NFT."
      },
      "updatePrimaryName(uint256)": {
        "notice": "Updates the primary name for a given resolved address."
      },
      "updateResolveAddress(uint256,address)": {
        "notice": "Updates the resolved address for a given NFT."
      },
      "updateTokenData(uint256,(uint96,uint96,address,string))": {
        "notice": "Updates the token data for a given NFT."
      }
    },
    "version": 1
  },
  "storageLayout": {
    "storage": [
      {
        "astId": 138,
        "contract": "contracts/UsernameNFT.sol:UsernameNFT",
        "label": "_name",
        "offset": 0,
        "slot": "0",
        "type": "t_string_storage"
      },
      {
        "astId": 140,
        "contract": "contracts/UsernameNFT.sol:UsernameNFT",
        "label": "_symbol",
        "offset": 0,
        "slot": "1",
        "type": "t_string_storage"
      },
      {
        "astId": 144,
        "contract": "contracts/UsernameNFT.sol:UsernameNFT",
        "label": "_owners",
        "offset": 0,
        "slot": "2",
        "type": "t_mapping(t_uint256,t_address)"
      },
      {
        "astId": 148,
        "contract": "contracts/UsernameNFT.sol:UsernameNFT",
        "label": "_balances",
        "offset": 0,
        "slot": "3",
        "type": "t_mapping(t_address,t_uint256)"
      },
      {
        "astId": 152,
        "contract": "contracts/UsernameNFT.sol:UsernameNFT",
        "label": "_tokenApprovals",
        "offset": 0,
        "slot": "4",
        "type": "t_mapping(t_uint256,t_address)"
      },
      {
        "astId": 158,
        "contract": "contracts/UsernameNFT.sol:UsernameNFT",
        "label": "_operatorApprovals",
        "offset": 0,
        "slot": "5",
        "type": "t_mapping(t_address,t_mapping(t_address,t_bool))"
      },
      {
        "astId": 7,
        "contract": "contracts/UsernameNFT.sol:UsernameNFT",
        "label": "_owner",
        "offset": 0,
        "slot": "6",
        "type": "t_address"
      },
      {
        "astId": 3030,
        "contract": "contracts/UsernameNFT.sol:UsernameNFT",
        "label": "domain",
        "offset": 0,
        "slot": "7",
        "type": "t_string_storage"
      },
      {
        "astId": 3050,
        "contract": "contracts/UsernameNFT.sol:UsernameNFT",
        "label": "totalSupply",
        "offset": 0,
        "slot": "8",
        "type": "t_uint256"
      },
      {
        "astId": 3053,
        "contract": "contracts/UsernameNFT.sol:UsernameNFT",
        "label": "controller",
        "offset": 0,
        "slot": "9",
        "type": "t_contract(UsernameController)3010"
      },
      {
        "astId": 3067,
        "contract": "contracts/UsernameNFT.sol:UsernameNFT",
        "label": "tokenData",
        "offset": 0,
        "slot": "10",
        "type": "t_mapping(t_uint256,t_struct(TokenData)3062_storage)"
      },
      {
        "astId": 3071,
        "contract": "contracts/UsernameNFT.sol:UsernameNFT",
        "label": "primaryNameTokenId",
        "offset": 0,
        "slot": "11",
        "type": "t_mapping(t_address,t_uint256)"
      }
    ],
    "types": {
      "t_address": {
        "encoding": "inplace",
        "label": "address",
        "numberOfBytes": "20"
      },
      "t_bool": {
        "encoding": "inplace",
        "label": "bool",
        "numberOfBytes": "1"
      },
      "t_contract(UsernameController)3010": {
        "encoding": "inplace",
        "label": "contract UsernameController",
        "numberOfBytes": "20"
      },
      "t_mapping(t_address,t_bool)": {
        "encoding": "mapping",
        "key": "t_address",
        "label": "mapping(address => bool)",
        "numberOfBytes": "32",
        "value": "t_bool"
      },
      "t_mapping(t_address,t_mapping(t_address,t_bool))": {
        "encoding": "mapping",
        "key": "t_address",
        "label": "mapping(address => mapping(address => bool))",
        "numberOfBytes": "32",
        "value": "t_mapping(t_address,t_bool)"
      },
      "t_mapping(t_address,t_uint256)": {
        "encoding": "mapping",
        "key": "t_address",
        "label": "mapping(address => uint256)",
        "numberOfBytes": "32",
        "value": "t_uint256"
      },
      "t_mapping(t_uint256,t_address)": {
        "encoding": "mapping",
        "key": "t_uint256",
        "label": "mapping(uint256 => address)",
        "numberOfBytes": "32",
        "value": "t_address"
      },
      "t_mapping(t_uint256,t_struct(TokenData)3062_storage)": {
        "encoding": "mapping",
        "key": "t_uint256",
        "label": "mapping(uint256 => struct UsernameNFT.TokenData)",
        "numberOfBytes": "32",
        "value": "t_struct(TokenData)3062_storage"
      },
      "t_string_storage": {
        "encoding": "bytes",
        "label": "string",
        "numberOfBytes": "32"
      },
      "t_struct(TokenData)3062_storage": {
        "encoding": "inplace",
        "label": "struct UsernameNFT.TokenData",
        "members": [
          {
            "astId": 3055,
            "contract": "contracts/UsernameNFT.sol:UsernameNFT",
            "label": "mintTimestamp",
            "offset": 0,
            "slot": "0",
            "type": "t_uint96"
          },
          {
            "astId": 3057,
            "contract": "contracts/UsernameNFT.sol:UsernameNFT",
            "label": "duration",
            "offset": 12,
            "slot": "0",
            "type": "t_uint96"
          },
          {
            "astId": 3059,
            "contract": "contracts/UsernameNFT.sol:UsernameNFT",
            "label": "resolveAddress",
            "offset": 0,
            "slot": "1",
            "type": "t_address"
          },
          {
            "astId": 3061,
            "contract": "contracts/UsernameNFT.sol:UsernameNFT",
            "label": "name",
            "offset": 0,
            "slot": "2",
            "type": "t_string_storage"
          }
        ],
        "numberOfBytes": "96"
      },
      "t_uint256": {
        "encoding": "inplace",
        "label": "uint256",
        "numberOfBytes": "32"
      },
      "t_uint96": {
        "encoding": "inplace",
        "label": "uint96",
        "numberOfBytes": "12"
      }
    }
  }
}