{
  "address": "0x2f9F339f9FFf15E209BAaf3a2E86AA53B10A9b01",
  "abi": [
    {
      "inputs": [
        {
          "internalType": "uint256",
          "name": "_basePrice",
          "type": "uint256"
        }
      ],
      "stateMutability": "nonpayable",
      "type": "constructor"
    },
    {
      "inputs": [],
      "name": "UsernameTooShortError",
      "type": "error"
    },
    {
      "anonymous": false,
      "inputs": [
        {
          "indexed": false,
          "internalType": "uint256",
          "name": "oldBasePrice",
          "type": "uint256"
        },
        {
          "indexed": false,
          "internalType": "uint256",
          "name": "newBasePrice",
          "type": "uint256"
        }
      ],
      "name": "BasePriceUpdated",
      "type": "event"
    },
    {
      "anonymous": false,
      "inputs": [
        {
          "indexed": true,
          "internalType": "address",
          "name": "previousOwner",
          "type": "address"
        },
        {
          "indexed": true,
          "internalType": "address",
          "name": "newOwner",
          "type": "address"
        }
      ],
      "name": "OwnershipTransferred",
      "type": "event"
    },
    {
      "inputs": [],
      "name": "basePrice",
      "outputs": [
        {
          "internalType": "uint256",
          "name": "",
          "type": "uint256"
        }
      ],
      "stateMutability": "view",
      "type": "function"
    },
    {
      "inputs": [],
      "name": "owner",
      "outputs": [
        {
          "internalType": "address",
          "name": "",
          "type": "address"
        }
      ],
      "stateMutability": "view",
      "type": "function"
    },
    {
      "inputs": [
        {
          "internalType": "uint256",
          "name": "usernameLength",
          "type": "uint256"
        },
        {
          "internalType": "uint8",
          "name": "durationInYears",
          "type": "uint8"
        }
      ],
      "name": "price",
      "outputs": [
        {
          "internalType": "uint256",
          "name": "",
          "type": "uint256"
        }
      ],
      "stateMutability": "view",
      "type": "function"
    },
    {
      "inputs": [],
      "name": "renounceOwnership",
      "outputs": [],
      "stateMutability": "nonpayable",
      "type": "function"
    },
    {
      "inputs": [
        {
          "internalType": "uint256",
          "name": "newBasePrice",
          "type": "uint256"
        }
      ],
      "name": "setBasePrice",
      "outputs": [],
      "stateMutability": "nonpayable",
      "type": "function"
    },
    {
      "inputs": [
        {
          "internalType": "address",
          "name": "newOwner",
          "type": "address"
        }
      ],
      "name": "transferOwnership",
      "outputs": [],
      "stateMutability": "nonpayable",
      "type": "function"
    }
  ],
  "transactionHash": "0x9dc13d785def0cf50f689b96148a2bbb1d93730ad73e81dfd7c4a1ec64f6fd77",
  "args": [
    "100000000000000"
  ],
  "numDeployments": 1,
  "solcInputHash": "e2144f9ce7f34d3a9687be4c4c130b81",
  "bytecode": "0x608060405234801561001057600080fd5b50604051610ca4380380610ca483398181016040528101906100329190610162565b61004e61004361005b60201b60201c565b61006360201b60201c565b806001819055505061018f565b600033905090565b60008060009054906101000a900473ffffffffffffffffffffffffffffffffffffffff169050816000806101000a81548173ffffffffffffffffffffffffffffffffffffffff021916908373ffffffffffffffffffffffffffffffffffffffff1602179055508173ffffffffffffffffffffffffffffffffffffffff168173ffffffffffffffffffffffffffffffffffffffff167f8be0079c531659141344cd1fd0a4f28419497f9722a3daafe3b4186f6b6457e060405160405180910390a35050565b600080fd5b6000819050919050565b61013f8161012c565b811461014a57600080fd5b50565b60008151905061015c81610136565b92915050565b60006020828403121561017857610177610127565b5b60006101868482850161014d565b91505092915050565b610b068061019e6000396000f3fe608060405234801561001057600080fd5b50600436106100625760003560e01c80633e629e9f14610067578063715018a6146100975780638da5cb5b146100a1578063c7876ea4146100bf578063de4b3262146100dd578063f2fde38b146100f9575b600080fd5b610081600480360381019061007c919061075b565b610115565b60405161008e91906107aa565b60405180910390f35b61009f6101ee565b005b6100a9610202565b6040516100b69190610806565b60405180910390f35b6100c761022b565b6040516100d491906107aa565b60405180910390f35b6100f760048036038101906100f29190610821565b610231565b005b610113600480360381019061010e919061087a565b610284565b005b60006003831015610152576040517fea8112a400000000000000000000000000000000000000000000000000000000815260040160405180910390fd5b60038303610172578160ff1660015461016b91906108d6565b90506101e8565b600061018561018085610307565b61032a565b905060006101a46101966002610307565b61019f87610307565b610364565b90506101cb6101c66101b7600154610307565b6101c185856103ed565b6103ed565b610458565b8460ff166101d9919061092c565b67ffffffffffffffff16925050505b92915050565b6101f6610479565b61020060006104f7565b565b60008060009054906101000a900473ffffffffffffffffffffffffffffffffffffffff16905090565b60015481565b610239610479565b60006001549050816001819055507f25de84a545fa2e920c87ed61608c1a1e73712c6f83720133126e05145a028cc48183604051610278929190610969565b60405180910390a15050565b61028c610479565b600073ffffffffffffffffffffffffffffffffffffffff168173ffffffffffffffffffffffffffffffffffffffff16036102fb576040517f08c379a00000000000000000000000000000000000000000000000000000000081526004016102f290610a15565b60405180910390fd5b610304816104f7565b50565b6000677fffffffffffffff82111561031e57600080fd5b604082901b9050919050565b60008082600f0b1361033b57600080fd5b60806fb17217f7d1cf79abc9e3b39803f2f6af610357846105bb565b600f0b02901c9050919050565b60008082600f0b0361037557600080fd5b600082600f0b604085600f0b901b8161039157610390610a35565b5b0590507fffffffffffffffffffffffffffffffff80000000000000000000000000000000600f0b81121580156103da57506f7fffffffffffffffffffffffffffffff600f0b8113155b6103e357600080fd5b8091505092915050565b600080604083600f0b85600f0b02901d90507fffffffffffffffffffffffffffffffff80000000000000000000000000000000600f0b811215801561044557506f7fffffffffffffffffffffffffffffff600f0b8113155b61044e57600080fd5b8091505092915050565b60008082600f0b121561046a57600080fd5b604082600f0b901d9050919050565b6104816106df565b73ffffffffffffffffffffffffffffffffffffffff1661049f610202565b73ffffffffffffffffffffffffffffffffffffffff16146104f5576040517f08c379a00000000000000000000000000000000000000000000000000000000081526004016104ec90610ab0565b60405180910390fd5b565b60008060009054906101000a900473ffffffffffffffffffffffffffffffffffffffff169050816000806101000a81548173ffffffffffffffffffffffffffffffffffffffff021916908373ffffffffffffffffffffffffffffffffffffffff1602179055508173ffffffffffffffffffffffffffffffffffffffff168173ffffffffffffffffffffffffffffffffffffffff167f8be0079c531659141344cd1fd0a4f28419497f9722a3daafe3b4186f6b6457e060405160405180910390a35050565b60008082600f0b136105cc57600080fd5b60008083600f0b90506801000000000000000081126105f357604081901d90506040820191505b640100000000811261060d57602081901d90506020820191505b62010000811261062557601081901d90506010820191505b610100811261063c57600881901d90506008820191505b6010811261065257600481901d90506004820191505b6004811261066857600281901d90506002820191505b60028112610677576001820191505b60006040808403901b9050600083607f0386600f0b901b9050600067800000000000000090505b60008113156106d2578182029150600060ff83901c905080607f0183901c92508082028401935050600181901d905061069e565b5081945050505050919050565b600033905090565b600080fd5b6000819050919050565b6106ff816106ec565b811461070a57600080fd5b50565b60008135905061071c816106f6565b92915050565b600060ff82169050919050565b61073881610722565b811461074357600080fd5b50565b6000813590506107558161072f565b92915050565b60008060408385031215610772576107716106e7565b5b60006107808582860161070d565b925050602061079185828601610746565b9150509250929050565b6107a4816106ec565b82525050565b60006020820190506107bf600083018461079b565b92915050565b600073ffffffffffffffffffffffffffffffffffffffff82169050919050565b60006107f0826107c5565b9050919050565b610800816107e5565b82525050565b600060208201905061081b60008301846107f7565b92915050565b600060208284031215610837576108366106e7565b5b60006108458482850161070d565b91505092915050565b610857816107e5565b811461086257600080fd5b50565b6000813590506108748161084e565b92915050565b6000602082840312156108905761088f6106e7565b5b600061089e84828501610865565b91505092915050565b7f4e487b7100000000000000000000000000000000000000000000000000000000600052601160045260246000fd5b60006108e1826106ec565b91506108ec836106ec565b92508282026108fa816106ec565b91508282048414831517610911576109106108a7565b5b5092915050565b600067ffffffffffffffff82169050919050565b600061093782610918565b915061094283610918565b925082820261095081610918565b9150808214610962576109616108a7565b5b5092915050565b600060408201905061097e600083018561079b565b61098b602083018461079b565b9392505050565b600082825260208201905092915050565b7f4f776e61626c653a206e6577206f776e657220697320746865207a65726f206160008201527f6464726573730000000000000000000000000000000000000000000000000000602082015250565b60006109ff602683610992565b9150610a0a826109a3565b604082019050919050565b60006020820190508181036000830152610a2e816109f2565b9050919050565b7f4e487b7100000000000000000000000000000000000000000000000000000000600052601260045260246000fd5b7f4f776e61626c653a2063616c6c6572206973206e6f7420746865206f776e6572600082015250565b6000610a9a602083610992565b9150610aa582610a64565b602082019050919050565b60006020820190508181036000830152610ac981610a8d565b905091905056fea26469706673582212206a58867cbfa0043290876679cd436badddb92d8720c0512bd5b9420d88a939d564736f6c63430008130033",
  "devdoc": {
    "details": "Oracle contract returns a price set by the oracle contract owner. The owner can change the base price. The price is inversely proportional to the natural logarithm of the username length and is multiplied by the duration.",
    "kind": "dev",
    "methods": {
      "owner()": {
        "details": "Returns the address of the current owner."
      },
      "price(uint256,uint8)": {
        "details": "The function reverts if the username length is less than 3. The base price is returned if the username length is exactly 3.",
        "params": {
          "durationInYears": "The duration in years for which the price is calculated.",
          "usernameLength": "The length of the username."
        },
        "returns": {
          "_0": "uint - The current price."
        }
      },
      "renounceOwnership()": {
        "details": "Leaves the contract without owner. It will not be possible to call `onlyOwner` functions anymore. Can only be called by the current owner. NOTE: Renouncing ownership will leave the contract without an owner, thereby removing any functionality that is only available to the owner."
      },
      "setBasePrice(uint256)": {
        "params": {
          "newBasePrice": "The new base price to be set."
        }
      },
      "transferOwnership(address)": {
        "details": "Transfers ownership of the contract to a new account (`newOwner`). Can only be called by the current owner."
      }
    },
    "title": "Oracle",
    "version": 1
  },
  "userdoc": {
    "kind": "user",
    "methods": {
      "price(uint256,uint8)": {
        "notice": "Calculates and returns the price for a username based on its length and duration. The price is determined by the natural logarithm of the username length and is inversely proportional to the length."
      },
      "setBasePrice(uint256)": {
        "notice": "Allows the owner to set a new base price."
      }
    },
    "version": 1
  },
  "storageLayout": {
    "storage": [
      {
        "astId": 7,
        "contract": "contracts/Oracle.sol:Oracle",
        "label": "_owner",
        "offset": 0,
        "slot": "0",
        "type": "t_address"
      },
      {
        "astId": 5575,
        "contract": "contracts/Oracle.sol:Oracle",
        "label": "basePrice",
        "offset": 0,
        "slot": "1",
        "type": "t_uint256"
      }
    ],
    "types": {
      "t_address": {
        "encoding": "inplace",
        "label": "address",
        "numberOfBytes": "20"
      },
      "t_uint256": {
        "encoding": "inplace",
        "label": "uint256",
        "numberOfBytes": "32"
      }
    }
  }
}