{
  "address": "0xa76e2A2885eA13DaBcEb57568AFA66eF136073f0",
  "abi": [
    {
      "inputs": [
        {
          "internalType": "string",
          "name": "name",
          "type": "string"
        },
        {
          "internalType": "string",
          "name": "symbol",
          "type": "string"
        },
        {
          "internalType": "string",
          "name": "_domain",
          "type": "string"
        }
      ],
      "stateMutability": "nonpayable",
      "type": "constructor"
    },
    {
      "inputs": [],
      "name": "AddressNotRegisteredError",
      "type": "error"
    },
    {
      "inputs": [],
      "name": "NameAlreadyRegisteredError",
      "type": "error"
    },
    {
      "inputs": [],
      "name": "NameNotRegisteredError",
      "type": "error"
    },
    {
      "inputs": [],
      "name": "OnlyControllerError",
      "type": "error"
    },
    {
      "inputs": [],
      "name": "OnlyNFTOwnerError",
      "type": "error"
    },
    {
      "inputs": [],
      "name": "ZeroAddressNotAvailableError",
      "type": "error"
    },
    {
      "anonymous": false,
      "inputs": [
        {
          "indexed": true,
          "internalType": "address",
          "name": "owner",
          "type": "address"
        },
        {
          "indexed": true,
          "internalType": "address",
          "name": "approved",
          "type": "address"
        },
        {
          "indexed": true,
          "internalType": "uint256",
          "name": "tokenId",
          "type": "uint256"
        }
      ],
      "name": "Approval",
      "type": "event"
    },
    {
      "anonymous": false,
      "inputs": [
        {
          "indexed": true,
          "internalType": "address",
          "name": "owner",
          "type": "address"
        },
        {
          "indexed": true,
          "internalType": "address",
          "name": "operator",
          "type": "address"
        },
        {
          "indexed": false,
          "internalType": "bool",
          "name": "approved",
          "type": "bool"
        }
      ],
      "name": "ApprovalForAll",
      "type": "event"
    },
    {
      "anonymous": false,
      "inputs": [
        {
          "indexed": true,
          "internalType": "address",
          "name": "resolvedAddress",
          "type": "address"
        },
        {
          "indexed": false,
          "internalType": "string",
          "name": "name",
          "type": "string"
        },
        {
          "indexed": false,
          "internalType": "uint256",
          "name": "tokenId",
          "type": "uint256"
        }
      ],
      "name": "NameRegistered",
      "type": "event"
    },
    {
      "anonymous": false,
      "inputs": [
        {
          "indexed": true,
          "internalType": "address",
          "name": "previousOwner",
          "type": "address"
        },
        {
          "indexed": true,
          "internalType": "address",
          "name": "newOwner",
          "type": "address"
        }
      ],
      "name": "OwnershipTransferred",
      "type": "event"
    },
    {
      "anonymous": false,
      "inputs": [
        {
          "indexed": true,
          "internalType": "address",
          "name": "oldResolvedAddress",
          "type": "address"
        },
        {
          "indexed": true,
          "internalType": "address",
          "name": "newResolvedAddress",
          "type": "address"
        },
        {
          "indexed": false,
          "internalType": "string",
          "name": "name",
          "type": "string"
        },
        {
          "indexed": false,
          "internalType": "uint256",
          "name": "tokenId",
          "type": "uint256"
        }
      ],
      "name": "ResolveAddressUpdated",
      "type": "event"
    },
    {
      "anonymous": false,
      "inputs": [
        {
          "indexed": true,
          "internalType": "address",
          "name": "resolvedAddress",
          "type": "address"
        },
        {
          "indexed": false,
          "internalType": "string",
          "name": "name",
          "type": "string"
        },
        {
          "indexed": false,
          "internalType": "uint256",
          "name": "tokenId",
          "type": "uint256"
        }
      ],
      "name": "TokenDataUpdated",
      "type": "event"
    },
    {
      "anonymous": false,
      "inputs": [
        {
          "indexed": true,
          "internalType": "address",
          "name": "from",
          "type": "address"
        },
        {
          "indexed": true,
          "internalType": "address",
          "name": "to",
          "type": "address"
        },
        {
          "indexed": true,
          "internalType": "uint256",
          "name": "tokenId",
          "type": "uint256"
        }
      ],
      "name": "Transfer",
      "type": "event"
    },
    {
      "inputs": [
        {
          "internalType": "address",
          "name": "to",
          "type": "address"
        },
        {
          "internalType": "uint256",
          "name": "tokenId",
          "type": "uint256"
        }
      ],
      "name": "approve",
      "outputs": [],
      "stateMutability": "nonpayable",
      "type": "function"
    },
    {
      "inputs": [
        {
          "internalType": "address",
          "name": "owner",
          "type": "address"
        }
      ],
      "name": "balanceOf",
      "outputs": [
        {
          "internalType": "uint256",
          "name": "",
          "type": "uint256"
        }
      ],
      "stateMutability": "view",
      "type": "function"
    },
    {
      "inputs": [],
      "name": "controller",
      "outputs": [
        {
          "internalType": "contract UsernameController",
          "name": "",
          "type": "address"
        }
      ],
      "stateMutability": "view",
      "type": "function"
    },
    {
      "inputs": [],
      "name": "domain",
      "outputs": [
        {
          "internalType": "string",
          "name": "",
          "type": "string"
        }
      ],
      "stateMutability": "view",
      "type": "function"
    },
    {
      "inputs": [
        {
          "internalType": "uint256",
          "name": "tokenId",
          "type": "uint256"
        }
      ],
      "name": "getApproved",
      "outputs": [
        {
          "internalType": "address",
          "name": "",
          "type": "address"
        }
      ],
      "stateMutability": "view",
      "type": "function"
    },
    {
      "inputs": [
        {
          "internalType": "address",
          "name": "addr",
          "type": "address"
        }
      ],
      "name": "getDisplayName",
      "outputs": [
        {
          "internalType": "string",
          "name": "",
          "type": "string"
        }
      ],
      "stateMutability": "view",
      "type": "function"
    },
    {
      "inputs": [
        {
          "internalType": "uint256",
          "name": "tokenId",
          "type": "uint256"
        }
      ],
      "name": "getTokenData",
      "outputs": [
        {
          "components": [
            {
              "internalType": "uint96",
              "name": "mintTimestamp",
              "type": "uint96"
            },
            {
              "internalType": "uint96",
              "name": "duration",
              "type": "uint96"
            },
            {
              "internalType": "address",
              "name": "resolvedAddress",
              "type": "address"
            }
          ],
          "internalType": "struct UsernameNFT.TokenData",
          "name": "",
          "type": "tuple"
        }
      ],
      "stateMutability": "view",
      "type": "function"
    },
    {
      "inputs": [
        {
          "internalType": "address",
          "name": "owner",
          "type": "address"
        },
        {
          "internalType": "address",
          "name": "operator",
          "type": "address"
        }
      ],
      "name": "isApprovedForAll",
      "outputs": [
        {
          "internalType": "bool",
          "name": "",
          "type": "bool"
        }
      ],
      "stateMutability": "view",
      "type": "function"
    },
    {
      "inputs": [
        {
          "internalType": "string",
          "name": "name",
          "type": "string"
        }
      ],
      "name": "isAvailable",
      "outputs": [
        {
          "internalType": "bool",
          "name": "",
          "type": "bool"
        }
      ],
      "stateMutability": "view",
      "type": "function"
    },
    {
      "inputs": [
        {
          "internalType": "uint256",
          "name": "tokenId",
          "type": "uint256"
        }
      ],
      "name": "isExpired",
      "outputs": [
        {
          "internalType": "bool",
          "name": "",
          "type": "bool"
        }
      ],
      "stateMutability": "view",
      "type": "function"
    },
    {
      "inputs": [
        {
          "internalType": "address",
          "name": "to",
          "type": "address"
        },
        {
          "internalType": "address",
          "name": "resolvedAddress",
          "type": "address"
        },
        {
          "internalType": "string",
          "name": "name",
          "type": "string"
        },
        {
          "internalType": "uint96",
          "name": "duration",
          "type": "uint96"
        }
      ],
      "name": "mint",
      "outputs": [
        {
          "internalType": "uint256",
          "name": "",
          "type": "uint256"
        }
      ],
      "stateMutability": "nonpayable",
      "type": "function"
    },
    {
      "inputs": [],
      "name": "name",
      "outputs": [
        {
          "internalType": "string",
          "name": "",
          "type": "string"
        }
      ],
      "stateMutability": "view",
      "type": "function"
    },
    {
      "inputs": [
        {
          "internalType": "uint256",
          "name": "tokenId",
          "type": "uint256"
        }
      ],
      "name": "nameExpirationTime",
      "outputs": [
        {
          "internalType": "uint256",
          "name": "",
          "type": "uint256"
        }
      ],
      "stateMutability": "view",
      "type": "function"
    },
    {
      "inputs": [
        {
          "internalType": "string",
          "name": "",
          "type": "string"
        }
      ],
      "name": "nameToTokenId",
      "outputs": [
        {
          "internalType": "uint256",
          "name": "",
          "type": "uint256"
        }
      ],
      "stateMutability": "view",
      "type": "function"
    },
    {
      "inputs": [],
      "name": "owner",
      "outputs": [
        {
          "internalType": "address",
          "name": "",
          "type": "address"
        }
      ],
      "stateMutability": "view",
      "type": "function"
    },
    {
      "inputs": [
        {
          "internalType": "uint256",
          "name": "tokenId",
          "type": "uint256"
        }
      ],
      "name": "ownerOf",
      "outputs": [
        {
          "internalType": "address",
          "name": "",
          "type": "address"
        }
      ],
      "stateMutability": "view",
      "type": "function"
    },
    {
      "inputs": [],
      "name": "renounceOwnership",
      "outputs": [],
      "stateMutability": "nonpayable",
      "type": "function"
    },
    {
      "inputs": [
        {
          "internalType": "address",
          "name": "addr",
          "type": "address"
        }
      ],
      "name": "resolveAddress",
      "outputs": [
        {
          "internalType": "string",
          "name": "",
          "type": "string"
        }
      ],
      "stateMutability": "view",
      "type": "function"
    },
    {
      "inputs": [
        {
          "internalType": "string",
          "name": "name",
          "type": "string"
        }
      ],
      "name": "resolveName",
      "outputs": [
        {
          "internalType": "address",
          "name": "",
          "type": "address"
        }
      ],
      "stateMutability": "view",
      "type": "function"
    },
    {
      "inputs": [
        {
          "internalType": "address",
          "name": "",
          "type": "address"
        }
      ],
      "name": "resolvedAddressToName",
      "outputs": [
        {
          "internalType": "string",
          "name": "",
          "type": "string"
        }
      ],
      "stateMutability": "view",
      "type": "function"
    },
    {
      "inputs": [
        {
          "internalType": "address",
          "name": "from",
          "type": "address"
        },
        {
          "internalType": "address",
          "name": "to",
          "type": "address"
        },
        {
          "internalType": "uint256",
          "name": "tokenId",
          "type": "uint256"
        }
      ],
      "name": "safeTransferFrom",
      "outputs": [],
      "stateMutability": "nonpayable",
      "type": "function"
    },
    {
      "inputs": [
        {
          "internalType": "address",
          "name": "from",
          "type": "address"
        },
        {
          "internalType": "address",
          "name": "to",
          "type": "address"
        },
        {
          "internalType": "uint256",
          "name": "tokenId",
          "type": "uint256"
        },
        {
          "internalType": "bytes",
          "name": "data",
          "type": "bytes"
        }
      ],
      "name": "safeTransferFrom",
      "outputs": [],
      "stateMutability": "nonpayable",
      "type": "function"
    },
    {
      "inputs": [
        {
          "internalType": "address",
          "name": "operator",
          "type": "address"
        },
        {
          "internalType": "bool",
          "name": "approved",
          "type": "bool"
        }
      ],
      "name": "setApprovalForAll",
      "outputs": [],
      "stateMutability": "nonpayable",
      "type": "function"
    },
    {
      "inputs": [
        {
          "internalType": "address",
          "name": "_controller",
          "type": "address"
        }
      ],
      "name": "setController",
      "outputs": [],
      "stateMutability": "nonpayable",
      "type": "function"
    },
    {
      "inputs": [
        {
          "internalType": "bytes4",
          "name": "interfaceId",
          "type": "bytes4"
        }
      ],
      "name": "supportsInterface",
      "outputs": [
        {
          "internalType": "bool",
          "name": "",
          "type": "bool"
        }
      ],
      "stateMutability": "view",
      "type": "function"
    },
    {
      "inputs": [],
      "name": "symbol",
      "outputs": [
        {
          "internalType": "string",
          "name": "",
          "type": "string"
        }
      ],
      "stateMutability": "view",
      "type": "function"
    },
    {
      "inputs": [
        {
          "internalType": "uint256",
          "name": "",
          "type": "uint256"
        }
      ],
      "name": "tokenData",
      "outputs": [
        {
          "internalType": "uint96",
          "name": "mintTimestamp",
          "type": "uint96"
        },
        {
          "internalType": "uint96",
          "name": "duration",
          "type": "uint96"
        },
        {
          "internalType": "address",
          "name": "resolvedAddress",
          "type": "address"
        }
      ],
      "stateMutability": "view",
      "type": "function"
    },
    {
      "inputs": [
        {
          "internalType": "uint256",
          "name": "tokenId",
          "type": "uint256"
        }
      ],
      "name": "tokenURI",
      "outputs": [
        {
          "internalType": "string",
          "name": "",
          "type": "string"
        }
      ],
      "stateMutability": "pure",
      "type": "function"
    },
    {
      "inputs": [],
      "name": "totalSupply",
      "outputs": [
        {
          "internalType": "uint256",
          "name": "",
          "type": "uint256"
        }
      ],
      "stateMutability": "view",
      "type": "function"
    },
    {
      "inputs": [
        {
          "internalType": "address",
          "name": "from",
          "type": "address"
        },
        {
          "internalType": "address",
          "name": "to",
          "type": "address"
        },
        {
          "internalType": "uint256",
          "name": "tokenId",
          "type": "uint256"
        }
      ],
      "name": "transferFrom",
      "outputs": [],
      "stateMutability": "nonpayable",
      "type": "function"
    },
    {
      "inputs": [
        {
          "internalType": "address",
          "name": "newOwner",
          "type": "address"
        }
      ],
      "name": "transferOwnership",
      "outputs": [],
      "stateMutability": "nonpayable",
      "type": "function"
    },
    {
      "inputs": [
        {
          "internalType": "uint256",
          "name": "tokenId",
          "type": "uint256"
        },
        {
          "internalType": "address",
          "name": "newResolvedAddress",
          "type": "address"
        }
      ],
      "name": "updateResolveAddress",
      "outputs": [],
      "stateMutability": "nonpayable",
      "type": "function"
    },
    {
      "inputs": [
        {
          "internalType": "uint256",
          "name": "tokenId",
          "type": "uint256"
        },
        {
          "components": [
            {
              "internalType": "uint96",
              "name": "mintTimestamp",
              "type": "uint96"
            },
            {
              "internalType": "uint96",
              "name": "duration",
              "type": "uint96"
            },
            {
              "internalType": "address",
              "name": "resolvedAddress",
              "type": "address"
            }
          ],
          "internalType": "struct UsernameNFT.TokenData",
          "name": "data",
          "type": "tuple"
        }
      ],
      "name": "updateTokenData",
      "outputs": [],
      "stateMutability": "nonpayable",
      "type": "function"
    }
  ],
  "transactionHash": "0x184ff51e4ace51a8f096d961f5ccc4f7707b13669ca6abced94d0cefcb5884b2",
  "args": [
    "UsernameNFT",
    "UNFT",
    "example"
  ],
  "numDeployments": 1,
  "solcInputHash": "e2144f9ce7f34d3a9687be4c4c130b81",
  "bytecode": "0x60806040523480156200001157600080fd5b5060405162004b0e38038062004b0e8339818101604052810190620000379190620002fb565b828281600090816200004a9190620005ff565b5080600190816200005c9190620005ff565b5050506200007f620000736200009a60201b60201c565b620000a260201b60201c565b8060079081620000909190620005ff565b50505050620006e6565b600033905090565b6000600660009054906101000a900473ffffffffffffffffffffffffffffffffffffffff16905081600660006101000a81548173ffffffffffffffffffffffffffffffffffffffff021916908373ffffffffffffffffffffffffffffffffffffffff1602179055508173ffffffffffffffffffffffffffffffffffffffff168173ffffffffffffffffffffffffffffffffffffffff167f8be0079c531659141344cd1fd0a4f28419497f9722a3daafe3b4186f6b6457e060405160405180910390a35050565b6000604051905090565b600080fd5b600080fd5b600080fd5b600080fd5b6000601f19601f8301169050919050565b7f4e487b7100000000000000000000000000000000000000000000000000000000600052604160045260246000fd5b620001d18262000186565b810181811067ffffffffffffffff82111715620001f357620001f262000197565b5b80604052505050565b60006200020862000168565b9050620002168282620001c6565b919050565b600067ffffffffffffffff82111562000239576200023862000197565b5b620002448262000186565b9050602081019050919050565b60005b838110156200027157808201518184015260208101905062000254565b60008484015250505050565b6000620002946200028e846200021b565b620001fc565b905082815260208101848484011115620002b357620002b262000181565b5b620002c084828562000251565b509392505050565b600082601f830112620002e057620002df6200017c565b5b8151620002f28482602086016200027d565b91505092915050565b60008060006060848603121562000317576200031662000172565b5b600084015167ffffffffffffffff81111562000338576200033762000177565b5b6200034686828701620002c8565b935050602084015167ffffffffffffffff8111156200036a576200036962000177565b5b6200037886828701620002c8565b925050604084015167ffffffffffffffff8111156200039c576200039b62000177565b5b620003aa86828701620002c8565b9150509250925092565b600081519050919050565b7f4e487b7100000000000000000000000000000000000000000000000000000000600052602260045260246000fd5b600060028204905060018216806200040757607f821691505b6020821081036200041d576200041c620003bf565b5b50919050565b60008190508160005260206000209050919050565b60006020601f8301049050919050565b600082821b905092915050565b600060088302620004877fffffffffffffffffffffffffffffffffffffffffffffffffffffffffffffffff8262000448565b62000493868362000448565b95508019841693508086168417925050509392505050565b6000819050919050565b6000819050919050565b6000620004e0620004da620004d484620004ab565b620004b5565b620004ab565b9050919050565b6000819050919050565b620004fc83620004bf565b620005146200050b82620004e7565b84845462000455565b825550505050565b600090565b6200052b6200051c565b62000538818484620004f1565b505050565b5b8181101562000560576200055460008262000521565b6001810190506200053e565b5050565b601f821115620005af57620005798162000423565b620005848462000438565b8101602085101562000594578190505b620005ac620005a38562000438565b8301826200053d565b50505b505050565b600082821c905092915050565b6000620005d460001984600802620005b4565b1980831691505092915050565b6000620005ef8383620005c1565b9150826002028217905092915050565b6200060a82620003b4565b67ffffffffffffffff81111562000626576200062562000197565b5b620006328254620003ee565b6200063f82828562000564565b600060209050601f83116001811462000677576000841562000662578287015190505b6200066e8582620005e1565b865550620006de565b601f198416620006878662000423565b60005b82811015620006b1578489015182556001820191506020850194506020810190506200068a565b86831015620006d15784890151620006cd601f891682620005c1565b8355505b6001600288020188555050505b505050505050565b61441880620006f66000396000f3fe608060405234801561001057600080fd5b50600436106101fb5760003560e01c8063965306aa1161011a578063c87b56dd116100ad578063e4205d061161007c578063e4205d0614610636578063e985e9c514610652578063f2fde38b14610682578063f77c47911461069e578063f81e8775146106bc576101fb565b8063c87b56dd14610576578063d6d0f6c8146105a6578063d9548e53146105d6578063dd00125414610606576101fb565b8063b4b5b48f116100e9578063b4b5b48f146104da578063b88d4fde1461050c578063bc19bce514610528578063c2fb26a614610558576101fb565b8063965306aa1461042e5780639a796aae1461045e578063a22cb4651461048e578063b09afec1146104aa576101fb565b806342842e0e11610192578063715018a611610161578063715018a6146103cc5780638da5cb5b146103d657806392eefe9b146103f457806395d89b4114610410576101fb565b806342842e0e1461032057806349b64ff81461033c5780636352211e1461036c57806370a082311461039c576101fb565b8063095ea7b3116101ce578063095ea7b31461029a5780631042876d146102b657806318160ddd146102e657806323b872dd14610304576101fb565b806301ffc9a71461020057806306fdde031461023057806307f033931461024e578063081812fc1461026a575b600080fd5b61021a60048036038101906102159190612d41565b6106ec565b6040516102279190612d89565b60405180910390f35b6102386107ce565b6040516102459190612e34565b60405180910390f35b61026860048036038101906102639190613012565b610860565b005b610284600480360381019061027f9190613052565b610ab7565b604051610291919061308e565b60405180910390f35b6102b460048036038101906102af91906130a9565b610afd565b005b6102d060048036038101906102cb91906130e9565b610c14565b6040516102dd9190612e34565b60405180910390f35b6102ee610c4e565b6040516102fb9190613125565b60405180910390f35b61031e60048036038101906103199190613140565b610c54565b005b61033a60048036038101906103359190613140565b610cb4565b005b610356600480360381019061035191906130e9565b610cd4565b6040516103639190612e34565b60405180910390f35b61038660048036038101906103819190613052565b610d74565b604051610393919061308e565b60405180910390f35b6103b660048036038101906103b191906130e9565b610dfa565b6040516103c39190613125565b60405180910390f35b6103d4610eb1565b005b6103de610ec5565b6040516103eb919061308e565b60405180910390f35b61040e600480360381019061040991906130e9565b610eef565b005b610418610f3b565b6040516104259190612e34565b60405180910390f35b6104486004803603810190610443919061324d565b610fcd565b6040516104559190612d89565b60405180910390f35b61047860048036038101906104739190613296565b611025565b6040516104859190613125565b60405180910390f35b6104a860048036038101906104a39190613345565b6113c8565b005b6104c460048036038101906104bf9190613052565b6113de565b6040516104d191906133e5565b60405180910390f35b6104f460048036038101906104ef9190613052565b6114dd565b6040516105039392919061340f565b60405180910390f35b610526600480360381019061052191906134e7565b611557565b005b610542600480360381019061053d919061324d565b6115b9565b60405161054f919061308e565b60405180910390f35b61056061174e565b60405161056d9190612e34565b60405180910390f35b610590600480360381019061058b9190613052565b6117dc565b60405161059d9190612e34565b60405180910390f35b6105c060048036038101906105bb9190613052565b6117ee565b6040516105cd9190613125565b60405180910390f35b6105f060048036038101906105eb9190613052565b61190d565b6040516105fd9190612d89565b60405180910390f35b610620600480360381019061061b919061324d565b611921565b60405161062d9190613125565b60405180910390f35b610650600480360381019061064b919061356a565b61194f565b005b61066c600480360381019061066791906135aa565b611aec565b6040516106799190612d89565b60405180910390f35b61069c600480360381019061069791906130e9565b611b80565b005b6106a6611c03565b6040516106b39190613649565b60405180910390f35b6106d660048036038101906106d191906130e9565b611c29565b6040516106e39190612e34565b60405180910390f35b60007f80ac58cd000000000000000000000000000000000000000000000000000000007bffffffffffffffffffffffffffffffffffffffffffffffffffffffff1916827bffffffffffffffffffffffffffffffffffffffffffffffffffffffff191614806107b757507f5b5e139f000000000000000000000000000000000000000000000000000000007bffffffffffffffffffffffffffffffffffffffffffffffffffffffff1916827bffffffffffffffffffffffffffffffffffffffffffffffffffffffff1916145b806107c757506107c682611d87565b5b9050919050565b6060600080546107dd90613693565b80601f016020809104026020016040519081016040528092919081815260200182805461080990613693565b80156108565780601f1061082b57610100808354040283529160200191610856565b820191906000526020600020905b81548152906001019060200180831161083957829003601f168201915b5050505050905090565b600960009054906101000a900473ffffffffffffffffffffffffffffffffffffffff1673ffffffffffffffffffffffffffffffffffffffff163373ffffffffffffffffffffffffffffffffffffffff16146108e7576040517f56be192700000000000000000000000000000000000000000000000000000000815260040160405180910390fd5b80600a600084815260200190815260200160002060008201518160000160006101000a8154816bffffffffffffffffffffffff02191690836bffffffffffffffffffffffff160217905550602082015181600001600c6101000a8154816bffffffffffffffffffffffff02191690836bffffffffffffffffffffffff16021790555060408201518160010160006101000a81548173ffffffffffffffffffffffffffffffffffffffff021916908373ffffffffffffffffffffffffffffffffffffffff160217905550905050600073ffffffffffffffffffffffffffffffffffffffff16816040015173ffffffffffffffffffffffffffffffffffffffff1603610a1d576040517fe1d76af900000000000000000000000000000000000000000000000000000000815260040160405180910390fd5b806040015173ffffffffffffffffffffffffffffffffffffffff167f781b23bebd7dad67f61c98ad264593b54d3b6dc2ac5002927277ba66899c22c7600c6000846040015173ffffffffffffffffffffffffffffffffffffffff1673ffffffffffffffffffffffffffffffffffffffff16815260200190815260200160002084604051610aab92919061375d565b60405180910390a25050565b6000610ac282611df1565b6004600083815260200190815260200160002060009054906101000a900473ffffffffffffffffffffffffffffffffffffffff169050919050565b6000610b0882610d74565b90508073ffffffffffffffffffffffffffffffffffffffff168373ffffffffffffffffffffffffffffffffffffffff1603610b78576040517f08c379a0000000000000000000000000000000000000000000000000000000008152600401610b6f906137ff565b60405180910390fd5b8073ffffffffffffffffffffffffffffffffffffffff16610b97611e3c565b73ffffffffffffffffffffffffffffffffffffffff161480610bc65750610bc581610bc0611e3c565b611aec565b5b610c05576040517f08c379a0000000000000000000000000000000000000000000000000000000008152600401610bfc90613891565b60405180910390fd5b610c0f8383611e44565b505050565b60606000610c2183611c29565b9050806007604051602001610c379291906139bc565b604051602081830303815290604052915050919050565b60085481565b610c65610c5f611e3c565b82611efd565b610ca4576040517f08c379a0000000000000000000000000000000000000000000000000000000008152600401610c9b90613a5d565b60405180910390fd5b610caf838383611f92565b505050565b610ccf83838360405180602001604052806000815250611557565b505050565b600c6020528060005260406000206000915090508054610cf390613693565b80601f0160208091040260200160405190810160405280929190818152602001828054610d1f90613693565b8015610d6c5780601f10610d4157610100808354040283529160200191610d6c565b820191906000526020600020905b815481529060010190602001808311610d4f57829003601f168201915b505050505081565b600080610d808361228b565b9050600073ffffffffffffffffffffffffffffffffffffffff168173ffffffffffffffffffffffffffffffffffffffff1603610df1576040517f08c379a0000000000000000000000000000000000000000000000000000000008152600401610de890613ac9565b60405180910390fd5b80915050919050565b60008073ffffffffffffffffffffffffffffffffffffffff168273ffffffffffffffffffffffffffffffffffffffff1603610e6a576040517f08c379a0000000000000000000000000000000000000000000000000000000008152600401610e6190613b5b565b60405180910390fd5b600360008373ffffffffffffffffffffffffffffffffffffffff1673ffffffffffffffffffffffffffffffffffffffff168152602001908152602001600020549050919050565b610eb96122c8565b610ec36000612346565b565b6000600660009054906101000a900473ffffffffffffffffffffffffffffffffffffffff16905090565b610ef76122c8565b80600960006101000a81548173ffffffffffffffffffffffffffffffffffffffff021916908373ffffffffffffffffffffffffffffffffffffffff16021790555050565b606060018054610f4a90613693565b80601f0160208091040260200160405190810160405280929190818152602001828054610f7690613693565b8015610fc35780601f10610f9857610100808354040283529160200191610fc3565b820191906000526020600020905b815481529060010190602001808311610fa657829003601f168201915b5050505050905090565b600080600b83604051610fe09190613b7b565b908152602001604051809103902054148061101e575061101d600b836040516110099190613b7b565b90815260200160405180910390205461190d565b5b9050919050565b6000600960009054906101000a900473ffffffffffffffffffffffffffffffffffffffff1673ffffffffffffffffffffffffffffffffffffffff163373ffffffffffffffffffffffffffffffffffffffff16146110ae576040517f56be192700000000000000000000000000000000000000000000000000000000815260040160405180910390fd5b600073ffffffffffffffffffffffffffffffffffffffff168473ffffffffffffffffffffffffffffffffffffffff1614806111155750600073ffffffffffffffffffffffffffffffffffffffff168573ffffffffffffffffffffffffffffffffffffffff16145b1561114c576040517fe1d76af900000000000000000000000000000000000000000000000000000000815260040160405180910390fd5b6000600b8460405161115e9190613b7b565b90815260200160405180910390205490506000811415801561118657506111848161190d565b155b156111bd576040517f557ebeac00000000000000000000000000000000000000000000000000000000815260040160405180910390fd5b600860008154809291906111d090613bc1565b919050555060085490506111e4868261240c565b6040518060600160405280426bffffffffffffffffffffffff168152602001846bffffffffffffffffffffffff1681526020018673ffffffffffffffffffffffffffffffffffffffff16815250600a600083815260200190815260200160002060008201518160000160006101000a8154816bffffffffffffffffffffffff02191690836bffffffffffffffffffffffff160217905550602082015181600001600c6101000a8154816bffffffffffffffffffffffff02191690836bffffffffffffffffffffffff16021790555060408201518160010160006101000a81548173ffffffffffffffffffffffffffffffffffffffff021916908373ffffffffffffffffffffffffffffffffffffffff16021790555090505080600b8560405161130d9190613b7b565b90815260200160405180910390208190555083600c60008773ffffffffffffffffffffffffffffffffffffffff1673ffffffffffffffffffffffffffffffffffffffff168152602001908152602001600020908161136b9190613d96565b508573ffffffffffffffffffffffffffffffffffffffff167fdcc2175a495289b48da3c0c903e6e8fd7bbf9400cc93d7d1b8be780fc5916c6685836040516113b4929190613e68565b60405180910390a280915050949350505050565b6113da6113d3611e3c565b838361242a565b5050565b6113e6612c82565b600a60008381526020019081526020016000206040518060600160405290816000820160009054906101000a90046bffffffffffffffffffffffff166bffffffffffffffffffffffff166bffffffffffffffffffffffff16815260200160008201600c9054906101000a90046bffffffffffffffffffffffff166bffffffffffffffffffffffff166bffffffffffffffffffffffff1681526020016001820160009054906101000a900473ffffffffffffffffffffffffffffffffffffffff1673ffffffffffffffffffffffffffffffffffffffff1673ffffffffffffffffffffffffffffffffffffffff16815250509050919050565b600a6020528060005260406000206000915090508060000160009054906101000a90046bffffffffffffffffffffffff169080600001600c9054906101000a90046bffffffffffffffffffffffff16908060010160009054906101000a900473ffffffffffffffffffffffffffffffffffffffff16905083565b611568611562611e3c565b83611efd565b6115a7576040517f08c379a000000000000000000000000000000000000000000000000000000000815260040161159e90613a5d565b60405180910390fd5b6115b384848484612596565b50505050565b600080600b836040516115cc9190613b7b565b908152602001604051809103902054905060008103611617576040517f8a3d36da00000000000000000000000000000000000000000000000000000000815260040160405180910390fd5b6000600a60008381526020019081526020016000206040518060600160405290816000820160009054906101000a90046bffffffffffffffffffffffff166bffffffffffffffffffffffff166bffffffffffffffffffffffff16815260200160008201600c9054906101000a90046bffffffffffffffffffffffff166bffffffffffffffffffffffff166bffffffffffffffffffffffff1681526020016001820160009054906101000a900473ffffffffffffffffffffffffffffffffffffffff1673ffffffffffffffffffffffffffffffffffffffff1673ffffffffffffffffffffffffffffffffffffffff168152505090508060200151816000015161171f9190613e98565b6bffffffffffffffffffffffff1642111561173f57600092505050611749565b8060400151925050505b919050565b6007805461175b90613693565b80601f016020809104026020016040519081016040528092919081815260200182805461178790613693565b80156117d45780601f106117a9576101008083540402835291602001916117d4565b820191906000526020600020905b8154815290600101906020018083116117b757829003601f168201915b505050505081565b60606117e7826125f2565b9050919050565b600080600a60008481526020019081526020016000206040518060600160405290816000820160009054906101000a90046bffffffffffffffffffffffff166bffffffffffffffffffffffff166bffffffffffffffffffffffff16815260200160008201600c9054906101000a90046bffffffffffffffffffffffff166bffffffffffffffffffffffff166bffffffffffffffffffffffff1681526020016001820160009054906101000a900473ffffffffffffffffffffffffffffffffffffffff1673ffffffffffffffffffffffffffffffffffffffff1673ffffffffffffffffffffffffffffffffffffffff16815250509050806020015181600001516118f79190613e98565b6bffffffffffffffffffffffff16915050919050565b6000611918826117ee565b42119050919050565b600b818051602081018201805184825260208301602085012081835280955050505050506000915090505481565b8161195981610d74565b73ffffffffffffffffffffffffffffffffffffffff163373ffffffffffffffffffffffffffffffffffffffff16146119bd576040517fd01fd0d200000000000000000000000000000000000000000000000000000000815260040160405180910390fd5b6000600a6000858152602001908152602001600020905060008160010160009054906101000a900473ffffffffffffffffffffffffffffffffffffffff169050838260010160006101000a81548173ffffffffffffffffffffffffffffffffffffffff021916908373ffffffffffffffffffffffffffffffffffffffff1602179055508373ffffffffffffffffffffffffffffffffffffffff168173ffffffffffffffffffffffffffffffffffffffff167f42963d5155d3789ca0a9d651579a6a88164d069972af6f2df013a99af91991c3600c60008573ffffffffffffffffffffffffffffffffffffffff1673ffffffffffffffffffffffffffffffffffffffff16815260200190815260200160002088604051611add92919061375d565b60405180910390a35050505050565b6000600560008473ffffffffffffffffffffffffffffffffffffffff1673ffffffffffffffffffffffffffffffffffffffff16815260200190815260200160002060008373ffffffffffffffffffffffffffffffffffffffff1673ffffffffffffffffffffffffffffffffffffffff16815260200190815260200160002060009054906101000a900460ff16905092915050565b611b886122c8565b600073ffffffffffffffffffffffffffffffffffffffff168173ffffffffffffffffffffffffffffffffffffffff1603611bf7576040517f08c379a0000000000000000000000000000000000000000000000000000000008152600401611bee90613f4a565b60405180910390fd5b611c0081612346565b50565b600960009054906101000a900473ffffffffffffffffffffffffffffffffffffffff1681565b60606000600c60008473ffffffffffffffffffffffffffffffffffffffff1673ffffffffffffffffffffffffffffffffffffffff1681526020019081526020016000208054611c7790613693565b80601f0160208091040260200160405190810160405280929190818152602001828054611ca390613693565b8015611cf05780601f10611cc557610100808354040283529160200191611cf0565b820191906000526020600020905b815481529060010190602001808311611cd357829003601f168201915b505050505090506000815103611d32576040517f6cfb958d00000000000000000000000000000000000000000000000000000000815260040160405180910390fd5b6000600b82604051611d449190613b7b565b9081526020016040518091039020549050611d5e8161190d565b15611d7c576040518060200160405280600081525092505050611d82565b81925050505b919050565b60007f01ffc9a7000000000000000000000000000000000000000000000000000000007bffffffffffffffffffffffffffffffffffffffffffffffffffffffff1916827bffffffffffffffffffffffffffffffffffffffffffffffffffffffff1916149050919050565b611dfa816126c0565b611e39576040517f08c379a0000000000000000000000000000000000000000000000000000000008152600401611e3090613ac9565b60405180910390fd5b50565b600033905090565b816004600083815260200190815260200160002060006101000a81548173ffffffffffffffffffffffffffffffffffffffff021916908373ffffffffffffffffffffffffffffffffffffffff160217905550808273ffffffffffffffffffffffffffffffffffffffff16611eb783610d74565b73ffffffffffffffffffffffffffffffffffffffff167f8c5be1e5ebec7d5bd14f71427d1e84f3dd0314c0f7b2291e5b200ac8c7c3b92560405160405180910390a45050565b600080611f0983610d74565b90508073ffffffffffffffffffffffffffffffffffffffff168473ffffffffffffffffffffffffffffffffffffffff161480611f4b5750611f4a8185611aec565b5b80611f8957508373ffffffffffffffffffffffffffffffffffffffff16611f7184610ab7565b73ffffffffffffffffffffffffffffffffffffffff16145b91505092915050565b8273ffffffffffffffffffffffffffffffffffffffff16611fb282610d74565b73ffffffffffffffffffffffffffffffffffffffff1614612008576040517f08c379a0000000000000000000000000000000000000000000000000000000008152600401611fff90613fdc565b60405180910390fd5b600073ffffffffffffffffffffffffffffffffffffffff168273ffffffffffffffffffffffffffffffffffffffff1603612077576040517f08c379a000000000000000000000000000000000000000000000000000000000815260040161206e9061406e565b60405180910390fd5b6120848383836001612701565b8273ffffffffffffffffffffffffffffffffffffffff166120a482610d74565b73ffffffffffffffffffffffffffffffffffffffff16146120fa576040517f08c379a00000000000000000000000000000000000000000000000000000000081526004016120f190613fdc565b60405180910390fd5b6004600082815260200190815260200160002060006101000a81549073ffffffffffffffffffffffffffffffffffffffff02191690556001600360008573ffffffffffffffffffffffffffffffffffffffff1673ffffffffffffffffffffffffffffffffffffffff168152602001908152602001600020600082825403925050819055506001600360008473ffffffffffffffffffffffffffffffffffffffff1673ffffffffffffffffffffffffffffffffffffffff16815260200190815260200160002060008282540192505081905550816002600083815260200190815260200160002060006101000a81548173ffffffffffffffffffffffffffffffffffffffff021916908373ffffffffffffffffffffffffffffffffffffffff160217905550808273ffffffffffffffffffffffffffffffffffffffff168473ffffffffffffffffffffffffffffffffffffffff167fddf252ad1be2c89b69c2b068fc378daa952ba7f163c4a11628f55a4df523b3ef60405160405180910390a46122868383836001612707565b505050565b60006002600083815260200190815260200160002060009054906101000a900473ffffffffffffffffffffffffffffffffffffffff169050919050565b6122d0611e3c565b73ffffffffffffffffffffffffffffffffffffffff166122ee610ec5565b73ffffffffffffffffffffffffffffffffffffffff1614612344576040517f08c379a000000000000000000000000000000000000000000000000000000000815260040161233b906140da565b60405180910390fd5b565b6000600660009054906101000a900473ffffffffffffffffffffffffffffffffffffffff16905081600660006101000a81548173ffffffffffffffffffffffffffffffffffffffff021916908373ffffffffffffffffffffffffffffffffffffffff1602179055508173ffffffffffffffffffffffffffffffffffffffff168173ffffffffffffffffffffffffffffffffffffffff167f8be0079c531659141344cd1fd0a4f28419497f9722a3daafe3b4186f6b6457e060405160405180910390a35050565b61242682826040518060200160405280600081525061270d565b5050565b8173ffffffffffffffffffffffffffffffffffffffff168373ffffffffffffffffffffffffffffffffffffffff1603612498576040517f08c379a000000000000000000000000000000000000000000000000000000000815260040161248f90614146565b60405180910390fd5b80600560008573ffffffffffffffffffffffffffffffffffffffff1673ffffffffffffffffffffffffffffffffffffffff16815260200190815260200160002060008473ffffffffffffffffffffffffffffffffffffffff1673ffffffffffffffffffffffffffffffffffffffff16815260200190815260200160002060006101000a81548160ff0219169083151502179055508173ffffffffffffffffffffffffffffffffffffffff168373ffffffffffffffffffffffffffffffffffffffff167f17307eab39ab6107e8899845ad3d59bd9653f200f220920489ca2b5937696c31836040516125899190612d89565b60405180910390a3505050565b6125a1848484611f92565b6125ad84848484612768565b6125ec576040517f08c379a00000000000000000000000000000000000000000000000000000000081526004016125e3906141d8565b60405180910390fd5b50505050565b606060006001612601846128ef565b01905060008167ffffffffffffffff8111156126205761261f612e91565b5b6040519080825280601f01601f1916602001820160405280156126525781602001600182028036833780820191505090505b509050600082602001820190505b6001156126b5578080600190039150507f3031323334353637383961626364656600000000000000000000000000000000600a86061a8153600a85816126a9576126a86141f8565b5b04945060008503612660575b819350505050919050565b60008073ffffffffffffffffffffffffffffffffffffffff166126e28361228b565b73ffffffffffffffffffffffffffffffffffffffff1614159050919050565b50505050565b50505050565b6127178383612a42565b6127246000848484612768565b612763576040517f08c379a000000000000000000000000000000000000000000000000000000000815260040161275a906141d8565b60405180910390fd5b505050565b60006127898473ffffffffffffffffffffffffffffffffffffffff16612c5f565b156128e2578373ffffffffffffffffffffffffffffffffffffffff1663150b7a026127b2611e3c565b8786866040518563ffffffff1660e01b81526004016127d4949392919061427c565b6020604051808303816000875af192505050801561281057506040513d601f19601f8201168201806040525081019061280d91906142dd565b60015b612892573d8060008114612840576040519150601f19603f3d011682016040523d82523d6000602084013e612845565b606091505b50600081510361288a576040517f08c379a0000000000000000000000000000000000000000000000000000000008152600401612881906141d8565b60405180910390fd5b805181602001fd5b63150b7a0260e01b7bffffffffffffffffffffffffffffffffffffffffffffffffffffffff1916817bffffffffffffffffffffffffffffffffffffffffffffffffffffffff1916149150506128e7565b600190505b949350505050565b600080600090507a184f03e93ff9f4daa797ed6e38ed64bf6a1f010000000000000000831061294d577a184f03e93ff9f4daa797ed6e38ed64bf6a1f0100000000000000008381612943576129426141f8565b5b0492506040810190505b6d04ee2d6d415b85acef8100000000831061298a576d04ee2d6d415b85acef810000000083816129805761297f6141f8565b5b0492506020810190505b662386f26fc1000083106129b957662386f26fc1000083816129af576129ae6141f8565b5b0492506010810190505b6305f5e10083106129e2576305f5e10083816129d8576129d76141f8565b5b0492506008810190505b6127108310612a075761271083816129fd576129fc6141f8565b5b0492506004810190505b60648310612a2a5760648381612a2057612a1f6141f8565b5b0492506002810190505b600a8310612a39576001810190505b80915050919050565b600073ffffffffffffffffffffffffffffffffffffffff168273ffffffffffffffffffffffffffffffffffffffff1603612ab1576040517f08c379a0000000000000000000000000000000000000000000000000000000008152600401612aa890614356565b60405180910390fd5b612aba816126c0565b15612afa576040517f08c379a0000000000000000000000000000000000000000000000000000000008152600401612af1906143c2565b60405180910390fd5b612b08600083836001612701565b612b11816126c0565b15612b51576040517f08c379a0000000000000000000000000000000000000000000000000000000008152600401612b48906143c2565b60405180910390fd5b6001600360008473ffffffffffffffffffffffffffffffffffffffff1673ffffffffffffffffffffffffffffffffffffffff16815260200190815260200160002060008282540192505081905550816002600083815260200190815260200160002060006101000a81548173ffffffffffffffffffffffffffffffffffffffff021916908373ffffffffffffffffffffffffffffffffffffffff160217905550808273ffffffffffffffffffffffffffffffffffffffff16600073ffffffffffffffffffffffffffffffffffffffff167fddf252ad1be2c89b69c2b068fc378daa952ba7f163c4a11628f55a4df523b3ef60405160405180910390a4612c5b600083836001612707565b5050565b6000808273ffffffffffffffffffffffffffffffffffffffff163b119050919050565b604051806060016040528060006bffffffffffffffffffffffff16815260200160006bffffffffffffffffffffffff168152602001600073ffffffffffffffffffffffffffffffffffffffff1681525090565b6000604051905090565b600080fd5b600080fd5b60007fffffffff0000000000000000000000000000000000000000000000000000000082169050919050565b612d1e81612ce9565b8114612d2957600080fd5b50565b600081359050612d3b81612d15565b92915050565b600060208284031215612d5757612d56612cdf565b5b6000612d6584828501612d2c565b91505092915050565b60008115159050919050565b612d8381612d6e565b82525050565b6000602082019050612d9e6000830184612d7a565b92915050565b600081519050919050565b600082825260208201905092915050565b60005b83811015612dde578082015181840152602081019050612dc3565b60008484015250505050565b6000601f19601f8301169050919050565b6000612e0682612da4565b612e108185612daf565b9350612e20818560208601612dc0565b612e2981612dea565b840191505092915050565b60006020820190508181036000830152612e4e8184612dfb565b905092915050565b6000819050919050565b612e6981612e56565b8114612e7457600080fd5b50565b600081359050612e8681612e60565b92915050565b600080fd5b7f4e487b7100000000000000000000000000000000000000000000000000000000600052604160045260246000fd5b612ec982612dea565b810181811067ffffffffffffffff82111715612ee857612ee7612e91565b5b80604052505050565b6000612efb612cd5565b9050612f078282612ec0565b919050565b60006bffffffffffffffffffffffff82169050919050565b612f2d81612f0c565b8114612f3857600080fd5b50565b600081359050612f4a81612f24565b92915050565b600073ffffffffffffffffffffffffffffffffffffffff82169050919050565b6000612f7b82612f50565b9050919050565b612f8b81612f70565b8114612f9657600080fd5b50565b600081359050612fa881612f82565b92915050565b600060608284031215612fc457612fc3612e8c565b5b612fce6060612ef1565b90506000612fde84828501612f3b565b6000830152506020612ff284828501612f3b565b602083015250604061300684828501612f99565b60408301525092915050565b6000806080838503121561302957613028612cdf565b5b600061303785828601612e77565b925050602061304885828601612fae565b9150509250929050565b60006020828403121561306857613067612cdf565b5b600061307684828501612e77565b91505092915050565b61308881612f70565b82525050565b60006020820190506130a3600083018461307f565b92915050565b600080604083850312156130c0576130bf612cdf565b5b60006130ce85828601612f99565b92505060206130df85828601612e77565b9150509250929050565b6000602082840312156130ff576130fe612cdf565b5b600061310d84828501612f99565b91505092915050565b61311f81612e56565b82525050565b600060208201905061313a6000830184613116565b92915050565b60008060006060848603121561315957613158612cdf565b5b600061316786828701612f99565b935050602061317886828701612f99565b925050604061318986828701612e77565b9150509250925092565b600080fd5b600080fd5b600067ffffffffffffffff8211156131b8576131b7612e91565b5b6131c182612dea565b9050602081019050919050565b82818337600083830152505050565b60006131f06131eb8461319d565b612ef1565b90508281526020810184848401111561320c5761320b613198565b5b6132178482856131ce565b509392505050565b600082601f83011261323457613233613193565b5b81356132448482602086016131dd565b91505092915050565b60006020828403121561326357613262612cdf565b5b600082013567ffffffffffffffff81111561328157613280612ce4565b5b61328d8482850161321f565b91505092915050565b600080600080608085870312156132b0576132af612cdf565b5b60006132be87828801612f99565b94505060206132cf87828801612f99565b935050604085013567ffffffffffffffff8111156132f0576132ef612ce4565b5b6132fc8782880161321f565b925050606061330d87828801612f3b565b91505092959194509250565b61332281612d6e565b811461332d57600080fd5b50565b60008135905061333f81613319565b92915050565b6000806040838503121561335c5761335b612cdf565b5b600061336a85828601612f99565b925050602061337b85828601613330565b9150509250929050565b61338e81612f0c565b82525050565b61339d81612f70565b82525050565b6060820160008201516133b96000850182613385565b5060208201516133cc6020850182613385565b5060408201516133df6040850182613394565b50505050565b60006060820190506133fa60008301846133a3565b92915050565b61340981612f0c565b82525050565b60006060820190506134246000830186613400565b6134316020830185613400565b61343e604083018461307f565b949350505050565b600067ffffffffffffffff82111561346157613460612e91565b5b61346a82612dea565b9050602081019050919050565b600061348a61348584613446565b612ef1565b9050828152602081018484840111156134a6576134a5613198565b5b6134b18482856131ce565b509392505050565b600082601f8301126134ce576134cd613193565b5b81356134de848260208601613477565b91505092915050565b6000806000806080858703121561350157613500612cdf565b5b600061350f87828801612f99565b945050602061352087828801612f99565b935050604061353187828801612e77565b925050606085013567ffffffffffffffff81111561355257613551612ce4565b5b61355e878288016134b9565b91505092959194509250565b6000806040838503121561358157613580612cdf565b5b600061358f85828601612e77565b92505060206135a085828601612f99565b9150509250929050565b600080604083850312156135c1576135c0612cdf565b5b60006135cf85828601612f99565b92505060206135e085828601612f99565b9150509250929050565b6000819050919050565b600061360f61360a61360584612f50565b6135ea565b612f50565b9050919050565b6000613621826135f4565b9050919050565b600061363382613616565b9050919050565b61364381613628565b82525050565b600060208201905061365e600083018461363a565b92915050565b7f4e487b7100000000000000000000000000000000000000000000000000000000600052602260045260246000fd5b600060028204905060018216806136ab57607f821691505b6020821081036136be576136bd613664565b5b50919050565b60008190508160005260206000209050919050565b600081546136e681613693565b6136f08186612daf565b9450600182166000811461370b576001811461372157613754565b60ff198316865281151560200286019350613754565b61372a856136c4565b60005b8381101561374c5781548189015260018201915060208101905061372d565b808801955050505b50505092915050565b6000604082019050818103600083015261377781856136d9565b90506137866020830184613116565b9392505050565b7f4552433732313a20617070726f76616c20746f2063757272656e74206f776e6560008201527f7200000000000000000000000000000000000000000000000000000000000000602082015250565b60006137e9602183612daf565b91506137f48261378d565b604082019050919050565b60006020820190508181036000830152613818816137dc565b9050919050565b7f4552433732313a20617070726f76652063616c6c6572206973206e6f7420746f60008201527f6b656e206f776e6572206f7220617070726f76656420666f7220616c6c000000602082015250565b600061387b603d83612daf565b91506138868261381f565b604082019050919050565b600060208201905081810360008301526138aa8161386e565b9050919050565b600081905092915050565b60006138c782612da4565b6138d181856138b1565b93506138e1818560208601612dc0565b80840191505092915050565b7f2e00000000000000000000000000000000000000000000000000000000000000600082015250565b60006139236001836138b1565b915061392e826138ed565b600182019050919050565b6000815461394681613693565b61395081866138b1565b9450600182166000811461396b5760018114613980576139b3565b60ff19831686528115158202860193506139b3565b613989856136c4565b60005b838110156139ab5781548189015260018201915060208101905061398c565b838801955050505b50505092915050565b60006139c882856138bc565b91506139d382613916565b91506139df8284613939565b91508190509392505050565b7f4552433732313a2063616c6c6572206973206e6f7420746f6b656e206f776e6560008201527f72206f7220617070726f76656400000000000000000000000000000000000000602082015250565b6000613a47602d83612daf565b9150613a52826139eb565b604082019050919050565b60006020820190508181036000830152613a7681613a3a565b9050919050565b7f4552433732313a20696e76616c696420746f6b656e2049440000000000000000600082015250565b6000613ab3601883612daf565b9150613abe82613a7d565b602082019050919050565b60006020820190508181036000830152613ae281613aa6565b9050919050565b7f4552433732313a2061646472657373207a65726f206973206e6f74206120766160008201527f6c6964206f776e65720000000000000000000000000000000000000000000000602082015250565b6000613b45602983612daf565b9150613b5082613ae9565b604082019050919050565b60006020820190508181036000830152613b7481613b38565b9050919050565b6000613b8782846138bc565b915081905092915050565b7f4e487b7100000000000000000000000000000000000000000000000000000000600052601160045260246000fd5b6000613bcc82612e56565b91507fffffffffffffffffffffffffffffffffffffffffffffffffffffffffffffffff8203613bfe57613bfd613b92565b5b600182019050919050565b60006020601f8301049050919050565b600082821b905092915050565b600060088302613c567fffffffffffffffffffffffffffffffffffffffffffffffffffffffffffffffff82613c19565b613c608683613c19565b95508019841693508086168417925050509392505050565b6000613c93613c8e613c8984612e56565b6135ea565b612e56565b9050919050565b6000819050919050565b613cad83613c78565b613cc1613cb982613c9a565b848454613c26565b825550505050565b600090565b613cd6613cc9565b613ce1818484613ca4565b505050565b5b81811015613d0557613cfa600082613cce565b600181019050613ce7565b5050565b601f821115613d4a57613d1b816136c4565b613d2484613c09565b81016020851015613d33578190505b613d47613d3f85613c09565b830182613ce6565b50505b505050565b600082821c905092915050565b6000613d6d60001984600802613d4f565b1980831691505092915050565b6000613d868383613d5c565b9150826002028217905092915050565b613d9f82612da4565b67ffffffffffffffff811115613db857613db7612e91565b5b613dc28254613693565b613dcd828285613d09565b600060209050601f831160018114613e005760008415613dee578287015190505b613df88582613d7a565b865550613e60565b601f198416613e0e866136c4565b60005b82811015613e3657848901518255600182019150602085019450602081019050613e11565b86831015613e535784890151613e4f601f891682613d5c565b8355505b6001600288020188555050505b505050505050565b60006040820190508181036000830152613e828185612dfb565b9050613e916020830184613116565b9392505050565b6000613ea382612f0c565b9150613eae83612f0c565b925082820190506bffffffffffffffffffffffff811115613ed257613ed1613b92565b5b92915050565b7f4f776e61626c653a206e6577206f776e657220697320746865207a65726f206160008201527f6464726573730000000000000000000000000000000000000000000000000000602082015250565b6000613f34602683612daf565b9150613f3f82613ed8565b604082019050919050565b60006020820190508181036000830152613f6381613f27565b9050919050565b7f4552433732313a207472616e736665722066726f6d20696e636f72726563742060008201527f6f776e6572000000000000000000000000000000000000000000000000000000602082015250565b6000613fc6602583612daf565b9150613fd182613f6a565b604082019050919050565b60006020820190508181036000830152613ff581613fb9565b9050919050565b7f4552433732313a207472616e7366657220746f20746865207a65726f2061646460008201527f7265737300000000000000000000000000000000000000000000000000000000602082015250565b6000614058602483612daf565b915061406382613ffc565b604082019050919050565b600060208201905081810360008301526140878161404b565b9050919050565b7f4f776e61626c653a2063616c6c6572206973206e6f7420746865206f776e6572600082015250565b60006140c4602083612daf565b91506140cf8261408e565b602082019050919050565b600060208201905081810360008301526140f3816140b7565b9050919050565b7f4552433732313a20617070726f766520746f2063616c6c657200000000000000600082015250565b6000614130601983612daf565b915061413b826140fa565b602082019050919050565b6000602082019050818103600083015261415f81614123565b9050919050565b7f4552433732313a207472616e7366657220746f206e6f6e20455243373231526560008201527f63656976657220696d706c656d656e7465720000000000000000000000000000602082015250565b60006141c2603283612daf565b91506141cd82614166565b604082019050919050565b600060208201905081810360008301526141f1816141b5565b9050919050565b7f4e487b7100000000000000000000000000000000000000000000000000000000600052601260045260246000fd5b600081519050919050565b600082825260208201905092915050565b600061424e82614227565b6142588185614232565b9350614268818560208601612dc0565b61427181612dea565b840191505092915050565b6000608082019050614291600083018761307f565b61429e602083018661307f565b6142ab6040830185613116565b81810360608301526142bd8184614243565b905095945050505050565b6000815190506142d781612d15565b92915050565b6000602082840312156142f3576142f2612cdf565b5b6000614301848285016142c8565b91505092915050565b7f4552433732313a206d696e7420746f20746865207a65726f2061646472657373600082015250565b6000614340602083612daf565b915061434b8261430a565b602082019050919050565b6000602082019050818103600083015261436f81614333565b9050919050565b7f4552433732313a20746f6b656e20616c7265616479206d696e74656400000000600082015250565b60006143ac601c83612daf565b91506143b782614376565b602082019050919050565b600060208201905081810360008301526143db8161439f565b905091905056fea26469706673582212200395a8e0e3e630282291c3ff3955a822deb9e095403583c09412b8d416093fbd64736f6c63430008130033",
  "devdoc": {
    "details": "UsernameNFT contract represents the NFTs for usernames. Each NFT represents a unique username and has an associated resolved address. The contract also stores the duration for which the username is registered and the timestamp when it was minted or renewed.",
    "events": {
      "Approval(address,address,uint256)": {
        "details": "Emitted when `owner` enables `approved` to manage the `tokenId` token."
      },
      "ApprovalForAll(address,address,bool)": {
        "details": "Emitted when `owner` enables or disables (`approved`) `operator` to manage all of its assets."
      },
      "Transfer(address,address,uint256)": {
        "details": "Emitted when `tokenId` token is transferred from `from` to `to`."
      }
    },
    "kind": "dev",
    "methods": {
      "approve(address,uint256)": {
        "details": "See {IERC721-approve}."
      },
      "balanceOf(address)": {
        "details": "See {IERC721-balanceOf}."
      },
      "getApproved(uint256)": {
        "details": "See {IERC721-getApproved}."
      },
      "getDisplayName(address)": {
        "details": "This function first resolves the address to its associated username using the resolveAddress function. If an active, valid username is found, it appends the domain to the username and returns the resulting display name. Example: If the username is \"alice\" and the domain is \"example\", the display name will be \"alice.example\".",
        "params": {
          "addr": "The address to be resolved."
        },
        "returns": {
          "_0": "string memory The display name associated with the address."
        }
      },
      "getTokenData(uint256)": {
        "params": {
          "tokenId": "The token ID of the NFT."
        },
        "returns": {
          "_0": "TokenData memory The token data of the NFT."
        }
      },
      "isApprovedForAll(address,address)": {
        "details": "See {IERC721-isApprovedForAll}."
      },
      "isAvailable(string)": {
        "details": "This function checks if the given name is not registered or if the associated tokenId is expired.",
        "params": {
          "name": "The name to be checked for availability."
        },
        "returns": {
          "_0": "bool True if the name is available, false otherwise."
        }
      },
      "isExpired(uint256)": {
        "details": "This function checks if the current block timestamp is greater than the expiration timestamp of the given tokenId.",
        "params": {
          "tokenId": "The token ID of the NFT."
        },
        "returns": {
          "_0": "bool True if the tokenId is expired, false otherwise."
        }
      },
      "mint(address,address,string,uint96)": {
        "details": "This function can only be called by the controller contract. It checks if the name is available and mints a new NFT with the given token data if it is.",
        "params": {
          "duration": "The duration for which the username will be registered.",
          "name": "The desired username.",
          "resolvedAddress": "The address that the username will resolve to.",
          "to": "The address of the user who will own the NFT."
        },
        "returns": {
          "_0": "uint256 The token ID of the minted NFT."
        }
      },
      "name()": {
        "details": "See {IERC721Metadata-name}."
      },
      "nameExpirationTime(uint256)": {
        "details": "This function calculates the expiration timestamp by adding the duration to the mint timestamp of the given tokenId.",
        "params": {
          "tokenId": "The token ID of the NFT."
        },
        "returns": {
          "_0": "uint The Unix timestamp of when the tokenId expires."
        }
      },
      "owner()": {
        "details": "Returns the address of the current owner."
      },
      "ownerOf(uint256)": {
        "details": "See {IERC721-ownerOf}."
      },
      "renounceOwnership()": {
        "details": "Leaves the contract without owner. It will not be possible to call `onlyOwner` functions anymore. Can only be called by the current owner. NOTE: Renouncing ownership will leave the contract without an owner, thereby removing any functionality that is only available to the owner."
      },
      "resolveAddress(address)": {
        "details": "This function returns the username associated with a given resolved address if it is registered and not expired. Otherwise, it returns an empty string.",
        "params": {
          "addr": "The owner address to be resolved."
        },
        "returns": {
          "_0": "string memory The username associated with the resolved address."
        }
      },
      "resolveName(string)": {
        "details": "This function returns the resolved address for a given username if it is registered and not expired. Otherwise, it returns the zero address.",
        "params": {
          "name": "The username to be resolved."
        },
        "returns": {
          "_0": "address The resolved address of the username."
        }
      },
      "safeTransferFrom(address,address,uint256)": {
        "details": "See {IERC721-safeTransferFrom}."
      },
      "safeTransferFrom(address,address,uint256,bytes)": {
        "details": "See {IERC721-safeTransferFrom}."
      },
      "setApprovalForAll(address,bool)": {
        "details": "See {IERC721-setApprovalForAll}."
      },
      "setController(address)": {
        "details": "The controller contract is responsible for minting and updating token data.",
        "params": {
          "_controller": "address - The address of the controller contract."
        }
      },
      "supportsInterface(bytes4)": {
        "details": "See {IERC165-supportsInterface}."
      },
      "symbol()": {
        "details": "See {IERC721Metadata-symbol}."
      },
      "tokenURI(uint256)": {
        "details": "This function returns the URI of the NFT by converting the tokenId to a string. The URI can be used to retrieve metadata associated with the NFT, such as a JSON file containing information about the NFT's properties, image, and other attributes. Example: If the tokenId is 1, the returned URI will be \"1\".",
        "params": {
          "tokenId": "The token ID of the NFT."
        },
        "returns": {
          "_0": "string memory The URI of the NFT."
        }
      },
      "transferFrom(address,address,uint256)": {
        "details": "See {IERC721-transferFrom}."
      },
      "transferOwnership(address)": {
        "details": "Transfers ownership of the contract to a new account (`newOwner`). Can only be called by the current owner."
      },
      "updateResolveAddress(uint256,address)": {
        "details": "This function can only be called by the owner of the NFT. It updates the resolved address for the given tokenId with the provided newResolvedAddress.",
        "params": {
          "newResolvedAddress": "The new resolved address.",
          "tokenId": "The token ID of the NFT to be updated."
        }
      },
      "updateTokenData(uint256,(uint96,uint96,address))": {
        "details": "This function can only be called by the controller contract. It updates the token data for the given tokenId with the provided data.",
        "params": {
          "data": "The updated token data.",
          "tokenId": "The token ID of the NFT to be updated."
        }
      }
    },
    "title": "UsernameNFT",
    "version": 1
  },
  "userdoc": {
    "kind": "user",
    "methods": {
      "getDisplayName(address)": {
        "notice": "Returns the display name for a given address."
      },
      "getTokenData(uint256)": {
        "notice": "Returns the token data for a given NFT."
      },
      "isAvailable(string)": {
        "notice": "Checks if a given name is available for registration."
      },
      "isExpired(uint256)": {
        "notice": "Checks if a given tokenId is expired."
      },
      "mint(address,address,string,uint96)": {
        "notice": "Mints a new NFT for a given name if it's available."
      },
      "nameExpirationTime(uint256)": {
        "notice": "Returns the Unix timestamp of when the given tokenId expires."
      },
      "resolveAddress(address)": {
        "notice": "Returns the username for a given resolved address."
      },
      "resolveName(string)": {
        "notice": "Returns the resolved address for a given username."
      },
      "setController(address)": {
        "notice": "Sets the controller contract address."
      },
      "tokenURI(uint256)": {
        "notice": "Returns the URI for a given NFT."
      },
      "updateResolveAddress(uint256,address)": {
        "notice": "Updates the resolved address for a given NFT."
      },
      "updateTokenData(uint256,(uint96,uint96,address))": {
        "notice": "Updates the token data for a given NFT."
      }
    },
    "version": 1
  },
  "storageLayout": {
    "storage": [
      {
        "astId": 138,
        "contract": "contracts/UsernameNFT.sol:UsernameNFT",
        "label": "_name",
        "offset": 0,
        "slot": "0",
        "type": "t_string_storage"
      },
      {
        "astId": 140,
        "contract": "contracts/UsernameNFT.sol:UsernameNFT",
        "label": "_symbol",
        "offset": 0,
        "slot": "1",
        "type": "t_string_storage"
      },
      {
        "astId": 144,
        "contract": "contracts/UsernameNFT.sol:UsernameNFT",
        "label": "_owners",
        "offset": 0,
        "slot": "2",
        "type": "t_mapping(t_uint256,t_address)"
      },
      {
        "astId": 148,
        "contract": "contracts/UsernameNFT.sol:UsernameNFT",
        "label": "_balances",
        "offset": 0,
        "slot": "3",
        "type": "t_mapping(t_address,t_uint256)"
      },
      {
        "astId": 152,
        "contract": "contracts/UsernameNFT.sol:UsernameNFT",
        "label": "_tokenApprovals",
        "offset": 0,
        "slot": "4",
        "type": "t_mapping(t_uint256,t_address)"
      },
      {
        "astId": 158,
        "contract": "contracts/UsernameNFT.sol:UsernameNFT",
        "label": "_operatorApprovals",
        "offset": 0,
        "slot": "5",
        "type": "t_mapping(t_address,t_mapping(t_address,t_bool))"
      },
      {
        "astId": 7,
        "contract": "contracts/UsernameNFT.sol:UsernameNFT",
        "label": "_owner",
        "offset": 0,
        "slot": "6",
        "type": "t_address"
      },
      {
        "astId": 6019,
        "contract": "contracts/UsernameNFT.sol:UsernameNFT",
        "label": "domain",
        "offset": 0,
        "slot": "7",
        "type": "t_string_storage"
      },
      {
        "astId": 6039,
        "contract": "contracts/UsernameNFT.sol:UsernameNFT",
        "label": "totalSupply",
        "offset": 0,
        "slot": "8",
        "type": "t_uint256"
      },
      {
        "astId": 6042,
        "contract": "contracts/UsernameNFT.sol:UsernameNFT",
        "label": "controller",
        "offset": 0,
        "slot": "9",
        "type": "t_contract(UsernameController)6006"
      },
      {
        "astId": 6054,
        "contract": "contracts/UsernameNFT.sol:UsernameNFT",
        "label": "tokenData",
        "offset": 0,
        "slot": "10",
        "type": "t_mapping(t_uint256,t_struct(TokenData)6049_storage)"
      },
      {
        "astId": 6058,
        "contract": "contracts/UsernameNFT.sol:UsernameNFT",
        "label": "nameToTokenId",
        "offset": 0,
        "slot": "11",
        "type": "t_mapping(t_string_memory_ptr,t_uint256)"
      },
      {
        "astId": 6062,
        "contract": "contracts/UsernameNFT.sol:UsernameNFT",
        "label": "resolvedAddressToName",
        "offset": 0,
        "slot": "12",
        "type": "t_mapping(t_address,t_string_storage)"
      }
    ],
    "types": {
      "t_address": {
        "encoding": "inplace",
        "label": "address",
        "numberOfBytes": "20"
      },
      "t_bool": {
        "encoding": "inplace",
        "label": "bool",
        "numberOfBytes": "1"
      },
      "t_contract(UsernameController)6006": {
        "encoding": "inplace",
        "label": "contract UsernameController",
        "numberOfBytes": "20"
      },
      "t_mapping(t_address,t_bool)": {
        "encoding": "mapping",
        "key": "t_address",
        "label": "mapping(address => bool)",
        "numberOfBytes": "32",
        "value": "t_bool"
      },
      "t_mapping(t_address,t_mapping(t_address,t_bool))": {
        "encoding": "mapping",
        "key": "t_address",
        "label": "mapping(address => mapping(address => bool))",
        "numberOfBytes": "32",
        "value": "t_mapping(t_address,t_bool)"
      },
      "t_mapping(t_address,t_string_storage)": {
        "encoding": "mapping",
        "key": "t_address",
        "label": "mapping(address => string)",
        "numberOfBytes": "32",
        "value": "t_string_storage"
      },
      "t_mapping(t_address,t_uint256)": {
        "encoding": "mapping",
        "key": "t_address",
        "label": "mapping(address => uint256)",
        "numberOfBytes": "32",
        "value": "t_uint256"
      },
      "t_mapping(t_string_memory_ptr,t_uint256)": {
        "encoding": "mapping",
        "key": "t_string_memory_ptr",
        "label": "mapping(string => uint256)",
        "numberOfBytes": "32",
        "value": "t_uint256"
      },
      "t_mapping(t_uint256,t_address)": {
        "encoding": "mapping",
        "key": "t_uint256",
        "label": "mapping(uint256 => address)",
        "numberOfBytes": "32",
        "value": "t_address"
      },
      "t_mapping(t_uint256,t_struct(TokenData)6049_storage)": {
        "encoding": "mapping",
        "key": "t_uint256",
        "label": "mapping(uint256 => struct UsernameNFT.TokenData)",
        "numberOfBytes": "32",
        "value": "t_struct(TokenData)6049_storage"
      },
      "t_string_memory_ptr": {
        "encoding": "bytes",
        "label": "string",
        "numberOfBytes": "32"
      },
      "t_string_storage": {
        "encoding": "bytes",
        "label": "string",
        "numberOfBytes": "32"
      },
      "t_struct(TokenData)6049_storage": {
        "encoding": "inplace",
        "label": "struct UsernameNFT.TokenData",
        "members": [
          {
            "astId": 6044,
            "contract": "contracts/UsernameNFT.sol:UsernameNFT",
            "label": "mintTimestamp",
            "offset": 0,
            "slot": "0",
            "type": "t_uint96"
          },
          {
            "astId": 6046,
            "contract": "contracts/UsernameNFT.sol:UsernameNFT",
            "label": "duration",
            "offset": 12,
            "slot": "0",
            "type": "t_uint96"
          },
          {
            "astId": 6048,
            "contract": "contracts/UsernameNFT.sol:UsernameNFT",
            "label": "resolvedAddress",
            "offset": 0,
            "slot": "1",
            "type": "t_address"
          }
        ],
        "numberOfBytes": "64"
      },
      "t_uint256": {
        "encoding": "inplace",
        "label": "uint256",
        "numberOfBytes": "32"
      },
      "t_uint96": {
        "encoding": "inplace",
        "label": "uint96",
        "numberOfBytes": "12"
      }
    }
  }
}