{
  "address": "0xdED4b9280eBf8bcD3E868EF1D4488dBBE8A35064",
  "abi": [
    {
      "inputs": [
        {
          "internalType": "contract Oracle",
          "name": "_oracle",
          "type": "address"
        },
        {
          "internalType": "contract UsernameNFT",
          "name": "_usernameNFT",
          "type": "address"
        }
      ],
      "stateMutability": "nonpayable",
      "type": "constructor"
    },
    {
      "inputs": [],
      "name": "FailedWithdrawError",
      "type": "error"
    },
    {
      "inputs": [],
      "name": "InsufficientNativeError",
      "type": "error"
    },
    {
      "inputs": [],
      "name": "InvalidDurationError",
      "type": "error"
    },
    {
      "inputs": [],
      "name": "NameAlreadyActiveError",
      "type": "error"
    },
    {
      "inputs": [],
      "name": "NotTokenOwnerError",
      "type": "error"
    },
    {
      "anonymous": false,
      "inputs": [
        {
          "indexed": true,
          "internalType": "address",
          "name": "previousOwner",
          "type": "address"
        },
        {
          "indexed": true,
          "internalType": "address",
          "name": "newOwner",
          "type": "address"
        }
      ],
      "name": "OwnershipTransferred",
      "type": "event"
    },
    {
      "inputs": [],
      "name": "oracle",
      "outputs": [
        {
          "internalType": "contract Oracle",
          "name": "",
          "type": "address"
        }
      ],
      "stateMutability": "view",
      "type": "function"
    },
    {
      "inputs": [],
      "name": "owner",
      "outputs": [
        {
          "internalType": "address",
          "name": "",
          "type": "address"
        }
      ],
      "stateMutability": "view",
      "type": "function"
    },
    {
      "inputs": [
        {
          "internalType": "string",
          "name": "name",
          "type": "string"
        },
        {
          "internalType": "address",
          "name": "resolvedAddress",
          "type": "address"
        },
        {
          "internalType": "uint8",
          "name": "durationInYears",
          "type": "uint8"
        }
      ],
      "name": "register",
      "outputs": [
        {
          "internalType": "uint256",
          "name": "",
          "type": "uint256"
        }
      ],
      "stateMutability": "payable",
      "type": "function"
    },
    {
      "inputs": [
        {
          "internalType": "address",
          "name": "resolvedAddress",
          "type": "address"
        },
        {
          "internalType": "uint256",
          "name": "tokenId",
          "type": "uint256"
        },
        {
          "internalType": "uint8",
          "name": "durationInYears",
          "type": "uint8"
        }
      ],
      "name": "renew",
      "outputs": [
        {
          "internalType": "uint256",
          "name": "",
          "type": "uint256"
        }
      ],
      "stateMutability": "payable",
      "type": "function"
    },
    {
      "inputs": [],
      "name": "renounceOwnership",
      "outputs": [],
      "stateMutability": "nonpayable",
      "type": "function"
    },
    {
      "inputs": [
        {
          "internalType": "contract Oracle",
          "name": "_oracle",
          "type": "address"
        }
      ],
      "name": "setOracle",
      "outputs": [],
      "stateMutability": "nonpayable",
      "type": "function"
    },
    {
      "inputs": [
        {
          "internalType": "address",
          "name": "newOwner",
          "type": "address"
        }
      ],
      "name": "transferOwnership",
      "outputs": [],
      "stateMutability": "nonpayable",
      "type": "function"
    },
    {
      "inputs": [],
      "name": "usernameNFT",
      "outputs": [
        {
          "internalType": "contract UsernameNFT",
          "name": "",
          "type": "address"
        }
      ],
      "stateMutability": "view",
      "type": "function"
    },
    {
      "inputs": [],
      "name": "withdraw",
      "outputs": [],
      "stateMutability": "nonpayable",
      "type": "function"
    }
  ],
  "transactionHash": "0x97190e1f3257e1aa689af0e29cbad336a781b89148e02f3dbbdcfb21ba6fc908",
  "args": [
    "0x2f9F339f9FFf15E209BAaf3a2E86AA53B10A9b01",
    "0xa76e2A2885eA13DaBcEb57568AFA66eF136073f0"
  ],
  "numDeployments": 1,
  "solcInputHash": "e2144f9ce7f34d3a9687be4c4c130b81",
  "bytecode": "0x60806040526301e13380600260146101000a8154816bffffffffffffffffffffffff02191690836bffffffffffffffffffffffff1602179055503480156200004657600080fd5b5060405162001b9038038062001b9083398181016040528101906200006c9190620002a5565b6200008c620000806200011660201b60201c565b6200011e60201b60201c565b81600160006101000a81548173ffffffffffffffffffffffffffffffffffffffff021916908373ffffffffffffffffffffffffffffffffffffffff16021790555080600260006101000a81548173ffffffffffffffffffffffffffffffffffffffff021916908373ffffffffffffffffffffffffffffffffffffffff1602179055505050620002ec565b600033905090565b60008060009054906101000a900473ffffffffffffffffffffffffffffffffffffffff169050816000806101000a81548173ffffffffffffffffffffffffffffffffffffffff021916908373ffffffffffffffffffffffffffffffffffffffff1602179055508173ffffffffffffffffffffffffffffffffffffffff168173ffffffffffffffffffffffffffffffffffffffff167f8be0079c531659141344cd1fd0a4f28419497f9722a3daafe3b4186f6b6457e060405160405180910390a35050565b600080fd5b600073ffffffffffffffffffffffffffffffffffffffff82169050919050565b60006200021482620001e7565b9050919050565b6000620002288262000207565b9050919050565b6200023a816200021b565b81146200024657600080fd5b50565b6000815190506200025a816200022f565b92915050565b60006200026d8262000207565b9050919050565b6200027f8162000260565b81146200028b57600080fd5b50565b6000815190506200029f8162000274565b92915050565b60008060408385031215620002bf57620002be620001e2565b5b6000620002cf8582860162000249565b9250506020620002e2858286016200028e565b9150509250929050565b61189480620002fc6000396000f3fe6080604052600436106100865760003560e01c80638da5cb5b116100595780638da5cb5b1461010d578063de26bcd514610138578063e7e071cc14610168578063ea93c49214610193578063f2fde38b146101c357610086565b80633ccfd60b1461008b578063715018a6146100a25780637adbf973146100b95780637dc0d1d0146100e2575b600080fd5b34801561009757600080fd5b506100a06101ec565b005b3480156100ae57600080fd5b506100b7610299565b005b3480156100c557600080fd5b506100e060048036038101906100db9190610e93565b6102ad565b005b3480156100ee57600080fd5b506100f76102f9565b6040516101049190610f1f565b60405180910390f35b34801561011957600080fd5b5061012261031f565b60405161012f9190610f49565b60405180910390f35b610152600480360381019061014d9190610fff565b610348565b60405161015f9190611061565b60405180910390f35b34801561017457600080fd5b5061017d6109fb565b60405161018a919061109d565b60405180910390f35b6101ad60048036038101906101a891906111fe565b610a21565b6040516101ba9190611061565b60405180910390f35b3480156101cf57600080fd5b506101ea60048036038101906101e5919061126d565b610c13565b005b60006101f661031f565b73ffffffffffffffffffffffffffffffffffffffff1647604051610219906112cb565b60006040518083038185875af1925050503d8060008114610256576040519150601f19603f3d011682016040523d82523d6000602084013e61025b565b606091505b5050905080610296576040517f16afd56f00000000000000000000000000000000000000000000000000000000815260040160405180910390fd5b50565b6102a1610c96565b6102ab6000610d14565b565b6102b5610c96565b80600160006101000a81548173ffffffffffffffffffffffffffffffffffffffff021916908373ffffffffffffffffffffffffffffffffffffffff16021790555050565b600160009054906101000a900473ffffffffffffffffffffffffffffffffffffffff1681565b60008060009054906101000a900473ffffffffffffffffffffffffffffffffffffffff16905090565b60008160018160ff161080610360575060038160ff16115b15610397576040517fa922f92c00000000000000000000000000000000000000000000000000000000815260040160405180910390fd5b6000600260009054906101000a900473ffffffffffffffffffffffffffffffffffffffff1673ffffffffffffffffffffffffffffffffffffffff1663b09afec1866040518263ffffffff1660e01b81526004016103f49190611061565b606060405180830381865afa158015610411573d6000803e3d6000fd5b505050506040513d601f19601f8201168201806040525081019061043591906113a2565b90506000428260000151836020015161044e91906113fe565b6bffffffffffffffffffffffff161061046857600061046b565b60015b90506000600260009054906101000a900473ffffffffffffffffffffffffffffffffffffffff1673ffffffffffffffffffffffffffffffffffffffff166349b64ff884604001516040518263ffffffff1660e01b81526004016104ce9190610f49565b600060405180830381865afa1580156104eb573d6000803e3d6000fd5b505050506040513d6000823e3d601f19601f8201168201806040525081019061051491906114d8565b90506000600160009054906101000a900473ffffffffffffffffffffffffffffffffffffffff1673ffffffffffffffffffffffffffffffffffffffff16633e629e9f8351896040518363ffffffff1660e01b8152600401610576929190611530565b602060405180830381865afa158015610593573d6000803e3d6000fd5b505050506040513d601f19601f820116820180604052508101906105b7919061156e565b9050803410156105f3576040517f06ad925000000000000000000000000000000000000000000000000000000000815260040160405180910390fd5b3373ffffffffffffffffffffffffffffffffffffffff16600260009054906101000a900473ffffffffffffffffffffffffffffffffffffffff1673ffffffffffffffffffffffffffffffffffffffff16636352211e8a6040518263ffffffff1660e01b81526004016106659190611061565b602060405180830381865afa158015610682573d6000803e3d6000fd5b505050506040513d601f19601f820116820180604052508101906106a6919061159b565b73ffffffffffffffffffffffffffffffffffffffff16146106f3576040517f19f05e2000000000000000000000000000000000000000000000000000000000815260040160405180910390fd5b826107fe57600084600001519050600061070f8960ff16610dd8565b866020015161071e91906113fe565b9050600260009054906101000a900473ffffffffffffffffffffffffffffffffffffffff1673ffffffffffffffffffffffffffffffffffffffff166307f033938b6040518060600160405280866bffffffffffffffffffffffff168152602001856bffffffffffffffffffffffff1681526020018f73ffffffffffffffffffffffffffffffffffffffff168152506040518363ffffffff1660e01b81526004016107c9929190611628565b600060405180830381600087803b1580156107e357600080fd5b505af11580156107f7573d6000803e3d6000fd5b5050505050505b82156109ec57600073ffffffffffffffffffffffffffffffffffffffff16600260009054906101000a900473ffffffffffffffffffffffffffffffffffffffff1673ffffffffffffffffffffffffffffffffffffffff1663bc19bce5846040518263ffffffff1660e01b815260040161087791906116a6565b602060405180830381865afa158015610894573d6000803e3d6000fd5b505050506040513d601f19601f820116820180604052508101906108b8919061159b565b73ffffffffffffffffffffffffffffffffffffffff1614610905576040517fe524f81600000000000000000000000000000000000000000000000000000000815260040160405180910390fd5b600260009054906101000a900473ffffffffffffffffffffffffffffffffffffffff1673ffffffffffffffffffffffffffffffffffffffff166307f03393896040518060600160405280426bffffffffffffffffffffffff16815260200161096f8c60ff16610dd8565b6bffffffffffffffffffffffff1681526020018d73ffffffffffffffffffffffffffffffffffffffff168152506040518363ffffffff1660e01b81526004016109b9929190611628565b600060405180830381600087803b1580156109d357600080fd5b505af11580156109e7573d6000803e3d6000fd5b505050505b87955050505050509392505050565b600260009054906101000a900473ffffffffffffffffffffffffffffffffffffffff1681565b60008160018160ff161080610a39575060038160ff16115b15610a70576040517fa922f92c00000000000000000000000000000000000000000000000000000000815260040160405180910390fd5b6000855190506000600160009054906101000a900473ffffffffffffffffffffffffffffffffffffffff1673ffffffffffffffffffffffffffffffffffffffff16633e629e9f83876040518363ffffffff1660e01b8152600401610ad5929190611530565b602060405180830381865afa158015610af2573d6000803e3d6000fd5b505050506040513d601f19601f82011682018060405250810190610b16919061156e565b905080341015610b52576040517f06ad925000000000000000000000000000000000000000000000000000000000815260040160405180910390fd5b6000600260009054906101000a900473ffffffffffffffffffffffffffffffffffffffff1673ffffffffffffffffffffffffffffffffffffffff16639a796aae33898b610ba18b60ff16610dd8565b6040518563ffffffff1660e01b8152600401610bc094939291906116d7565b6020604051808303816000875af1158015610bdf573d6000803e3d6000fd5b505050506040513d601f19601f82011682018060405250810190610c03919061156e565b9050809450505050509392505050565b610c1b610c96565b600073ffffffffffffffffffffffffffffffffffffffff168173ffffffffffffffffffffffffffffffffffffffff1603610c8a576040517f08c379a0000000000000000000000000000000000000000000000000000000008152600401610c8190611795565b60405180910390fd5b610c9381610d14565b50565b610c9e610e07565b73ffffffffffffffffffffffffffffffffffffffff16610cbc61031f565b73ffffffffffffffffffffffffffffffffffffffff1614610d12576040517f08c379a0000000000000000000000000000000000000000000000000000000008152600401610d0990611801565b60405180910390fd5b565b60008060009054906101000a900473ffffffffffffffffffffffffffffffffffffffff169050816000806101000a81548173ffffffffffffffffffffffffffffffffffffffff021916908373ffffffffffffffffffffffffffffffffffffffff1602179055508173ffffffffffffffffffffffffffffffffffffffff168173ffffffffffffffffffffffffffffffffffffffff167f8be0079c531659141344cd1fd0a4f28419497f9722a3daafe3b4186f6b6457e060405160405180910390a35050565b6000600260149054906101000a90046bffffffffffffffffffffffff1682610e009190611821565b9050919050565b600033905090565b6000604051905090565b600080fd5b600080fd5b600073ffffffffffffffffffffffffffffffffffffffff82169050919050565b6000610e4e82610e23565b9050919050565b6000610e6082610e43565b9050919050565b610e7081610e55565b8114610e7b57600080fd5b50565b600081359050610e8d81610e67565b92915050565b600060208284031215610ea957610ea8610e19565b5b6000610eb784828501610e7e565b91505092915050565b6000819050919050565b6000610ee5610ee0610edb84610e23565b610ec0565b610e23565b9050919050565b6000610ef782610eca565b9050919050565b6000610f0982610eec565b9050919050565b610f1981610efe565b82525050565b6000602082019050610f346000830184610f10565b92915050565b610f4381610e43565b82525050565b6000602082019050610f5e6000830184610f3a565b92915050565b610f6d81610e43565b8114610f7857600080fd5b50565b600081359050610f8a81610f64565b92915050565b6000819050919050565b610fa381610f90565b8114610fae57600080fd5b50565b600081359050610fc081610f9a565b92915050565b600060ff82169050919050565b610fdc81610fc6565b8114610fe757600080fd5b50565b600081359050610ff981610fd3565b92915050565b60008060006060848603121561101857611017610e19565b5b600061102686828701610f7b565b935050602061103786828701610fb1565b925050604061104886828701610fea565b9150509250925092565b61105b81610f90565b82525050565b60006020820190506110766000830184611052565b92915050565b600061108782610eec565b9050919050565b6110978161107c565b82525050565b60006020820190506110b2600083018461108e565b92915050565b600080fd5b600080fd5b6000601f19601f8301169050919050565b7f4e487b7100000000000000000000000000000000000000000000000000000000600052604160045260246000fd5b61110b826110c2565b810181811067ffffffffffffffff8211171561112a576111296110d3565b5b80604052505050565b600061113d610e0f565b90506111498282611102565b919050565b600067ffffffffffffffff821115611169576111686110d3565b5b611172826110c2565b9050602081019050919050565b82818337600083830152505050565b60006111a161119c8461114e565b611133565b9050828152602081018484840111156111bd576111bc6110bd565b5b6111c884828561117f565b509392505050565b600082601f8301126111e5576111e46110b8565b5b81356111f584826020860161118e565b91505092915050565b60008060006060848603121561121757611216610e19565b5b600084013567ffffffffffffffff81111561123557611234610e1e565b5b611241868287016111d0565b935050602061125286828701610f7b565b925050604061126386828701610fea565b9150509250925092565b60006020828403121561128357611282610e19565b5b600061129184828501610f7b565b91505092915050565b600081905092915050565b50565b60006112b560008361129a565b91506112c0826112a5565b600082019050919050565b60006112d6826112a8565b9150819050919050565b600080fd5b60006bffffffffffffffffffffffff82169050919050565b611306816112e5565b811461131157600080fd5b50565b600081519050611323816112fd565b92915050565b60008151905061133881610f64565b92915050565b600060608284031215611354576113536112e0565b5b61135e6060611133565b9050600061136e84828501611314565b600083015250602061138284828501611314565b602083015250604061139684828501611329565b60408301525092915050565b6000606082840312156113b8576113b7610e19565b5b60006113c68482850161133e565b91505092915050565b7f4e487b7100000000000000000000000000000000000000000000000000000000600052601160045260246000fd5b6000611409826112e5565b9150611414836112e5565b925082820190506bffffffffffffffffffffffff811115611438576114376113cf565b5b92915050565b60005b8381101561145c578082015181840152602081019050611441565b60008484015250505050565b600061147b6114768461114e565b611133565b905082815260208101848484011115611497576114966110bd565b5b6114a284828561143e565b509392505050565b600082601f8301126114bf576114be6110b8565b5b81516114cf848260208601611468565b91505092915050565b6000602082840312156114ee576114ed610e19565b5b600082015167ffffffffffffffff81111561150c5761150b610e1e565b5b611518848285016114aa565b91505092915050565b61152a81610fc6565b82525050565b60006040820190506115456000830185611052565b6115526020830184611521565b9392505050565b60008151905061156881610f9a565b92915050565b60006020828403121561158457611583610e19565b5b600061159284828501611559565b91505092915050565b6000602082840312156115b1576115b0610e19565b5b60006115bf84828501611329565b91505092915050565b6115d1816112e5565b82525050565b6115e081610e43565b82525050565b6060820160008201516115fc60008501826115c8565b50602082015161160f60208501826115c8565b50604082015161162260408501826115d7565b50505050565b600060808201905061163d6000830185611052565b61164a60208301846115e6565b9392505050565b600081519050919050565b600082825260208201905092915050565b600061167882611651565b611682818561165c565b935061169281856020860161143e565b61169b816110c2565b840191505092915050565b600060208201905081810360008301526116c0818461166d565b905092915050565b6116d1816112e5565b82525050565b60006080820190506116ec6000830187610f3a565b6116f96020830186610f3a565b818103604083015261170b818561166d565b905061171a60608301846116c8565b95945050505050565b7f4f776e61626c653a206e6577206f776e657220697320746865207a65726f206160008201527f6464726573730000000000000000000000000000000000000000000000000000602082015250565b600061177f60268361165c565b915061178a82611723565b604082019050919050565b600060208201905081810360008301526117ae81611772565b9050919050565b7f4f776e61626c653a2063616c6c6572206973206e6f7420746865206f776e6572600082015250565b60006117eb60208361165c565b91506117f6826117b5565b602082019050919050565b6000602082019050818103600083015261181a816117de565b9050919050565b600061182c826112e5565b9150611837836112e5565b9250828202611845816112e5565b9150808214611857576118566113cf565b5b509291505056fea2646970667358221220ba25e25180ca50120ccdabef304bf348b633e41848d50f2287af00c9e9f1eeaa64736f6c63430008130033",
  "devdoc": {
    "details": "The UsernameController contract handles the registration, renewal, and management of usernames. It interacts with the Oracle contract to determine the price of registering a username and the UsernameNFT contract to mint and manage the NFTs representing the registered usernames.",
    "kind": "dev",
    "methods": {
      "owner()": {
        "details": "Returns the address of the current owner."
      },
      "register(string,address,uint8)": {
        "params": {
          "durationInYears": "uint8 - The duration for which the username will be registered (1-3 years).",
          "name": "string memory - The desired username.",
          "resolvedAddress": "address - The address of the user who will own the NFT."
        },
        "returns": {
          "_0": "uint - The token ID of the minted NFT."
        }
      },
      "renew(address,uint256,uint8)": {
        "params": {
          "durationInYears": "The additional duration for which the username will be registered (1-3 years).",
          "tokenId": "The token ID of the NFT representing the username."
        },
        "returns": {
          "_0": "uint The token ID of the updated NFT."
        }
      },
      "renounceOwnership()": {
        "details": "Leaves the contract without owner. It will not be possible to call `onlyOwner` functions anymore. Can only be called by the current owner. NOTE: Renouncing ownership will leave the contract without an owner, thereby removing any functionality that is only available to the owner."
      },
      "setOracle(address)": {
        "details": "This function can only be called by the contract owner.",
        "params": {
          "_oracle": "The address of the Oracle instance to be set."
        }
      },
      "transferOwnership(address)": {
        "details": "Transfers ownership of the contract to a new account (`newOwner`). Can only be called by the current owner."
      }
    },
    "title": "UsernameController",
    "version": 1
  },
  "userdoc": {
    "kind": "user",
    "methods": {
      "register(string,address,uint8)": {
        "notice": "Registers a new username and mints an NFT if the name is available."
      },
      "renew(address,uint256,uint8)": {
        "notice": "Renews the registration of a username by updating its expiry."
      },
      "setOracle(address)": {
        "notice": "Sets the Oracle instance to be used by the contract."
      },
      "withdraw()": {
        "notice": "Withdraws the accumulated Ether balance from the contract to the contract owner's address"
      }
    },
    "version": 1
  },
  "storageLayout": {
    "storage": [
      {
        "astId": 7,
        "contract": "contracts/UsernameController.sol:UsernameController",
        "label": "_owner",
        "offset": 0,
        "slot": "0",
        "type": "t_address"
      },
      {
        "astId": 5699,
        "contract": "contracts/UsernameController.sol:UsernameController",
        "label": "oracle",
        "offset": 0,
        "slot": "1",
        "type": "t_contract(Oracle)5686"
      },
      {
        "astId": 5702,
        "contract": "contracts/UsernameController.sol:UsernameController",
        "label": "usernameNFT",
        "offset": 0,
        "slot": "2",
        "type": "t_contract(UsernameNFT)6531"
      },
      {
        "astId": 5715,
        "contract": "contracts/UsernameController.sol:UsernameController",
        "label": "SECONDS_PER_YEAR",
        "offset": 20,
        "slot": "2",
        "type": "t_uint96"
      }
    ],
    "types": {
      "t_address": {
        "encoding": "inplace",
        "label": "address",
        "numberOfBytes": "20"
      },
      "t_contract(Oracle)5686": {
        "encoding": "inplace",
        "label": "contract Oracle",
        "numberOfBytes": "20"
      },
      "t_contract(UsernameNFT)6531": {
        "encoding": "inplace",
        "label": "contract UsernameNFT",
        "numberOfBytes": "20"
      },
      "t_uint96": {
        "encoding": "inplace",
        "label": "uint96",
        "numberOfBytes": "12"
      }
    }
  }
}