{
  "address": "0x713f37839Acd1DeFE63C0c4AA9Df9d01062F4370",
  "abi": [
    {
      "inputs": [
        {
          "internalType": "string",
          "name": "name",
          "type": "string"
        },
        {
          "internalType": "string",
          "name": "symbol",
          "type": "string"
        },
        {
          "internalType": "string",
          "name": "_domain",
          "type": "string"
        }
      ],
      "stateMutability": "nonpayable",
      "type": "constructor"
    },
    {
      "inputs": [],
      "name": "AddressNotRegisteredError",
      "type": "error"
    },
    {
      "inputs": [],
      "name": "InvalidTokenError",
      "type": "error"
    },
    {
      "inputs": [],
      "name": "NameAlreadyRegisteredError",
      "type": "error"
    },
    {
      "inputs": [],
      "name": "NameNotRegisteredError",
      "type": "error"
    },
    {
      "inputs": [],
      "name": "OnlyControllerError",
      "type": "error"
    },
    {
      "inputs": [],
      "name": "OnlyNFTOwnerError",
      "type": "error"
    },
    {
      "inputs": [],
      "name": "ZeroAddressNotAvailableError",
      "type": "error"
    },
    {
      "anonymous": false,
      "inputs": [
        {
          "indexed": true,
          "internalType": "address",
          "name": "owner",
          "type": "address"
        },
        {
          "indexed": true,
          "internalType": "address",
          "name": "approved",
          "type": "address"
        },
        {
          "indexed": true,
          "internalType": "uint256",
          "name": "tokenId",
          "type": "uint256"
        }
      ],
      "name": "Approval",
      "type": "event"
    },
    {
      "anonymous": false,
      "inputs": [
        {
          "indexed": true,
          "internalType": "address",
          "name": "owner",
          "type": "address"
        },
        {
          "indexed": true,
          "internalType": "address",
          "name": "operator",
          "type": "address"
        },
        {
          "indexed": false,
          "internalType": "bool",
          "name": "approved",
          "type": "bool"
        }
      ],
      "name": "ApprovalForAll",
      "type": "event"
    },
    {
      "anonymous": false,
      "inputs": [
        {
          "indexed": true,
          "internalType": "address",
          "name": "resolveAddress",
          "type": "address"
        },
        {
          "indexed": false,
          "internalType": "string",
          "name": "name",
          "type": "string"
        },
        {
          "indexed": false,
          "internalType": "uint256",
          "name": "tokenId",
          "type": "uint256"
        }
      ],
      "name": "NameRegistered",
      "type": "event"
    },
    {
      "anonymous": false,
      "inputs": [
        {
          "indexed": true,
          "internalType": "address",
          "name": "previousOwner",
          "type": "address"
        },
        {
          "indexed": true,
          "internalType": "address",
          "name": "newOwner",
          "type": "address"
        }
      ],
      "name": "OwnershipTransferred",
      "type": "event"
    },
    {
      "anonymous": false,
      "inputs": [
        {
          "indexed": true,
          "internalType": "address",
          "name": "addr",
          "type": "address"
        },
        {
          "indexed": false,
          "internalType": "string",
          "name": "newPrimaryName",
          "type": "string"
        }
      ],
      "name": "PrimaryNameUpdated",
      "type": "event"
    },
    {
      "anonymous": false,
      "inputs": [
        {
          "indexed": true,
          "internalType": "address",
          "name": "oldResolveAddress",
          "type": "address"
        },
        {
          "indexed": true,
          "internalType": "address",
          "name": "newResolveAddress",
          "type": "address"
        },
        {
          "indexed": false,
          "internalType": "string",
          "name": "name",
          "type": "string"
        },
        {
          "indexed": false,
          "internalType": "uint256",
          "name": "tokenId",
          "type": "uint256"
        }
      ],
      "name": "ResolveAddressUpdated",
      "type": "event"
    },
    {
      "anonymous": false,
      "inputs": [
        {
          "indexed": true,
          "internalType": "address",
          "name": "resolveAddress",
          "type": "address"
        },
        {
          "indexed": false,
          "internalType": "string",
          "name": "name",
          "type": "string"
        },
        {
          "indexed": false,
          "internalType": "uint256",
          "name": "tokenId",
          "type": "uint256"
        }
      ],
      "name": "TokenDataUpdated",
      "type": "event"
    },
    {
      "anonymous": false,
      "inputs": [
        {
          "indexed": true,
          "internalType": "address",
          "name": "from",
          "type": "address"
        },
        {
          "indexed": true,
          "internalType": "address",
          "name": "to",
          "type": "address"
        },
        {
          "indexed": true,
          "internalType": "uint256",
          "name": "tokenId",
          "type": "uint256"
        }
      ],
      "name": "Transfer",
      "type": "event"
    },
    {
      "inputs": [
        {
          "internalType": "address",
          "name": "to",
          "type": "address"
        },
        {
          "internalType": "uint256",
          "name": "tokenId",
          "type": "uint256"
        }
      ],
      "name": "approve",
      "outputs": [],
      "stateMutability": "nonpayable",
      "type": "function"
    },
    {
      "inputs": [
        {
          "internalType": "string",
          "name": "name",
          "type": "string"
        }
      ],
      "name": "available",
      "outputs": [
        {
          "internalType": "bool",
          "name": "",
          "type": "bool"
        }
      ],
      "stateMutability": "view",
      "type": "function"
    },
    {
      "inputs": [
        {
          "internalType": "address",
          "name": "owner",
          "type": "address"
        }
      ],
      "name": "balanceOf",
      "outputs": [
        {
          "internalType": "uint256",
          "name": "",
          "type": "uint256"
        }
      ],
      "stateMutability": "view",
      "type": "function"
    },
    {
      "inputs": [],
      "name": "controller",
      "outputs": [
        {
          "internalType": "contract UsernameController",
          "name": "",
          "type": "address"
        }
      ],
      "stateMutability": "view",
      "type": "function"
    },
    {
      "inputs": [],
      "name": "domain",
      "outputs": [
        {
          "internalType": "string",
          "name": "",
          "type": "string"
        }
      ],
      "stateMutability": "view",
      "type": "function"
    },
    {
      "inputs": [
        {
          "internalType": "uint256",
          "name": "tokenId",
          "type": "uint256"
        }
      ],
      "name": "getApproved",
      "outputs": [
        {
          "internalType": "address",
          "name": "",
          "type": "address"
        }
      ],
      "stateMutability": "view",
      "type": "function"
    },
    {
      "inputs": [
        {
          "internalType": "uint256",
          "name": "tokenId",
          "type": "uint256"
        }
      ],
      "name": "getDisplayName",
      "outputs": [
        {
          "internalType": "string",
          "name": "",
          "type": "string"
        }
      ],
      "stateMutability": "view",
      "type": "function"
    },
    {
      "inputs": [
        {
          "internalType": "address",
          "name": "owner",
          "type": "address"
        },
        {
          "internalType": "address",
          "name": "operator",
          "type": "address"
        }
      ],
      "name": "isApprovedForAll",
      "outputs": [
        {
          "internalType": "bool",
          "name": "",
          "type": "bool"
        }
      ],
      "stateMutability": "view",
      "type": "function"
    },
    {
      "inputs": [
        {
          "internalType": "uint256",
          "name": "tokenId",
          "type": "uint256"
        }
      ],
      "name": "isExpired",
      "outputs": [
        {
          "internalType": "bool",
          "name": "",
          "type": "bool"
        }
      ],
      "stateMutability": "view",
      "type": "function"
    },
    {
      "inputs": [
        {
          "internalType": "address",
          "name": "to",
          "type": "address"
        },
        {
          "internalType": "string",
          "name": "name",
          "type": "string"
        },
        {
          "internalType": "uint96",
          "name": "duration",
          "type": "uint96"
        }
      ],
      "name": "mint",
      "outputs": [
        {
          "internalType": "uint256",
          "name": "",
          "type": "uint256"
        }
      ],
      "stateMutability": "nonpayable",
      "type": "function"
    },
    {
      "inputs": [],
      "name": "name",
      "outputs": [
        {
          "internalType": "string",
          "name": "",
          "type": "string"
        }
      ],
      "stateMutability": "view",
      "type": "function"
    },
    {
      "inputs": [
        {
          "internalType": "uint256",
          "name": "tokenId",
          "type": "uint256"
        }
      ],
      "name": "nameExpires",
      "outputs": [
        {
          "internalType": "uint256",
          "name": "",
          "type": "uint256"
        }
      ],
      "stateMutability": "view",
      "type": "function"
    },
    {
      "inputs": [
        {
          "internalType": "string",
          "name": "name",
          "type": "string"
        }
      ],
      "name": "nameToTokenId",
      "outputs": [
        {
          "internalType": "uint256",
          "name": "",
          "type": "uint256"
        }
      ],
      "stateMutability": "pure",
      "type": "function"
    },
    {
      "inputs": [],
      "name": "owner",
      "outputs": [
        {
          "internalType": "address",
          "name": "",
          "type": "address"
        }
      ],
      "stateMutability": "view",
      "type": "function"
    },
    {
      "inputs": [
        {
          "internalType": "uint256",
          "name": "tokenId",
          "type": "uint256"
        }
      ],
      "name": "ownerOf",
      "outputs": [
        {
          "internalType": "address",
          "name": "",
          "type": "address"
        }
      ],
      "stateMutability": "view",
      "type": "function"
    },
    {
      "inputs": [
        {
          "internalType": "address",
          "name": "",
          "type": "address"
        }
      ],
      "name": "primaryNameTokenId",
      "outputs": [
        {
          "internalType": "uint256",
          "name": "",
          "type": "uint256"
        }
      ],
      "stateMutability": "view",
      "type": "function"
    },
    {
      "inputs": [],
      "name": "renounceOwnership",
      "outputs": [],
      "stateMutability": "nonpayable",
      "type": "function"
    },
    {
      "inputs": [
        {
          "internalType": "address",
          "name": "addr",
          "type": "address"
        }
      ],
      "name": "resolveAddress",
      "outputs": [
        {
          "internalType": "string",
          "name": "",
          "type": "string"
        }
      ],
      "stateMutability": "view",
      "type": "function"
    },
    {
      "inputs": [
        {
          "internalType": "string",
          "name": "name",
          "type": "string"
        }
      ],
      "name": "resolveName",
      "outputs": [
        {
          "internalType": "address",
          "name": "",
          "type": "address"
        }
      ],
      "stateMutability": "view",
      "type": "function"
    },
    {
      "inputs": [
        {
          "internalType": "address",
          "name": "from",
          "type": "address"
        },
        {
          "internalType": "address",
          "name": "to",
          "type": "address"
        },
        {
          "internalType": "uint256",
          "name": "tokenId",
          "type": "uint256"
        }
      ],
      "name": "safeTransferFrom",
      "outputs": [],
      "stateMutability": "nonpayable",
      "type": "function"
    },
    {
      "inputs": [
        {
          "internalType": "address",
          "name": "from",
          "type": "address"
        },
        {
          "internalType": "address",
          "name": "to",
          "type": "address"
        },
        {
          "internalType": "uint256",
          "name": "tokenId",
          "type": "uint256"
        },
        {
          "internalType": "bytes",
          "name": "data",
          "type": "bytes"
        }
      ],
      "name": "safeTransferFrom",
      "outputs": [],
      "stateMutability": "nonpayable",
      "type": "function"
    },
    {
      "inputs": [
        {
          "internalType": "address",
          "name": "operator",
          "type": "address"
        },
        {
          "internalType": "bool",
          "name": "approved",
          "type": "bool"
        }
      ],
      "name": "setApprovalForAll",
      "outputs": [],
      "stateMutability": "nonpayable",
      "type": "function"
    },
    {
      "inputs": [
        {
          "internalType": "address",
          "name": "_controller",
          "type": "address"
        }
      ],
      "name": "setController",
      "outputs": [],
      "stateMutability": "nonpayable",
      "type": "function"
    },
    {
      "inputs": [
        {
          "internalType": "bytes4",
          "name": "interfaceId",
          "type": "bytes4"
        }
      ],
      "name": "supportsInterface",
      "outputs": [
        {
          "internalType": "bool",
          "name": "",
          "type": "bool"
        }
      ],
      "stateMutability": "view",
      "type": "function"
    },
    {
      "inputs": [],
      "name": "symbol",
      "outputs": [
        {
          "internalType": "string",
          "name": "",
          "type": "string"
        }
      ],
      "stateMutability": "view",
      "type": "function"
    },
    {
      "inputs": [
        {
          "internalType": "uint256",
          "name": "",
          "type": "uint256"
        }
      ],
      "name": "tokenData",
      "outputs": [
        {
          "internalType": "uint96",
          "name": "mintTimestamp",
          "type": "uint96"
        },
        {
          "internalType": "uint96",
          "name": "duration",
          "type": "uint96"
        },
        {
          "internalType": "address",
          "name": "resolveAddress",
          "type": "address"
        },
        {
          "internalType": "string",
          "name": "name",
          "type": "string"
        }
      ],
      "stateMutability": "view",
      "type": "function"
    },
    {
      "inputs": [
        {
          "internalType": "uint256",
          "name": "tokenId",
          "type": "uint256"
        }
      ],
      "name": "tokenURI",
      "outputs": [
        {
          "internalType": "string",
          "name": "",
          "type": "string"
        }
      ],
      "stateMutability": "view",
      "type": "function"
    },
    {
      "inputs": [],
      "name": "totalSupply",
      "outputs": [
        {
          "internalType": "uint256",
          "name": "",
          "type": "uint256"
        }
      ],
      "stateMutability": "view",
      "type": "function"
    },
    {
      "inputs": [
        {
          "internalType": "address",
          "name": "from",
          "type": "address"
        },
        {
          "internalType": "address",
          "name": "to",
          "type": "address"
        },
        {
          "internalType": "uint256",
          "name": "tokenId",
          "type": "uint256"
        }
      ],
      "name": "transferFrom",
      "outputs": [],
      "stateMutability": "nonpayable",
      "type": "function"
    },
    {
      "inputs": [
        {
          "internalType": "address",
          "name": "newOwner",
          "type": "address"
        }
      ],
      "name": "transferOwnership",
      "outputs": [],
      "stateMutability": "nonpayable",
      "type": "function"
    },
    {
      "inputs": [
        {
          "internalType": "uint256",
          "name": "tokenId",
          "type": "uint256"
        }
      ],
      "name": "updatePrimaryName",
      "outputs": [],
      "stateMutability": "nonpayable",
      "type": "function"
    },
    {
      "inputs": [
        {
          "internalType": "uint256",
          "name": "tokenId",
          "type": "uint256"
        },
        {
          "internalType": "address",
          "name": "newResolveAddress",
          "type": "address"
        }
      ],
      "name": "updateResolveAddress",
      "outputs": [],
      "stateMutability": "nonpayable",
      "type": "function"
    },
    {
      "inputs": [
        {
          "internalType": "uint256",
          "name": "tokenId",
          "type": "uint256"
        },
        {
          "components": [
            {
              "internalType": "uint96",
              "name": "mintTimestamp",
              "type": "uint96"
            },
            {
              "internalType": "uint96",
              "name": "duration",
              "type": "uint96"
            },
            {
              "internalType": "address",
              "name": "resolveAddress",
              "type": "address"
            },
            {
              "internalType": "string",
              "name": "name",
              "type": "string"
            }
          ],
          "internalType": "struct UsernameNFT.TokenData",
          "name": "data",
          "type": "tuple"
        }
      ],
      "name": "updateTokenData",
      "outputs": [],
      "stateMutability": "nonpayable",
      "type": "function"
    }
  ],
  "transactionHash": "0xc30c6fad99618263f0bb7ea7026a0f802d88c43a222e29e029605288b7165c61",
  "args": [
    "UsernameNFT",
    "UNFT",
    "example"
  ],
  "numDeployments": 3,
  "solcInputHash": "80dc3b733b98cf23c2d489e581966663",
  "bytecode": "0x608060405234620004bc5762004e63803803806200001d81620004c1565b9283398101606082820312620004bc5781516001600160401b039190828111620004bc57816200004f918501620004e7565b9060209384810151848111620004bc57826200006d918301620004e7565b916040820151858111620004bc57620000879201620004e7565b825191848311620004a6576000908154936001958686811c961680156200049b575b89871014620003a5578190601f9687811162000448575b508990878311600114620003e4578592620003d8575b5050600019600383901b1c191690861b1782555b805190868211620003c45785548681811c91168015620003b9575b89821014620003a55790818684931162000352575b508890868311600114620002ee578492620002e2575b5050600019600383901b1c191690851b1784555b60068054336001600160a01b0319821681179092556001600160a01b03167f8be0079c531659141344cd1fd0a4f28419497f9722a3daafe3b4186f6b6457e08380a38151948511620002ce576007548481811c91168015620002c3575b87821014620002af5783811162000266575b5085928511600114620001fd579394508492919083620001f1575b50501b916000199060031b1c1916176007555b60405161490990816200055a8239f35b015192503880620001ce565b6007815285812093958591601f198316915b888383106200024b575050501062000231575b505050811b01600755620001e1565b015160001960f88460031b161c1916905538808062000222565b8587015188559096019594850194879350908101906200020f565b600782528682208480880160051c820192898910620002a5575b0160051c019085905b82811062000299575050620001b3565b83815501859062000289565b9250819262000280565b634e487b7160e01b82526022600452602482fd5b90607f1690620001a1565b634e487b7160e01b81526041600452602490fd5b01519050388062000130565b8785528985208894509190601f198416865b8c8282106200033b575050841162000321575b505050811b01845562000144565b015160001960f88460031b161c1916905538808062000313565b8385015186558b9790950194938401930162000300565b9091508684528884208680850160051c8201928b86106200039b575b918991869594930160051c01915b8281106200038c5750506200011a565b8681558594508991016200037c565b925081926200036e565b634e487b7160e01b84526022600452602484fd5b90607f169062000105565b634e487b7160e01b83526041600452602483fd5b015190503880620000d6565b8580528a86208994509190601f198416875b8d82821062000431575050841162000417575b505050811b018255620000ea565b015160001960f88460031b161c1916905538808062000409565b8385015186558c97909501949384019301620003f6565b9091508480528985208780850160051c8201928c861062000491575b918a91869594930160051c01915b82811062000482575050620000c0565b8781558594508a910162000472565b9250819262000464565b95607f1695620000a9565b634e487b7160e01b600052604160045260246000fd5b600080fd5b6040519190601f01601f191682016001600160401b03811183821017620004a657604052565b919080601f84011215620004bc5782516001600160401b038111620004a6576020906200051d601f8201601f19168301620004c1565b92818452828287010111620004bc5760005b8181106200054557508260009394955001015290565b85810183015184820184015282016200052f56fe608080604052600436101561001357600080fd5b60003560e01c90816301ffc9a714613b0e5750806306fdde0314613a6b578063081812fc14613a4d578063095ea7b31461389457806318160ddd1461387657806323b872dd1461385257806342842e0e1461381f5780636352211e1461380157806370a082311461374a578063715018a6146136ca5780637b17b7a81461318057806381d5f3d4146131395780638da5cb5b1461310557806392eefe9b146130a057806395d89b4114612ffd578063a22cb46514612f1f578063aeb8ce9b14612ee1578063b4b5b48f14612e4b578063b88d4fde14612dc3578063bc19bce514612d6a578063c2fb26a614612c9c578063c87b56dd14610949578063d6e4fa861461092b578063d9548e5314610903578063dd001254146108c0578063e4205d061461077b578063e985e9c514610717578063ee44f291146103e1578063f2fde38b146102e4578063f77c4791146102b0578063f81e87751461028c578063fbef8e90146101c65763fe6a101f1461018a57600080fd5b346101c15760206003193601126101c1576101bd6101a9600435614718565b604051918291602083526020830190613c00565b0390f35b600080fd5b346101c1576020806003193601126101c15760043580600052600a825273ffffffffffffffffffffffffffffffffffffffff6001604060002001541633036102625733600052600b825280604060002055600052600a81527f1d57cda29e3c01dfdca1d3f21c0483ff06e19bf3520c21cf5af5eddb8b2f7f2b61025d60026040600020016040519182918583523395830190613de5565b0390a2005b60046040517f6cfb958d000000000000000000000000000000000000000000000000000000008152fd5b346101c15760206003193601126101c1576101bd6101a96102ab613c25565b6145f4565b346101c15760006003193601126101c157602073ffffffffffffffffffffffffffffffffffffffff60095416604051908152f35b346101c15760206003193601126101c1576102fd613c25565b610305613e7c565b73ffffffffffffffffffffffffffffffffffffffff80911690811561037757600654827fffffffffffffffffffffffff0000000000000000000000000000000000000000821617600655167f8be0079c531659141344cd1fd0a4f28419497f9722a3daafe3b4186f6b6457e0600080a3005b608460405162461bcd60e51b815260206004820152602660248201527f4f776e61626c653a206e6577206f776e657220697320746865207a65726f206160448201527f64647265737300000000000000000000000000000000000000000000000000006064820152fd5b346101c1576003196040813601126101c157600435906024359067ffffffffffffffff908183116101c15760809083360301126101c1576040519261042584613cad565b61043183600401613d79565b845261043f60248401613d79565b9360209081810195865260448501359373ffffffffffffffffffffffffffffffffffffffff9586861686036101c157604083019586526064810135908282116101c15760046104919236920101613d5b565b9660608301978852866009541633036106ed5784600052600a84526bffffffffffffffffffffffff60406000209351167fffffffffffffffff00000000000000000000000000000000000000000000000077ffffffffffffffffffffffff0000000000000000000000008554935160601b169216171782556002600192838101888851167fffffffffffffffffffffffff00000000000000000000000000000000000000008254161790550191875180519283116106be576105538454613d92565b601f8111610675575b508490601f841160011461061057600091849182610603575b505060001991921b9260031b1c19161790555b83835116156105d9577f781b23bebd7dad67f61c98ad264593b54d3b6dc2ac5002927277ba66899c22c7936105d0935116945191604051938493604085526040850190613c00565b918301520390a2005b60046040517fe1d76af9000000000000000000000000000000000000000000000000000000008152fd5b015191506000198b610575565b90601f1984939416918560005283876000209360005b898883831061065e5750505010610645575b505050811b019055610588565b015160001960f88460031b161c19169055888080610638565b868601518855909601959485019487935001610626565b8460005285600020601f850160051c8101918786106106b4575b601f0160051c019083905b8281106106a857505061055c565b6000815501839061069a565b909150819061068f565b7f4e487b7100000000000000000000000000000000000000000000000000000000600052604160045260246000fd5b60046040517f56be1927000000000000000000000000000000000000000000000000000000008152fd5b346101c15760406003193601126101c157610730613c25565b610738613c48565b9073ffffffffffffffffffffffffffffffffffffffff809116600052600560205260406000209116600052602052602060ff604060002054166040519015158152f35b346101c15760406003193601126101c157600435610797613c48565b73ffffffffffffffffffffffffffffffffffffffff90816107b784613f2c565b1633036108965781169182156105d957610879817f42963d5155d3789ca0a9d651579a6a88164d069972af6f2df013a99af91991c392600052600a6020526001604060002001857fffffffffffffffffffffffff00000000000000000000000000000000000000008254968716961617905583600052600b60205260406000208181541461088c575b5084600052806040600020805415610884575b50600052600a602052600260406000200190604051928392604084526040840190613de5565b9060208301520390a3005b558086610853565b6000905585610840565b60046040517fd01fd0d2000000000000000000000000000000000000000000000000000000008152fd5b346101c15760206003193601126101c15760043567ffffffffffffffff81116101c1576108fb6108f66020923690600401613d5b565b61465d565b604051908152f35b346101c15760206003193601126101c157602061092160043561468d565b4211604051908152f35b346101c15760206003193601126101c15760206108fb60043561468d565b346101c15760206003193601126101c157610989600435600052600260205273ffffffffffffffffffffffffffffffffffffffff60406000205416151590565b15612c725760405161099a81613cad565b605281527f557365726e616d65204e46547320617265206e6f6e2d66756e6769626c65207460208201527f6f6b656e73207468617420726570726573656e7420757365726e616d6573206f60408201527f6e20506f6c79676f6e2773207a6b45564d2e00000000000000000000000000006060820152610a1b60043561488a565b610a26600435614718565b90600435600052600a60205260016040600020015460405191608083016040526f30313233343536373839616263646566600f527fffffffffffffffffffffffffffffffffffffffff0000000000000000000000006002840192602884526000604a86015260601b16600160005b8080018601602284831a600f811651602384015360041c51910153019060148214610ac25790600190610a94565b5050610c8c9260c792613078600282510191528152610aea610ae560043561468d565b61488a565b906040519586937f5b7b2274726169745f74797065223a2022746f6b656e4964222c202276616c7560208601527f65223a202200000000000000000000000000000000000000000000000000000090816040870152610b5381518092602060458a019101613bdd565b8501907f227d2c207b2274726169745f74797065223a20226e616d65222c202276616c7560458301526065820152610b95825180936020606a85019101613bdd565b017f227d2c207b2274726169745f74797065223a20227265736f6c76656441646472606a8201527f657373222c202276616c7565223a202200000000000000000000000000000000608a820152610bf6825180936020609a85019101613bdd565b017f227d2c207b2274726169745f74797065223a2022657870697265734174222c20609a8201527f2276616c7565223a20220000000000000000000000000000000000000000000060ba820152610c5782518093602060c485019101613bdd565b017f227d5d000000000000000000000000000000000000000000000000000000000060c48201520360a7810184520182613ce5565b610c97600435614718565b6040516060810181811067ffffffffffffffff8211176106be5760405260005b60608110612c6457506040518061028081011067ffffffffffffffff610280830111176106be57610280810160405261024781527f3c7376672077696474683d223130383022206865696768743d2231303830222060208201527f76696577426f783d2230203020313038302031303830222066696c6c3d226e6f60408201527f6e652220786d6c6e733d22687474703a2f2f7777772e77332e6f72672f32303060608201527f302f737667223e203c6720636c69702d706174683d2275726c2823636c69703060808201527f5f323635375f3639363129223e203c726563742077696474683d22313038302260a08201527f206865696768743d2231303830222072783d22313230222066696c6c3d22233160c08201527f3331333135222f3e203c7061746820643d224d323739202d33314c2d3138203260e08201527f363648313132342e354c32353620313133342e3522207374726f6b653d2223326101008201527f333130333222207374726f6b652d77696474683d223239222f3e203c706174686101208201527f20643d224d323737203236324c2d31382035353748313132342e354c323536206101408201527f313432352e3522207374726f6b653d222332333130333222207374726f6b652d6101608201527f77696474683d223239222f3e203c7265637420783d222d34352220793d2237346101808201527f39222077696474683d223131353922206865696768743d22323337222066696c6101a08201527f6c3d2223333231373437222f3e203c746578742066696c6c3d222338453334446101c08201527f352220786d6c3a73706163653d22707265736572766522207374796c653d22776101e08201527f686974652d73706163653a207072652220666f6e742d66616d696c793d2241726102008201527f69616c2220666f6e742d73697a653d22393622206c65747465722d73706163696102208201527f6e673d222d302e3034656d223e3c747370616e20783d2236332220793d2238396102408201527f392e323831223e000000000000000000000000000000000000000000000000006102608201528152610fd6600435614718565b602082015260405190816113e081011067ffffffffffffffff6113e0840111176106be57602061286f916113e084016040526113ab84527f3c2f747370616e3e3c2f746578743e203c6720636c69702d706174683d227572828501527f6c2823636c6970315f323635375f3639363129223e203c7061746820643d224d60408501527f3137362e333936203136372e3336374c3230352e373937203135302e3930314360608501527f3230372e333536203135302e303237203230382e333139203134382e3430352060808501527f3230382e333139203134362e363634563131332e373331433230382e3331392060a08501527f3131312e393931203230372e333536203131302e333639203230352e3739372060c08501527f3130392e3439344c3137362e3339362039332e30323738433137342e3833382060e08501527f39322e31353331203137322e3930332039322e31363136203137312e333533206101008501527f39332e303237384c3134312e393532203130392e343934433134302e333934206101208501527f3131302e333639203133392e343331203131312e393931203133392e343331206101408501527f3131332e373331563137322e3538314c3131382e383132203138342e3132324c6101608501527f39382e31393235203137322e353831563134392e3439324c3131382e383132206101808501527f3133372e3935314c3133322e343039203134352e353638563133302e3037394c6101a08501527f3132312e333333203132332e383731433132302e353731203132332e343436206101c08501527f3131392e363936203132332e323137203131382e383132203132332e323137436101e08501527f3131372e393237203132332e323137203131372e303532203132332e343436206102008501527f3131362e3239203132332e3837314c38362e38383932203134302e33333743386102208501527f352e33333038203134312e3231322038342e33363737203134322e38333420386102408501527f342e33363737203134342e353735563137372e3530374338342e3336373720316102608501527f37392e3234382038352e33333038203138302e38372038362e383839322031386102808501527f312e3734344c3131362e3239203139382e323131433131372e383439203139396102a08501527f2e303737203131392e373735203139392e303737203132312e333333203139386102c08501527f2e3231314c3135302e373334203138312e373434433135322e323933203138306102e08501527f2e3837203135332e323536203137392e323438203135332e323536203137372e6103008501527f353037563131382e3635374c3135332e363233203131382e3435334c3137332e6103208501527f383636203130372e3131364c3139342e343835203131382e363537563134312e6103408501527f3734374c3137332e383636203135332e3238374c3136302e323836203134352e6103608501527f363837563136312e3137374c3137312e333434203136372e333637433137322e6103808501527f393033203136382e323334203137342e383338203136382e323334203137362e6103a08501527f333838203136372e333637483137362e3339365a222066696c6c3d2275726c286103c08501527f237061696e74305f6c696e6561725f323635375f3639363129222f3e203c70616103e08501527f746820643d224d3234302e373233203138342e363133563131372e34393248326104008501527f35312e3031394c323532203132322e3931483235322e3439433235352e3433326104208501527f203131392e313939203236302e343331203131362e353431203236372e3339326104408501527f203131362e353431433238302e313331203131362e353431203239302e3333316104608501527f203132362e363231203239302e333331203134312e353432433239302e3333316104808501527f203135362e343632203238302e3134203136362e353432203236372e333932206104a08501527f3136362e353432433236302e353238203136362e353432203235352e373320316104c08501527f36332e373832203235332e313832203136302e363439483235322e36393156316104e08501527f38342e363035483234302e3733314c3234302e373233203138342e3631335a4d6105008501527f3237382e333632203134312e3535433237382e333632203133322e38303320326105208501527f37322e353735203132372e323932203236352e353138203132372e32393243326105408501527f35382e343631203132372e323932203235322e363734203133322e38303320326105608501527f35322e363734203134312e3535433235322e363734203135302e3239372032356105808501527f382e343631203135352e383038203236352e353138203135352e3830384332376105a08501527f322e353735203135352e383038203237382e333632203135302e3239372032376105c08501527f382e333632203134312e35355a222066696c6c3d2223463746354634222f3e206105e08501527f3c7061746820643d224d3239362e333938203134312e353432433239362e33396106008501527f38203132362e393935203330372e313736203131362e353431203332312e35386106208501527f38203131362e353431433333352e393939203131362e353431203334362e37376106408501527f37203132362e393935203334362e373737203134312e353432433334362e37376106608501527f37203135362e303839203333352e393939203136362e353432203332312e35386106808501527f38203136362e353432433330372e313736203136362e353432203239362e33396106a08501527f38203135352e393837203239362e333938203134312e3534325a4d3333342e376106c08501527f3231203134312e353432433333342e373231203133322e393832203332382e386106e08501527f3337203132372e323833203332312e353838203132372e323833433331342e336107008501527f3338203132372e323833203330382e333538203133322e3939203330382e33356107208501527f38203134312e353432433330382e333538203135302e303933203331342e33336107408501527f38203135352e373036203332312e353838203135352e373036433332382e38336107608501527f37203135352e373036203333342e373231203135302e313032203333342e37326107808501527f31203134312e3534325a222066696c6c3d2223463746354634222f3e203c70616107a08501527f746820643d224d3335352e343337203136352e3630315639392e3034383848336107c08501527f36372e333936563136352e363031483335352e3433375a222066696c6c3d22236107e08501527f463746354634222f3e203c7061746820643d224d3431312e383034203131372e6108008501527f343932483432342e3534344c3430322e393739203137352e3936433430302e386108208501527f3235203138312e3736203339372e383833203138342e363134203339302e31336108408501527f35203138342e363134483337382e353639563137332e383731483338382e33376108608501527f35433339302e313433203137332e383731203339312e313135203137332e30316108808501527f33203339312e373131203137312e3538374c3339322e383834203136382e34356108a08501527f334c3337322e363934203131372e343932483338352e3433334c3339382e32376108c08501527f37203135302e383636483430302e3233394c3431312e383034203131372e34396108e08501527f325a222066696c6c3d2223463746354634222f3e203c7061746820643d224d346109008501527f32362e3832203136372e393737483433382e393733433433392e3436332031376109208501527f312e313131203434322e363934203137352e333931203435302e3334362031376109408501527f352e333931433435372e343939203137352e333931203436322e3231203137316109608501527f2e303138203436322e3231203136342e3336563135372e363039483436312e376109808501527f3139433435392e303735203136302e333639203435342e313732203136322e386109a08501527f34203434372e383934203136322e3834433433352e313535203136322e3834206109c08501527f3432352e333439203135332e333239203432352e333439203133392e363339436109e08501527f3432352e333439203132352e3935203433352e313535203131362e3534312034610a008501527f34372e383934203131362e353431433435342e343631203131362e3534312034610a208501527f35392e323638203131392e313036203436322e333036203132322e3732334834610a408501527f36322e3739364c3436332e373737203131372e343932483437342e3137563136610a608501527f342e3336433437342e3137203137372e303938203436352e333434203138352e610a808501527f353635203435302e333436203138352e353635433433332e353838203138352e610aa08501527f353635203432372e313138203137342e393135203432362e3832203136372e39610ac08501527f37375a4d3436322e3231203133392e363438433436322e3231203133322e3134610ae08501527f31203435362e3732203132362e3931203434392e373539203132362e39314334610b008501527f34322e373939203132362e3931203433372e343035203133322e313431203433610b208501527f372e343035203133392e363438433433372e343035203134372e313535203434610b408501527f322e383935203135322e343739203434392e373539203135322e343739433435610b608501527f362e363234203135322e343739203436322e3231203134372e32343820343632610b808501527f2e3231203133392e3634385a222066696c6c3d2223463746354634222f3e203c610ba08501527f7061746820643d224d3438322e343837203134312e353432433438322e343837610bc08501527f203132362e393935203439332e323635203131362e353431203530372e363737610be08501527f203131362e353431433532322e303838203131362e353431203533322e383636610c008501527f203132362e393935203533322e383636203134312e353432433533322e383636610c208501527f203135362e303839203532322e303838203136362e353432203530372e363737610c408501527f203136362e353432433439332e323635203136362e353432203438322e343837610c608501527f203135352e393837203438322e343837203134312e3534325a4d3532302e3831610c808501527f203134312e353432433532302e3831203133322e393832203531342e39323620610ca08501527f3132372e323833203530372e363737203132372e323833433530302e34323720610cc08501527f3132372e323833203439342e343437203133322e3939203439342e3434372031610ce08501527f34312e353432433439342e343437203135302e303933203530302e3432372031610d008501527f35352e373036203530372e363737203135352e373036433531342e3932362031610d208501527f35352e373036203532302e3831203135302e313032203532302e383120313431610d408501527f2e3534325a222066696c6c3d2223463746354634222f3e203c7061746820643d610d608501527f224d3534312e313932203136352e36563131372e343932483535312e34384c35610d808501527f35322e343631203132322e303532483535322e393531433535342e3931322031610da08501527f31392e3837203535392e383135203131362e353431203536372e323537203131610dc08501527f362e353431433537382e363331203131362e353431203538362e383631203132610de08501527f342e353234203538362e383631203133362e363933563136352e353931483537610e008501527f342e393031563133382e323133433537342e393031203133322e303331203537610e208501527f302e333932203132372e353634203536342e323139203132372e353634433535610e408501527f382e303437203132372e353634203535332e313434203133322e323236203535610e608501527f332e313434203133382e323133563136352e353931483534312e3138344c3534610e808501527f312e313932203136352e365a222066696c6c3d2223463746354634222f3e203c610ea08501527f7061746820643d224d3634342e333532203136352e313637483630392e333238610ec08501527f563136302e3732334c3633372e303034203132332e373931483630392e383035610ee08501527f563131382e383835483634332e383735563132332e3332384c3631362e313939610f008501527f203136302e323631483634342e333532563136352e3136375a222066696c6c3d610f208501527f2223463746354634222f3e203c7061746820643d224d3636302e313820313635610f408501527f2e313637483635342e383336563130302e333733483636302e3138563134302e610f608501527f3236384c3638332e383438203131382e383836483639302e39314c3636352e38610f808501527f3131203134312e3536344c3639312e383635203136352e313637483638342e38610fa08501527f30324c3636302e3138203134322e3836563136352e3136375a222066696c6c3d610fc08501527f2223463746354634222f3e203c7061746820643d224d3734322e343131203136610fe08501527f352e313637483730302e3432563130302e333733483734322e343131563130356110008501527f2e363439483730362e313436563132392e383038483734302e353032563133356110208501527f2e303834483730362e313436563135392e383931483734322e343131563136356110408501527f2e3136375a222066696c6c3d2223463746354634222f3e203c7061746820643d6110608501527f224d3738332e303536203136352e313637483737332e3739394c3734392e36356110808501527f34203130302e333733483735352e3736324c3737372e343235203135392e33336110a08501527f36483737392e3432394c3830312e313838203130302e333733483830372e32306110c08501527f314c3738332e303536203136352e3136375a222066696c6c3d222346374635466110e08501527f34222f3e203c7061746820643d224d3832322e363434203136352e31363748386111008501527f31362e393138563130302e333733483832372e3839334c3835302e33322031356111208501527f382e393636483835322e3232394c3837342e363536203130302e3337334838386111408501527f352e363331563136352e313637483837392e393035563130372e35483837372e6111608501527f3939364c3835352e383535203136352e313637483834362e3539384c3832342e6111808501527f353533203130372e35483832322e363434563136352e3136375a222066696c6c6111a08501527f3d2223463746354634222f3e203c2f673e203c2f673e203c646566733e203c6c6111c08501527f696e6561724772616469656e742069643d227061696e74305f6c696e6561725f6111e08501527f323635375f36393631222078313d2238332e39363439222079313d223138302e6112008501527f373334222078323d223230312e313335222079323d223131302e3631352220676112208501527f72616469656e74556e6974733d227573657253706163654f6e557365223e203c6112408501527f73746f702073746f702d636f6c6f723d2223413732364331222f3e203c73746f6112608501527f70206f66667365743d22302e3838222073746f702d636f6c6f723d22233830336112808501527f424446222f3e203c73746f70206f66667365743d2231222073746f702d636f6c6112a08501527f6f723d2223374233464534222f3e203c2f6c696e6561724772616469656e743e6112c08501527f203c636c6970506174682069643d22636c6970305f323635375f36393631223e6112e08501527f203c726563742077696474683d223130383022206865696768743d22313038306113008501527f222072783d22313230222066696c6c3d227768697465222f3e203c2f636c69706113208501527f506174683e203c636c6970506174682069643d22636c6970315f323635375f366113408501527f393631223e203c726563742077696474683d2238303222206865696768743d226113608501527f313037222066696c6c3d22776869746522207472616e73666f726d3d227472616113808501527f6e736c61746528383420393229222f3e203c2f636c6970506174683e203c2f646113a08501527f6566733e203c2f7376673e0000000000000000000000000000000000000000006113c085015283604082015281815191015193604051948261283c8794518092878088019101613bdd565b830161285082518093878085019101613bdd565b0161286382518093868085019101613bdd565b01038084520182613ce5565b806060915180612b47575b5050906129d1926086926040519586937f7b226e616d65223a20222e7a6b65766d20557365726e616d652000000000000060208601526128c4815180926020603a89019101613bdd565b84017f222c20226465736372697074696f6e223a202200000000000000000000000000603a820152612900825180936020604d85019101613bdd565b017f222c2022696d616765223a2022646174613a696d6167652f7376672b786d6c3b604d8201527f6261736536342c00000000000000000000000000000000000000000000000000606d820152612961825180936020607485019101613bdd565b017f222c202261747472696275746573223a20000000000000000000000000000000607482015261299c825180936020608585019101613bdd565b017f7d000000000000000000000000000000000000000000000000000000000000006085820152036066810184520182613ce5565b80606090519182612a34575b6101bd826101a9603d60405180937f646174613a6170706c69636174696f6e2f6a736f6e3b6261736536342c0000006020830152612a248151809260208686019101613bdd565b810103601d810184520182613ce5565b9050600380600284010460021b90604051927f4142434445464748494a4b4c4d4e4f505152535455565758595a616263646566601f52603f7ffffffffffffffffffffffffffffffffffffffffffffffffffffffffffffffdd07f6768696a6b6c6d6e6f707172737475767778797a303132333435363738392d5f01815260208501928486019360048260208701955b0191848351818160121c16516000538181600c1c1651600153818160061c1651600253165184536000518152019084821015612b03576004908390612ac3565b5092506101bd96601f197f3d3d00000000000000000000000000000000000000000000000000000000000093600096011660405206600204820352528152826129dd565b9291509260039384600285010460021b604051917f4142434445464748494a4b4c4d4e4f505152535455565758595a616263646566601f52603f907ffffffffffffffffffffffffffffffffffffffffffffffffffffffffffffffdd07f6768696a6b6c6d6e6f707172737475767778797a303132333435363738392d5f01825260208401918385019260048a60208601945b0191838351818160121c16516000538181600c1c1651600153818160061c165160025316518c536000518152019083821015612c19576004908b90612bd9565b5091506129d198608698601f197f3d3d00000000000000000000000000000000000000000000000000000000000093600096011660405206600204820352528152919281945061287a565b606082820152602001610cb7565b60046040517f9f12e874000000000000000000000000000000000000000000000000000000008152fd5b346101c15760006003193601126101c1576040516000600754612cbe81613d92565b80845290600190818116908115612d435750600114612ce8575b6101bd846101a981860382613ce5565b6007600090815292507fa66cc928b5edb82af9bd49922954155ab7b0942694bea4ce44661d9a8736c6885b828410612d2b5750505081016020016101a982612cd8565b80546020858701810191909152909301928101612d13565b60ff191660208087019190915292151560051b850190920192506101a99150839050612cd8565b346101c15760206003193601126101c15760043567ffffffffffffffff81116101c157612da5612da06020923690600401613d5b565b614571565b73ffffffffffffffffffffffffffffffffffffffff60405191168152f35b346101c15760806003193601126101c157612ddc613c25565b612de4613c48565b906064359060443567ffffffffffffffff83116101c157366023840112156101c157612e4993612e21612e44943690602481600401359101613d24565b92612e34612e2f843361409a565b613fb7565b612e3f838383614186565b61449a565b614028565b005b346101c15760206003193601126101c157600435600052600a602052604060002080546101bd6002612ea973ffffffffffffffffffffffffffffffffffffffff60018601541694612ea26040518094819301613de5565b0382613ce5565b6040519384936bffffffffffffffffffffffff90818116865260601c1660208501526040840152608060608401526080830190613c00565b346101c15760206003193601126101c15760043567ffffffffffffffff81116101c157610921612f1a6108f66020933690600401613d5b565b61468d565b346101c15760406003193601126101c157612f38613c25565b602435908115158092036101c15773ffffffffffffffffffffffffffffffffffffffff1690813314612fb957336000526005602052604060002082600052602052604060002060ff1981541660ff83161790556040519081527f17307eab39ab6107e8899845ad3d59bd9653f200f220920489ca2b5937696c3160203392a3005b606460405162461bcd60e51b815260206004820152601960248201527f4552433732313a20617070726f766520746f2063616c6c6572000000000000006044820152fd5b346101c15760006003193601126101c1576040516000600180549061302182613d92565b80855291818116908115612d435750600114613047576101bd846101a981860382613ce5565b600081815292507fb10e2d527612073b26eecdfd717e6a320cf44b4afac2b0732d9fcbe2b7fa0cf65b8284106130885750505081016020016101a982612cd8565b80546020858701810191909152909301928101613070565b346101c15760206003193601126101c15773ffffffffffffffffffffffffffffffffffffffff6130ce613c25565b6130d6613e7c565b167fffffffffffffffffffffffff00000000000000000000000000000000000000006009541617600955600080f35b346101c15760006003193601126101c157602073ffffffffffffffffffffffffffffffffffffffff60065416604051908152f35b346101c15760206003193601126101c15773ffffffffffffffffffffffffffffffffffffffff613167613c25565b16600052600b6020526020604060002054604051908152f35b346101c15760606003193601126101c157613199613c25565b60243567ffffffffffffffff81116101c1576131b9903690600401613d5b565b6bffffffffffffffffffffffff916044359183831683036101c15773ffffffffffffffffffffffffffffffffffffffff93846009541633036106ed576131fe8261465d565b9361322c85600052600260205273ffffffffffffffffffffffffffffffffffffffff60406000205416151590565b6135f4575b60085495600019968781146135c5576001016008556040519161325383613cc9565b600083528186169586156135815761334b612e446002956132a061329a8c600052600260205273ffffffffffffffffffffffffffffffffffffffff60406000205416151590565b15614526565b6132d061329a8c600052600260205273ffffffffffffffffffffffffffffffffffffffff60406000205416151590565b8960005260036020526040600020600181540190558a600052866020528a6040600020947fffffffffffffffffffffffff0000000000000000000000000000000000000000958c87825416179055818c60007fddf252ad1be2c89b69c2b068fc378daa952ba7f163c4a11628f55a4df523b3ef8180a46142d2565b6040519261335884613cad565b8542168452856020850193168352604084019288845260608501968888528a600052600a60205260406000209551167fffffffffffffffff00000000000000000000000000000000000000000000000077ffffffffffffffffffffffff0000000000000000000000008754935160601b1692161717845560018401925116908254161790550190519485519067ffffffffffffffff82116106be576133fd8354613d92565b96601f8811613539575b602097508790601f84116001146134ab5792613488949281927fdcc2175a495289b48da3c0c903e6e8fd7bbf9400cc93d7d1b8be780fc5916c6697956000936134a0575b50508260011b9260031b1c19161790555b83600052600b8652846040600020805415613498575b5050604051918291604083526040830190613c00565b85878301520390a2604051908152f35b558487613472565b015191508a8061344b565b9190601f1984169285600052896000209360005b81811061352257509285926134889795927fdcc2175a495289b48da3c0c903e6e8fd7bbf9400cc93d7d1b8be780fc5916c6699976001961061350a575b50505050811b01905561345c565b01519060f88460031b161c19169055898080806134fc565b92948b6001819288860151815501960193016134bf565b836000526020600020601f840160051c81019860208510613577575b601f0160051c01975b88811061356b5750613407565b6000815560010161355e565b9098508890613555565b606460405162461bcd60e51b815260206004820152602060248201527f4552433732313a206d696e7420746f20746865207a65726f20616464726573736044820152fd5b7f4e487b7100000000000000000000000000000000000000000000000000000000600052601160045260246000fd5b6135fd8561468d565b421161362d5760046040517f557ebeac000000000000000000000000000000000000000000000000000000008152fd5b61363685613f2c565b5084600061364382613f2c565b82825260046020528860408320917fffffffffffffffffffffffff000000000000000000000000000000000000000092838154169055169081835260036020526040832060001981540190558383526002602052604083209081541690557fddf252ad1be2c89b69c2b068fc378daa952ba7f163c4a11628f55a4df523b3ef8280a4613231565b346101c15760006003193601126101c1576136e3613e7c565b600073ffffffffffffffffffffffffffffffffffffffff6006547fffffffffffffffffffffffff00000000000000000000000000000000000000008116600655167f8be0079c531659141344cd1fd0a4f28419497f9722a3daafe3b4186f6b6457e08280a3005b346101c15760206003193601126101c15773ffffffffffffffffffffffffffffffffffffffff613778613c25565b1680156137975760005260036020526020604060002054604051908152f35b608460405162461bcd60e51b815260206004820152602960248201527f4552433732313a2061646472657373207a65726f206973206e6f74206120766160448201527f6c6964206f776e657200000000000000000000000000000000000000000000006064820152fd5b346101c15760206003193601126101c1576020612da5600435613f2c565b346101c157612e49612e4461383336613c6b565b906040519261384184613cc9565b60008452612e34612e2f843361409a565b346101c157612e4961386336613c6b565b91613871612e2f843361409a565b614186565b346101c15760006003193601126101c1576020600854604051908152f35b346101c15760406003193601126101c1576138ad613c25565b6024359073ffffffffffffffffffffffffffffffffffffffff80806138d185613f2c565b169216918083146139e3578033149081156139be575b5015613954578260005260046020526040600020827fffffffffffffffffffffffff000000000000000000000000000000000000000082541617905561392c83613f2c565b167f8c5be1e5ebec7d5bd14f71427d1e84f3dd0314c0f7b2291e5b200ac8c7c3b925600080a4005b608460405162461bcd60e51b815260206004820152603d60248201527f4552433732313a20617070726f76652063616c6c6572206973206e6f7420746f60448201527f6b656e206f776e6572206f7220617070726f76656420666f7220616c6c0000006064820152fd5b9050600052600560205260406000203360005260205260ff60406000205416846138e7565b608460405162461bcd60e51b815260206004820152602160248201527f4552433732313a20617070726f76616c20746f2063757272656e74206f776e6560448201527f72000000000000000000000000000000000000000000000000000000000000006064820152fd5b346101c15760206003193601126101c1576020612da5600435613f5b565b346101c15760006003193601126101c15760405160008054613a8c81613d92565b80845290600190818116908115612d435750600114613ab5576101bd846101a981860382613ce5565b600080805292507f290decd9548b62a8d60345a988386fc84ba6bc95484008f6362f93160ef3e5635b828410613af65750505081016020016101a982612cd8565b80546020858701810191909152909301928101613ade565b346101c15760206003193601126101c157600435907fffffffff0000000000000000000000000000000000000000000000000000000082168092036101c157817f80ac58cd0000000000000000000000000000000000000000000000000000000060209314908115613bb3575b8115613b89575b5015158152f35b7f01ffc9a70000000000000000000000000000000000000000000000000000000091501483613b82565b7f5b5e139f0000000000000000000000000000000000000000000000000000000081149150613b7b565b60005b838110613bf05750506000910152565b8181015183820152602001613be0565b90601f19601f602093613c1e81518092818752878088019101613bdd565b0116010190565b6004359073ffffffffffffffffffffffffffffffffffffffff821682036101c157565b6024359073ffffffffffffffffffffffffffffffffffffffff821682036101c157565b60031960609101126101c15773ffffffffffffffffffffffffffffffffffffffff9060043582811681036101c1579160243590811681036101c1579060443590565b6080810190811067ffffffffffffffff8211176106be57604052565b6020810190811067ffffffffffffffff8211176106be57604052565b90601f601f19910116810190811067ffffffffffffffff8211176106be57604052565b67ffffffffffffffff81116106be57601f01601f191660200190565b929192613d3082613d08565b91613d3e6040519384613ce5565b8294818452818301116101c1578281602093846000960137010152565b9080601f830112156101c157816020613d7693359101613d24565b90565b35906bffffffffffffffffffffffff821682036101c157565b90600182811c92168015613ddb575b6020831014613dac57565b7f4e487b7100000000000000000000000000000000000000000000000000000000600052602260045260246000fd5b91607f1691613da1565b9060009291805491613df683613d92565b918282526001938481169081600014613e585750600114613e18575b50505050565b90919394506000526020928360002092846000945b838610613e44575050505001019038808080613e12565b805485870183015294019385908201613e2d565b915050602094955060ff199193501683830152151560051b01019038808080613e12565b73ffffffffffffffffffffffffffffffffffffffff600654163303613e9d57565b606460405162461bcd60e51b815260206004820152602060248201527f4f776e61626c653a2063616c6c6572206973206e6f7420746865206f776e65726044820152fd5b15613ee857565b606460405162461bcd60e51b815260206004820152601860248201527f4552433732313a20696e76616c696420746f6b656e20494400000000000000006044820152fd5b600052600260205273ffffffffffffffffffffffffffffffffffffffff60406000205416613d76811515613ee1565b613f90613f8b82600052600260205273ffffffffffffffffffffffffffffffffffffffff60406000205416151590565b613ee1565b600052600460205273ffffffffffffffffffffffffffffffffffffffff6040600020541690565b15613fbe57565b608460405162461bcd60e51b815260206004820152602d60248201527f4552433732313a2063616c6c6572206973206e6f7420746f6b656e206f776e6560448201527f72206f7220617070726f766564000000000000000000000000000000000000006064820152fd5b1561402f57565b60405162461bcd60e51b815260206004820152603260248201527f4552433732313a207472616e7366657220746f206e6f6e20455243373231526560448201527f63656976657220696d706c656d656e74657200000000000000000000000000006064820152608490fd5b9073ffffffffffffffffffffffffffffffffffffffff80806140bb84613f2c565b169316918383149384156140ee575b5083156140d8575b50505090565b6140e491929350613f5b565b16143880806140d2565b909350600052600560205260406000208260005260205260ff6040600020541692386140ca565b1561411c57565b608460405162461bcd60e51b815260206004820152602560248201527f4552433732313a207472616e736665722066726f6d20696e636f72726563742060448201527f6f776e65720000000000000000000000000000000000000000000000000000006064820152fd5b906141bb9161419484613f2c565b9173ffffffffffffffffffffffffffffffffffffffff938493848094169485911614614115565b1691821561426957816141d8916141d186613f2c565b1614614115565b7fddf252ad1be2c89b69c2b068fc378daa952ba7f163c4a11628f55a4df523b3ef60008481526004602052604081207fffffffffffffffffffffffff00000000000000000000000000000000000000009081815416905583825260036020526040822060001981540190558482526040822060018154019055858252600260205284604083209182541617905580a4565b608460405162461bcd60e51b8152602060048201526024808201527f4552433732313a207472616e7366657220746f20746865207a65726f2061646460448201527f72657373000000000000000000000000000000000000000000000000000000006064820152fd5b9192600092909190803b156144905761434e9460405180927f150b7a020000000000000000000000000000000000000000000000000000000094858352336004840152876024840152604483015260806064830152818773ffffffffffffffffffffffffffffffffffffffff8260209b8c976084830190613c00565b0393165af1849181614434575b5061440b575050503d600014614403573d61437581613d08565b906143836040519283613ce5565b81528091833d92013e5b805191826144005760405162461bcd60e51b815260206004820152603260248201527f4552433732313a207472616e7366657220746f206e6f6e20455243373231526560448201527f63656976657220696d706c656d656e74657200000000000000000000000000006064820152608490fd5b01fd5b50606061438d565b7fffffffff00000000000000000000000000000000000000000000000000000000161492509050565b9091508581813d8311614489575b61444c8183613ce5565b8101031261448557517fffffffff000000000000000000000000000000000000000000000000000000008116810361448557903861435b565b8480fd5b503d614442565b5050915050600190565b9293600093909291803b1561451b5794849161434e96604051809481937f150b7a02000000000000000000000000000000000000000000000000000000009788845233600485015273ffffffffffffffffffffffffffffffffffffffff80921660248501526044840152608060648401528260209b8c976084830190613c00565b505050915050600190565b1561452d57565b606460405162461bcd60e51b815260206004820152601c60248201527f4552433732313a20746f6b656e20616c7265616479206d696e746564000000006044820152fd5b61457a9061465d565b6145a781600052600260205273ffffffffffffffffffffffffffffffffffffffff60406000205416151590565b1580156145e3575b6145dd57600052600a60205273ffffffffffffffffffffffffffffffffffffffff6001604060002001541690565b50600090565b506145ed8161468d565b42116145af565b73ffffffffffffffffffffffffffffffffffffffff16600052600b6020526040600020546146218161468d565b421161464957600052600a602052612ea2613d76600260406000200160405192838092613de5565b5060405161465681613cc9565b6000815290565b6040516146876020828161467a8183019687815193849201613bdd565b8101038084520182613ce5565b51902090565b600052600a60205260026040600020614702604051916146ac83613cad565b8054926bffffffffffffffffffffffff9485938493848716845284602085019760601c16875273ffffffffffffffffffffffffffffffffffffffff6001820154166040850152612ea26040518094819301613de5565b60608201525116915116018181116135c5571690565b6000908152602090600a825260026040822001906040519281849284549461473f86613d92565b9060019685888216918260001461486e575050600114614836575b50507f2e00000000000000000000000000000000000000000000000000000000000000815281926007549261478e84613d92565b9387811690811561481157506001146147b9575b50505050613d76925003601f198101835282613ce5565b600781527fa66cc928b5edb82af9bd49922954155ab7b0942694bea4ce44661d9a8736c6889694505b8381106147fb575050613d7694500101388080806147a2565b86548382018601529584019587955081016147e2565b915050613d7696945060ff1991509291921683830152801515020101388080806147a2565b90915082528282208583915b8383106148575750505083018201388061475a565b805489840187015288965091850191879101614842565b9150935060ff199150168286015280151502840101388061475a565b90604051600019608082019360a0830160405260008552935b0192600a908181066030018553049283156148c157600019906148a3565b9250608083601f19920301920191825256fea264697066735822122095e78263535f7fde12d2a0d2abc81690007f224cdae8d4a9da49451af4732ecb64736f6c63430008130033",
  "devdoc": {
    "details": "UsernameNFT contract represents the NFTs for usernames. Each NFT represents a unique username and has an associated resolved address. The contract also stores the duration for which the username is registered and the timestamp when it was minted or renewed.",
    "events": {
      "Approval(address,address,uint256)": {
        "details": "Emitted when `owner` enables `approved` to manage the `tokenId` token."
      },
      "ApprovalForAll(address,address,bool)": {
        "details": "Emitted when `owner` enables or disables (`approved`) `operator` to manage all of its assets."
      },
      "Transfer(address,address,uint256)": {
        "details": "Emitted when `tokenId` token is transferred from `from` to `to`."
      }
    },
    "kind": "dev",
    "methods": {
      "approve(address,uint256)": {
        "details": "See {IERC721-approve}."
      },
      "available(string)": {
        "details": "This function checks if the given name is not registered or if the associated tokenId is expired.",
        "params": {
          "name": "The name to be checked for availability."
        },
        "returns": {
          "_0": "bool True if the name is available, false otherwise."
        }
      },
      "balanceOf(address)": {
        "details": "See {IERC721-balanceOf}."
      },
      "getApproved(uint256)": {
        "details": "See {IERC721-getApproved}."
      },
      "getDisplayName(uint256)": {
        "details": "This function first resolves the address to its associated username using the resolveAddress function. If an active, valid username is found, it appends the domain to the username and returns the resulting display name. Example: If the username is \"alice\" and the domain is \"example\", the display name will be \"alice.example\".",
        "params": {
          "tokenId": "The token ID to be resolved."
        },
        "returns": {
          "_0": "string memory The display name associated with the address."
        }
      },
      "isApprovedForAll(address,address)": {
        "details": "See {IERC721-isApprovedForAll}."
      },
      "isExpired(uint256)": {
        "details": "This function checks if the current block timestamp is greater than the expiration timestamp of the given tokenId.",
        "params": {
          "tokenId": "The token ID of the NFT."
        },
        "returns": {
          "_0": "bool True if the tokenId is expired, false otherwise."
        }
      },
      "mint(address,string,uint96)": {
        "details": "This function can only be called by the controller contract. It checks if the name is available and mints a new NFT with the given token data if it is.",
        "params": {
          "duration": "The duration for which the username will be registered.",
          "name": "The desired username.",
          "to": "The address of the user who will own the NFT."
        },
        "returns": {
          "_0": "uint256 The token ID of the minted NFT."
        }
      },
      "name()": {
        "details": "See {IERC721Metadata-name}."
      },
      "nameExpires(uint256)": {
        "details": "This function calculates the expiration timestamp by adding the duration to the mint timestamp of the given tokenId.",
        "params": {
          "tokenId": "The token ID of the NFT."
        },
        "returns": {
          "_0": "uint The Unix timestamp of when the tokenId expires."
        }
      },
      "nameToTokenId(string)": {
        "details": "This function calculates the token ID by hashing the given name using the keccak256 hash function.",
        "params": {
          "name": "The name to be converted."
        },
        "returns": {
          "_0": "uint256 The token ID corresponding to the given name."
        }
      },
      "owner()": {
        "details": "Returns the address of the current owner."
      },
      "ownerOf(uint256)": {
        "details": "See {IERC721-ownerOf}."
      },
      "renounceOwnership()": {
        "details": "Leaves the contract without owner. It will not be possible to call `onlyOwner` functions anymore. Can only be called by the current owner. NOTE: Renouncing ownership will leave the contract without an owner, thereby removing any functionality that is only available to the owner."
      },
      "resolveAddress(address)": {
        "details": "This function returns the username associated with a given resolved address if it is registered and not expired. Otherwise, it returns an empty string.",
        "params": {
          "addr": "The owner address to be resolved."
        },
        "returns": {
          "_0": "string memory The username associated with the resolved address."
        }
      },
      "resolveName(string)": {
        "details": "This function returns the resolved address for a given username if it is registered and not expired. Otherwise, it returns the zero address.",
        "params": {
          "name": "The username to be resolved."
        },
        "returns": {
          "_0": "address The resolved address of the username."
        }
      },
      "safeTransferFrom(address,address,uint256)": {
        "details": "See {IERC721-safeTransferFrom}."
      },
      "safeTransferFrom(address,address,uint256,bytes)": {
        "details": "See {IERC721-safeTransferFrom}."
      },
      "setApprovalForAll(address,bool)": {
        "details": "See {IERC721-setApprovalForAll}."
      },
      "setController(address)": {
        "details": "The controller contract is responsible for minting and updating token data.",
        "params": {
          "_controller": "address - The address of the controller contract."
        }
      },
      "supportsInterface(bytes4)": {
        "details": "See {IERC165-supportsInterface}."
      },
      "symbol()": {
        "details": "See {IERC721Metadata-symbol}."
      },
      "tokenURI(uint256)": {
        "details": "This function returns the URI of the NFT by encoding the generated JSON metadata as a base64 string. The URI can be used to retrieve metadata associated with the NFT, such as a JSON file containing information about the NFT's properties, image, and other attributes.",
        "params": {
          "tokenId": "The token ID of the NFT."
        },
        "returns": {
          "_0": "string memory The URI of the NFT."
        }
      },
      "transferFrom(address,address,uint256)": {
        "details": "See {IERC721-transferFrom}."
      },
      "transferOwnership(address)": {
        "details": "Transfers ownership of the contract to a new account (`newOwner`). Can only be called by the current owner."
      },
      "updatePrimaryName(uint256)": {
        "details": "This function can only be called by resolved address of the NFT. It updates the primary name for the given tokenId with the provided newResolvedAddress. It also updates the primary name for the old and new resolved addresses if needed.",
        "params": {
          "tokenId": "The token ID of the NFT to be updated."
        }
      },
      "updateResolveAddress(uint256,address)": {
        "details": "This function can only be called by the owner of the NFT. It updates the resolved address for the given tokenId with the provided newResolvedAddress. It also updates the primary name for the old and new resolved addresses if needed.",
        "params": {
          "newResolveAddress": "The new resolved address.",
          "tokenId": "The token ID of the NFT to be updated."
        }
      },
      "updateTokenData(uint256,(uint96,uint96,address,string))": {
        "details": "This function can only be called by the controller contract. It updates the token data for the given tokenId with the provided data.",
        "params": {
          "data": "The updated token data.",
          "tokenId": "The token ID of the NFT to be updated."
        }
      }
    },
    "title": "UsernameNFT",
    "version": 1
  },
  "userdoc": {
    "kind": "user",
    "methods": {
      "available(string)": {
        "notice": "Checks if a given name is available for registration."
      },
      "getDisplayName(uint256)": {
        "notice": "Returns the display name for a given address."
      },
      "isExpired(uint256)": {
        "notice": "Checks if a given tokenId is expired."
      },
      "mint(address,string,uint96)": {
        "notice": "Mints a new NFT for a given name if it's available."
      },
      "nameExpires(uint256)": {
        "notice": "Returns the Unix timestamp of when the given tokenId expires."
      },
      "nameToTokenId(string)": {
        "notice": "Converts a given name to its corresponding token ID."
      },
      "resolveAddress(address)": {
        "notice": "Returns the username for a given resolved address."
      },
      "resolveName(string)": {
        "notice": "Returns the resolved address for a given username."
      },
      "setController(address)": {
        "notice": "Sets the controller contract address."
      },
      "tokenURI(uint256)": {
        "notice": "Returns the URI for a given NFT."
      },
      "updatePrimaryName(uint256)": {
        "notice": "Updates the primary name for a given resolved address."
      },
      "updateResolveAddress(uint256,address)": {
        "notice": "Updates the resolved address for a given NFT."
      },
      "updateTokenData(uint256,(uint96,uint96,address,string))": {
        "notice": "Updates the token data for a given NFT."
      }
    },
    "version": 1
  },
  "storageLayout": {
    "storage": [
      {
        "astId": 138,
        "contract": "contracts/UsernameNFT.sol:UsernameNFT",
        "label": "_name",
        "offset": 0,
        "slot": "0",
        "type": "t_string_storage"
      },
      {
        "astId": 140,
        "contract": "contracts/UsernameNFT.sol:UsernameNFT",
        "label": "_symbol",
        "offset": 0,
        "slot": "1",
        "type": "t_string_storage"
      },
      {
        "astId": 144,
        "contract": "contracts/UsernameNFT.sol:UsernameNFT",
        "label": "_owners",
        "offset": 0,
        "slot": "2",
        "type": "t_mapping(t_uint256,t_address)"
      },
      {
        "astId": 148,
        "contract": "contracts/UsernameNFT.sol:UsernameNFT",
        "label": "_balances",
        "offset": 0,
        "slot": "3",
        "type": "t_mapping(t_address,t_uint256)"
      },
      {
        "astId": 152,
        "contract": "contracts/UsernameNFT.sol:UsernameNFT",
        "label": "_tokenApprovals",
        "offset": 0,
        "slot": "4",
        "type": "t_mapping(t_uint256,t_address)"
      },
      {
        "astId": 158,
        "contract": "contracts/UsernameNFT.sol:UsernameNFT",
        "label": "_operatorApprovals",
        "offset": 0,
        "slot": "5",
        "type": "t_mapping(t_address,t_mapping(t_address,t_bool))"
      },
      {
        "astId": 7,
        "contract": "contracts/UsernameNFT.sol:UsernameNFT",
        "label": "_owner",
        "offset": 0,
        "slot": "6",
        "type": "t_address"
      },
      {
        "astId": 3030,
        "contract": "contracts/UsernameNFT.sol:UsernameNFT",
        "label": "domain",
        "offset": 0,
        "slot": "7",
        "type": "t_string_storage"
      },
      {
        "astId": 3050,
        "contract": "contracts/UsernameNFT.sol:UsernameNFT",
        "label": "totalSupply",
        "offset": 0,
        "slot": "8",
        "type": "t_uint256"
      },
      {
        "astId": 3053,
        "contract": "contracts/UsernameNFT.sol:UsernameNFT",
        "label": "controller",
        "offset": 0,
        "slot": "9",
        "type": "t_contract(UsernameController)3010"
      },
      {
        "astId": 3067,
        "contract": "contracts/UsernameNFT.sol:UsernameNFT",
        "label": "tokenData",
        "offset": 0,
        "slot": "10",
        "type": "t_mapping(t_uint256,t_struct(TokenData)3062_storage)"
      },
      {
        "astId": 3071,
        "contract": "contracts/UsernameNFT.sol:UsernameNFT",
        "label": "primaryNameTokenId",
        "offset": 0,
        "slot": "11",
        "type": "t_mapping(t_address,t_uint256)"
      }
    ],
    "types": {
      "t_address": {
        "encoding": "inplace",
        "label": "address",
        "numberOfBytes": "20"
      },
      "t_bool": {
        "encoding": "inplace",
        "label": "bool",
        "numberOfBytes": "1"
      },
      "t_contract(UsernameController)3010": {
        "encoding": "inplace",
        "label": "contract UsernameController",
        "numberOfBytes": "20"
      },
      "t_mapping(t_address,t_bool)": {
        "encoding": "mapping",
        "key": "t_address",
        "label": "mapping(address => bool)",
        "numberOfBytes": "32",
        "value": "t_bool"
      },
      "t_mapping(t_address,t_mapping(t_address,t_bool))": {
        "encoding": "mapping",
        "key": "t_address",
        "label": "mapping(address => mapping(address => bool))",
        "numberOfBytes": "32",
        "value": "t_mapping(t_address,t_bool)"
      },
      "t_mapping(t_address,t_uint256)": {
        "encoding": "mapping",
        "key": "t_address",
        "label": "mapping(address => uint256)",
        "numberOfBytes": "32",
        "value": "t_uint256"
      },
      "t_mapping(t_uint256,t_address)": {
        "encoding": "mapping",
        "key": "t_uint256",
        "label": "mapping(uint256 => address)",
        "numberOfBytes": "32",
        "value": "t_address"
      },
      "t_mapping(t_uint256,t_struct(TokenData)3062_storage)": {
        "encoding": "mapping",
        "key": "t_uint256",
        "label": "mapping(uint256 => struct UsernameNFT.TokenData)",
        "numberOfBytes": "32",
        "value": "t_struct(TokenData)3062_storage"
      },
      "t_string_storage": {
        "encoding": "bytes",
        "label": "string",
        "numberOfBytes": "32"
      },
      "t_struct(TokenData)3062_storage": {
        "encoding": "inplace",
        "label": "struct UsernameNFT.TokenData",
        "members": [
          {
            "astId": 3055,
            "contract": "contracts/UsernameNFT.sol:UsernameNFT",
            "label": "mintTimestamp",
            "offset": 0,
            "slot": "0",
            "type": "t_uint96"
          },
          {
            "astId": 3057,
            "contract": "contracts/UsernameNFT.sol:UsernameNFT",
            "label": "duration",
            "offset": 12,
            "slot": "0",
            "type": "t_uint96"
          },
          {
            "astId": 3059,
            "contract": "contracts/UsernameNFT.sol:UsernameNFT",
            "label": "resolveAddress",
            "offset": 0,
            "slot": "1",
            "type": "t_address"
          },
          {
            "astId": 3061,
            "contract": "contracts/UsernameNFT.sol:UsernameNFT",
            "label": "name",
            "offset": 0,
            "slot": "2",
            "type": "t_string_storage"
          }
        ],
        "numberOfBytes": "96"
      },
      "t_uint256": {
        "encoding": "inplace",
        "label": "uint256",
        "numberOfBytes": "32"
      },
      "t_uint96": {
        "encoding": "inplace",
        "label": "uint96",
        "numberOfBytes": "12"
      }
    }
  }
}