{
  "address": "0xB0c5446D1415F5DE521BBf7A29AFb32009Aba8A9",
  "abi": [
    {
      "inputs": [
        {
          "internalType": "contract Oracle",
          "name": "_oracle",
          "type": "address"
        },
        {
          "internalType": "contract UsernameNFT",
          "name": "_usernameNFT",
          "type": "address"
        }
      ],
      "stateMutability": "nonpayable",
      "type": "constructor"
    },
    {
      "inputs": [],
      "name": "FailedWithdrawError",
      "type": "error"
    },
    {
      "inputs": [],
      "name": "InsufficientNativeError",
      "type": "error"
    },
    {
      "inputs": [],
      "name": "NameAlreadyActiveError",
      "type": "error"
    },
    {
      "inputs": [],
      "name": "NotTokenOwnerOrNameTakenError",
      "type": "error"
    },
    {
      "inputs": [],
      "name": "OnlyNFTOwnerError",
      "type": "error"
    },
    {
      "anonymous": false,
      "inputs": [
        {
          "indexed": true,
          "internalType": "address",
          "name": "previousOwner",
          "type": "address"
        },
        {
          "indexed": true,
          "internalType": "address",
          "name": "newOwner",
          "type": "address"
        }
      ],
      "name": "OwnershipTransferred",
      "type": "event"
    },
    {
      "inputs": [],
      "name": "oracle",
      "outputs": [
        {
          "internalType": "contract Oracle",
          "name": "",
          "type": "address"
        }
      ],
      "stateMutability": "view",
      "type": "function"
    },
    {
      "inputs": [],
      "name": "owner",
      "outputs": [
        {
          "internalType": "address",
          "name": "",
          "type": "address"
        }
      ],
      "stateMutability": "view",
      "type": "function"
    },
    {
      "inputs": [
        {
          "internalType": "string",
          "name": "name",
          "type": "string"
        },
        {
          "internalType": "uint96",
          "name": "duration",
          "type": "uint96"
        }
      ],
      "name": "register",
      "outputs": [
        {
          "internalType": "uint256",
          "name": "",
          "type": "uint256"
        }
      ],
      "stateMutability": "payable",
      "type": "function"
    },
    {
      "inputs": [
        {
          "internalType": "uint256",
          "name": "tokenId",
          "type": "uint256"
        },
        {
          "internalType": "uint96",
          "name": "duration",
          "type": "uint96"
        }
      ],
      "name": "renew",
      "outputs": [
        {
          "internalType": "uint256",
          "name": "",
          "type": "uint256"
        }
      ],
      "stateMutability": "payable",
      "type": "function"
    },
    {
      "inputs": [],
      "name": "renounceOwnership",
      "outputs": [],
      "stateMutability": "nonpayable",
      "type": "function"
    },
    {
      "inputs": [
        {
          "internalType": "contract Oracle",
          "name": "_oracle",
          "type": "address"
        }
      ],
      "name": "setOracle",
      "outputs": [],
      "stateMutability": "nonpayable",
      "type": "function"
    },
    {
      "inputs": [
        {
          "internalType": "address",
          "name": "newOwner",
          "type": "address"
        }
      ],
      "name": "transferOwnership",
      "outputs": [],
      "stateMutability": "nonpayable",
      "type": "function"
    },
    {
      "inputs": [],
      "name": "usernameNFT",
      "outputs": [
        {
          "internalType": "contract UsernameNFT",
          "name": "",
          "type": "address"
        }
      ],
      "stateMutability": "view",
      "type": "function"
    },
    {
      "inputs": [],
      "name": "withdraw",
      "outputs": [],
      "stateMutability": "nonpayable",
      "type": "function"
    }
  ],
  "transactionHash": "0x4fcc87a9dfd10019661373de0449c27f218e8f24af08a3aeeeb7f3b7a7abf19e",
  "args": [
    "0xf7fF8A9D4C19A852B43312642501bed63aB1A6bC",
    "0xC18aD2816205dBB12ab926058865f0fd63D4a894"
  ],
  "numDeployments": 2,
  "solcInputHash": "7df3e7da2ecfde97dd308667a8d69187",
  "bytecode": "0x6080346100c057601f610e4b38819003918201601f19168301916001600160401b038311848410176100c55780849260409485528339810103126100c05780516001600160a01b0391828216918290036100c05760200151908282168092036100c0576000549060018060a01b0319913383821617600055604051943391167f8be0079c531659141344cd1fd0a4f28419497f9722a3daafe3b4186f6b6457e0600080a38160015416176001556002541617600255610d6f90816100dc8239f35b600080fd5b634e487b7160e01b600052604160045260246000fdfe6040608081526004908136101561001557600080fd5b600090813560e01c80633ccfd60b14610a2b578063715018a6146109ad5780637adbf973146109475780637dc0d1d0146109135780638da5cb5b146108e15780639c87a121146106c4578063e7e071cc14610690578063f2fde38b1461056d5763f516b59b1461008457600080fd5b806003193601126105695782359161009a610b93565b73ffffffffffffffffffffffffffffffffffffffff8060025416958451917fb4b5b48f000000000000000000000000000000000000000000000000000000008352868284015284836024818b5afa90811561055f5785988699879588946104b2575b508851917fd9548e530000000000000000000000000000000000000000000000000000000083528a8684015260209b8c84602481855afa9384156104a8578a9461046c575b5060015486518c517fa36a821c00000000000000000000000000000000000000000000000000000000815260ff9091168982019081526bffffffffffffffffffffffff8c16602082015290918f9183918916908290819060400103915afa90811561040d578b9161043f575b503410610417578a517f6352211e0000000000000000000000000000000000000000000000000000000081528c888201528d81602481865afa90811561040d578b916103d4575b5085339116036103ac5783156102ca575b505050610216575b88888851908152f35b80600254169387519561022887610ab9565b6bffffffffffffffffffffffff908142168852168a87015216868501526060840152813b156102c657918391868361028d958851968795869485937fee44f2910000000000000000000000000000000000000000000000000000000085528401610cd2565b03925af180156102bc576102a5575b8080808061020d565b6102af8291610b04565b6102b9578061029c565b80fd5b83513d84823e3d90fd5b8380fd5b6bffffffffffffffffffffffff9081168982160181811161038057818c51946102f286610ab9565b168452168c8301528387168a830152846060830152803b1561037c576103499189918c838d518096819582947fee44f2910000000000000000000000000000000000000000000000000000000084528d8401610cd2565b03925af180156103725761035f575b8080610205565b61036b90979197610b04565b9538610358565b89513d8a823e3d90fd5b8880fd5b60248b60118a7f4e487b7100000000000000000000000000000000000000000000000000000000835252fd5b868b517f028422c2000000000000000000000000000000000000000000000000000000008152fd5b90508d81813d8311610406575b6103eb8183610b18565b81010312610402576103fc90610cb1565b386101f4565b8a80fd5b503d6103e1565b8c513d8d823e3d90fd5b868b517f06ad9250000000000000000000000000000000000000000000000000000000008152fd5b90508d81813d8311610465575b6104568183610b18565b810103126104025751386101ad565b503d61044c565b9093508c81813d83116104a1575b6104848183610b18565b8101031261049d5751801515810361049d579238610141565b8980fd5b503d61047a565b8b513d8c823e3d90fd5b9a5050915092503d80868a3e6104c8818a610b18565b88019260808985031261055b576104de89610c98565b916104eb60208b01610c98565b926104f7898c01610cb1565b9a60608101519067ffffffffffffffff821161049d570186601f8201121561037c5780519061052582610b59565b976105328c51998a610b18565b8289526020838301011161049d5790610551916020808a019101610c32565b92999492386100fc565b8580fd5b86513d87823e3d90fd5b5080fd5b5082903461068c57602060031936011261068c5781359173ffffffffffffffffffffffffffffffffffffffff91828416809403610688576105ac610bb3565b83156106055750508254827fffffffffffffffffffffffff00000000000000000000000000000000000000008216178455167f8be0079c531659141344cd1fd0a4f28419497f9722a3daafe3b4186f6b6457e08380a380f35b90602060849251917f08c379a0000000000000000000000000000000000000000000000000000000008352820152602660248201527f4f776e61626c653a206e6577206f776e657220697320746865207a65726f206160448201527f64647265737300000000000000000000000000000000000000000000000000006064820152fd5b8480fd5b8280fd5b503461056957816003193601126105695760209073ffffffffffffffffffffffffffffffffffffffff600254169051908152f35b50806003193601126105695782359267ffffffffffffffff841161068c573660238501121561068c57838101356106fa81610b59565b9061070784519283610b18565b8082523660248288010111610688576024958186926020988993018386013783010152610732610b93565b9160ff8251166107aa878573ffffffffffffffffffffffffffffffffffffffff9384600154169089518095819482937fa36a821c0000000000000000000000000000000000000000000000000000000084528a84019092916bffffffffffffffffffffffff60209160ff604085019616845216910152565b03915afa9081156108d75787916108a6575b50341061087e5792869286610820936bffffffffffffffffffffffff9660025416938851978896879586947f7b17b7a80000000000000000000000000000000000000000000000000000000086523390860152606060248601526064850190610c55565b9116604483015203925af1928315610873578093610841575b505051908152f35b909192508382813d831161086c575b61085a8183610b18565b810103126102b9575051903880610839565b503d610850565b8251903d90823e3d90fd5b5083517f06ad9250000000000000000000000000000000000000000000000000000000008152fd5b90508781813d83116108d0575b6108bd8183610b18565b810103126108cc5751386107bc565b8680fd5b503d6108b3565b86513d89823e3d90fd5b503461056957816003193601126105695773ffffffffffffffffffffffffffffffffffffffff60209254169051908152f35b503461056957816003193601126105695760209073ffffffffffffffffffffffffffffffffffffffff600154169051908152f35b828434610569576020600319360112610569573573ffffffffffffffffffffffffffffffffffffffff811680910361056957610981610bb3565b7fffffffffffffffffffffffff0000000000000000000000000000000000000000600154161760015580f35b82346102b957806003193601126102b9576109c6610bb3565b8073ffffffffffffffffffffffffffffffffffffffff81547fffffffffffffffffffffffff000000000000000000000000000000000000000081168355167f8be0079c531659141344cd1fd0a4f28419497f9722a3daafe3b4186f6b6457e08280a380f35b5082903461068c578260031936011261068c578280808073ffffffffffffffffffffffffffffffffffffffff81541647905af13d15610ab4573d610a6e81610b59565b90610a7b84519283610b18565b81528460203d92013e5b15610a8e578280f35b517f16afd56f000000000000000000000000000000000000000000000000000000008152fd5b610a85565b6080810190811067ffffffffffffffff821117610ad557604052565b7f4e487b7100000000000000000000000000000000000000000000000000000000600052604160045260246000fd5b67ffffffffffffffff8111610ad557604052565b90601f7fffffffffffffffffffffffffffffffffffffffffffffffffffffffffffffffe0910116810190811067ffffffffffffffff821117610ad557604052565b67ffffffffffffffff8111610ad557601f017fffffffffffffffffffffffffffffffffffffffffffffffffffffffffffffffe01660200190565b602435906bffffffffffffffffffffffff82168203610bae57565b600080fd5b73ffffffffffffffffffffffffffffffffffffffff600054163303610bd457565b60646040517f08c379a000000000000000000000000000000000000000000000000000000000815260206004820152602060248201527f4f776e61626c653a2063616c6c6572206973206e6f7420746865206f776e65726044820152fd5b60005b838110610c455750506000910152565b8181015183820152602001610c35565b907fffffffffffffffffffffffffffffffffffffffffffffffffffffffffffffffe0601f602093610c9181518092818752878088019101610c32565b0116010190565b51906bffffffffffffffffffffffff82168203610bae57565b519073ffffffffffffffffffffffffffffffffffffffff82168203610bae57565b906060610d369360c0928452604060208501526bffffffffffffffffffffffff8082511660408601526020820151168285015273ffffffffffffffffffffffffffffffffffffffff6040820151166080850152015191608060a08201520190610c55565b9056fea26469706673582212207e4d6448bfd04b9a4776ea49170af4e490a66469852cec269ddfe0f136839c6164736f6c63430008130033",
  "devdoc": {
    "details": "The UsernameController contract handles the registration, renewal, and management of usernames. It interacts with the Oracle contract to determine the price of registering a username and the UsernameNFT contract to mint and manage the NFTs representing the registered usernames.",
    "kind": "dev",
    "methods": {
      "owner()": {
        "details": "Returns the address of the current owner."
      },
      "register(string,uint96)": {
        "params": {
          "duration": "uint96 - The duration for which the username will be registered",
          "name": "string memory - The desired username."
        },
        "returns": {
          "_0": "uint - The token ID of the minted NFT."
        }
      },
      "renew(uint256,uint96)": {
        "params": {
          "duration": "The additional duration for which the username will be registered",
          "tokenId": "The token ID of the NFT representing the username."
        },
        "returns": {
          "_0": "uint The token ID of the updated NFT."
        }
      },
      "renounceOwnership()": {
        "details": "Leaves the contract without owner. It will not be possible to call `onlyOwner` functions anymore. Can only be called by the current owner. NOTE: Renouncing ownership will leave the contract without an owner, thereby removing any functionality that is only available to the owner."
      },
      "setOracle(address)": {
        "details": "This function can only be called by the contract owner.",
        "params": {
          "_oracle": "The address of the Oracle instance to be set."
        }
      },
      "transferOwnership(address)": {
        "details": "Transfers ownership of the contract to a new account (`newOwner`). Can only be called by the current owner."
      }
    },
    "title": "UsernameController",
    "version": 1
  },
  "userdoc": {
    "kind": "user",
    "methods": {
      "register(string,uint96)": {
        "notice": "Registers a new username and mints an NFT if the name is available."
      },
      "renew(uint256,uint96)": {
        "notice": "Renews the registration of a username by updating its expiry."
      },
      "setOracle(address)": {
        "notice": "Sets the Oracle instance to be used by the contract."
      },
      "withdraw()": {
        "notice": "Withdraws the accumulated Ether balance from the contract to the contract owner's address"
      }
    },
    "version": 1
  },
  "storageLayout": {
    "storage": [
      {
        "astId": 7,
        "contract": "contracts/UsernameController.sol:UsernameController",
        "label": "_owner",
        "offset": 0,
        "slot": "0",
        "type": "t_address"
      },
      {
        "astId": 2774,
        "contract": "contracts/UsernameController.sol:UsernameController",
        "label": "oracle",
        "offset": 0,
        "slot": "1",
        "type": "t_contract(Oracle)2763"
      },
      {
        "astId": 2777,
        "contract": "contracts/UsernameController.sol:UsernameController",
        "label": "usernameNFT",
        "offset": 0,
        "slot": "2",
        "type": "t_contract(UsernameNFT)3737"
      }
    ],
    "types": {
      "t_address": {
        "encoding": "inplace",
        "label": "address",
        "numberOfBytes": "20"
      },
      "t_contract(Oracle)2763": {
        "encoding": "inplace",
        "label": "contract Oracle",
        "numberOfBytes": "20"
      },
      "t_contract(UsernameNFT)3737": {
        "encoding": "inplace",
        "label": "contract UsernameNFT",
        "numberOfBytes": "20"
      }
    }
  }
}